:020000040800F2
:100000002046002025030008ED5E0008A54E0008EC
:10001000295C00080D2500082D8A0008000000005A
:10002000000000000000000000000000590200086D
:10003000CF250008000000009D020008E1810008B3
:100040003F0300083F0300083F0300082D6A000833
:100050003F0300083F030008A9270008AF27000856
:100060003F0300083F030008B52700083F030008CE
:100070003F0300083F030008992500083F030008DC
:100080003F0300083F0300083F0300083F03000848
:100090003F0300083F0300083F030008BB27000898
:1000A0003F0300083F0300083F0300083F03000828
:1000B0003F0300083F0300087D8200083F0300085B
:1000C0003F0300083F0300083F0300083F03000808
:1000D0003F030008C98800083F0300083F030008E9
:1000E0003F030008DD6800083F03000800F002F845
:1000F00000F0A2F80AA090E8000C82448344AAF120
:100100000107DA4501D100F097F8AFF2090EBAE81D
:100110000F0013F0010F18BFFB1A43F0010318473B
:1001200080EB0000A0EB00000A4410F8014B14F033
:100130000F0508BF10F8015B240908BF10F8014B38
:100140006D1E05D010F8013B6D1E01F8013BF9D181
:10015000641E03D0641E01F8015BFBD19142E4D31D
:10016000704700000023002400250026103A28BF15
:1001700078C1FBD8520728BF30C148BF0B60704719
:100180006E2900F0D883702900F0398566290CF0BB
:10019000F88165290CF0F58167290CF0F28161295D
:1001A0000CF0F18103681B0A28BF41F08001692926
:1001B00000F05681642900F05381752900F05081C8
:1001C0006F2900F0C684782900F00585E92900F040
:1001D0006184E42900F05E84F52900F05B84EF2956
:1001E00000F0C384F82900F004850368DB0928BF08
:1001F00041F08001632900F0E283732900F0E78376
:10020000E32901F03B81F32901F040810020704790
:100210001FB500F03AFA01F08FF904000020002128
:100220000BF094F9401C6060002000210BF078F97D
:10023000E0601FBD10B510BD01F050F91146FFF789
:10024000E7FF09F04DF901F02DFA03B4FFF7F2FFD3
:1002500003BC01F031FA0000224B19680868B0E8CD
:10026000F00F80F30988BFF36F8F4FF0000080F329
:1002700011884EF00D0E704700000000064800681F
:10028000006880F3088862B661B6BFF34F8FBFF392
:100290006F8F00DF00BF00BF08ED00E0EFF30980C3
:1002A000BFF36F8F0F4B1A6820E9F00F106008B58D
:1002B0004FF0500080F31188BFF34F8FBFF36F8F63
:1002C0000AF0C0F94FF0000080F31188BDE8084043
:1002D00019680868B0E8F00F80F30988BFF36F8FE2
:1002E000704700BF50000020EFF30580704700000A
:1002F0000B49D1F800C04A685CF8043B1068184408
:1003000042F8040B8C4528BFA1F1DC0C8A4228BFBF
:10031000A1F1DC02C1F800C04A6020F00040704743
:10032000B43F00200948804709480047FEE7FEE740
:10033000FEE7FEE7FEE7FEE7FEE7FEE7FEE7FEE795
:1003400004480549054A064B704700007B820008B7
:10035000ED00000820400020204600202042002020
:10036000204200201CB50C46064B7B446946009099
:10037000204600F0FAFA04460020694600F008FB27
:1003800020461CBD230600000FB47CB50C0009AA52
:10039000009001D02044401E084B7B4469460190E8
:1003A000089800F0E2FA05461CB10020694600F00A
:1003B000EFFA28467CBC5DF814FB0000FD05000048
:1003C00070B5044685690068C10601D5302600E095
:1003D0002026C00707D070BDD4E9012130469047E0
:1003E000206A401C20626D1EF6D570BD70B50446B3
:1003F00085690078C00707D170BDD4E901212020AC
:100400009047206A401C20626D1EF6D570BD70B505
:100410000C460546012A05D02878800600D5EA69F1
:10042000002302E0012305E05B1C934202D2E05C62
:100430000028F9D1A869E618C01AA861286A1844EA
:1004400028622846FFF7BCFF04E0D5E9012114F833
:10045000010B9047B442F8D32846FFF7C7FF70BDA1
:100460002DE9F0410646002410687529314616A58D
:1004700010D000F0F5F9002802DA404213A507E099
:1004800031688A0701D512A502E0490704D511A5F4
:10049000012401E000F0EDF900210A2206F1240711
:1004A00009E0B0FBF2FCB0FBF2F302FB1C003030C1
:1004B00078541846491C0028F3D123462A46304672
:1004C000BDE8F04100F0DEB9000000002D000000A2
:1004D0002B000000200000002DE9F05F8946044653
:1004E0004FF0000ADFF874B1FB44C0F820A02046AA
:1004F000E1688847002874D0252806D0D4E9012176
:100500009047206A401C2062F1E700265F462046A3
:10051000E16888472028054607DB312D05D2781988
:1005200010F8200C08B10643F1E7B00701D526F01A
:100530000406C4F81CA00027C4F818A02A2D09D06E
:10054000284608F0BBFD38B304EB8708303DC8F8F7
:10055000185019E059F8041B204604EB87029161FA
:10056000E1688847012F054618D1E069002820DAA4
:1005700026F020061DE0D8F8180000EB800005EBFF
:1005800040003038C8F818002046E1688847054622
:1005900008F094FD0028EED1012F0AD02E2D08D1AD
:1005A0002046E16888477F1C0546022F46F020065A
:1005B000C4DBA069002803DA404246F00106A061CE
:1005C000F00701D026F010066C2D0BD0682D09D055
:1005D0004C2D39D06A2D35D0742D35D07A2D33D0AD
:1005E00016E038E0E1682F4620468847B8420546C5
:1005F00009D16C2F26D04FF48060E1680643204675
:100600008847054604E06C2F1AD04FF480700643EB
:100610000DB3A5F14100192802D8203546F4006633
:100620004A462946204626604E46FFF7A9FD80B17E
:1006300001280BD0F61D26F0070000F1080956E747
:100640004020E4E78020D8E70020D6E706F104093F
:100650004DE7284652E7206ABDE8F09FEBE4000032
:100660000B4910B5A1F17C020A4CC2E937123721BF
:1006700006E000EB104342F82130074B00FB03403B
:100680000B1EA1F10101F4DC10BD0120E8E7000020
:10069000543F0020E119D666CD0D010010B5431C72
:1006A00002E010F8011B71B18107FAD14FF001325D
:1006B00002C88C1A8C4314EAC211F9D0C01A0A0677
:1006C00003D0C01E10BDC01A10BD0A0401D0801E88
:1006D00010BD0902FCD0401E10BD032A40F230803C
:1006E00010F0030C00F0158011F8013BBCF1020F73
:1006F000624498BF11F801CB00F8013B38BF11F8F4
:10070000013BA2F1040298BF00F801CB38BF00F80A
:10071000013B11F0030300F07D82083AC0F008802D
:1007200051F8043B083A51F804CBA0E80810F5E76B
:10073000121D5CBF51F8043B40F8043BAFF300804E
:10074000D20724BF11F8013B11F801CB48BF11F8C3
:10075000012B24BF00F8013B00F801CB48BF00F893
:10076000012B704702F0FF0343EA032242EA0242F0
:1007700000F084BA4FF0000200B513469446964646
:10078000203922BFA0E80C50A0E80C50B1F12001A4
:10079000BFF4F7AF090728BFA0E80C5048BF0CC052
:1007A0005DF804EB890028BF40F8042B08BF7047B0
:1007B00048BF20F8022B11F0804F18BF00F8012B22
:1007C000704700004FF0013C50F8042B51F8043BF7
:1007D0009A4221D1A2EB0C03934313EACC1317D115
:1007E00050F8042B51F8043B9A4215D1A2EB0C03AC
:1007F000934313EACC130BD150F8042B51F8043B6C
:100800009A4209D1A2EB0C03934313EACC13DBD039
:100810004FF00000704700BFD01A01BAB1FA81F161
:1008200001F0180122FA01F0CB40C1F12001DBB246
:10083000C0B2C01A2CFA01F3D11A914311EAC311C4
:10084000E6D1704770477047704710B500F036FA30
:10085000006810BD10B5044600F030FA046010BD09
:1008600009684A0501D540B27047C905FCD500B2F8
:10087000704709684A0501D5C0B27047C905FCD563
:1008800080B270472DE9F0470D46994692460446DE
:1008900000F124080168880604D5E06921F0100100
:1008A000216000E00120A84201DD471B00E0002795
:1008B000A1697A1902EB0900081AA0612078C00624
:1008C00002D42046FFF77CFD002608E0D4E9012190
:1008D0001AF806009047206A401C761C20624E459C
:1008E000F4DB2078C0060AD52046FFF769FD06E054
:1008F000D4E9012130209047206A401C2062381E34
:10090000A7F10107F4DC07E0D4E9012118F805009C
:100910009047206A401C2062281EA5F10105F3DCE7
:100920002046FFF763FD2078000602D50220BDE8CF
:10093000F0870120FBE711680268006A530501D5C2
:1009400008700AE0D30501D5088006E0130603D538
:10095000C217C1E9000200E00860012070470000F2
:1009600001694A1C02610878704700B58FB0CDE973
:1009700001310021059105497944CDE90310114663
:100980006846FFF7A9FD0FB000BD0000E5FFFFFFBF
:100990000A6802F8010B0A607047D1E900239A4205
:1009A00002D2531C0B601070704710B5436913B12D
:1009B000AFF3008001E0FFF72AFD012010BD12789F
:1009C00000F124010A7000224A700122EDE711684B
:1009D0004FF0FF32E9E700002DE9FF5F15468A4638
:1009E0000446DFF8AC80F8440027D8E900103E4602
:1009F000CDE9001010E03AF816106A4602A800F09F
:100A000049FD411C07D02178890603D5E2693918D0
:100A100091420DD80744761C2078800602D5E06903
:100A2000B84205DDAE42E6DB3AF816000028E2D116
:100A3000A069C01BA0612046FFF7C2FCD8E90010E6
:100A4000CDE90010002017E03AF818106A4602A815
:100A500000F020FDB0F1FF3F81460BD000250DF1E5
:100A6000080B05E0D4E901211BF8050090476D1C37
:100A70004D45F7D308F10100B0428046E4DB206A1F
:100A8000384420622046FFF7B1FCBDE8FF9F00001C
:100A9000FEDF00002DE9F0418046D21D22F0070262
:100AA0000025D2E90002F52915A614D0011E72F125
:100AB000000106DA0023D0EB030063EB020211A66B
:100AC00008E0D8F800108B0701D50FA602E049070F
:100AD00001D50EA601251146002408F1240704E0E3
:100AE00000F0F0F830323A55641C50EA0102F7D1B8
:100AF0002B46324621464046BDE8F041FFF7C2BED4
:100B0000000000002D0000002B000000200000006D
:100B100030B4002100F1240408E002F00705D208F7
:100B2000303542EA4372DB086554491C52EA03053A
:100B3000F3D10468002310A2250707D5A40600D42A
:100B400021B1C46901230DA2641EC46130BCFFF74A
:100B500099BE10B5044621461068FFF78AFE02468A
:100B60002046BDE810400023D2E7D21D22F0070145
:100B7000D1E90023CCE700000000000030000000B5
:100B8000F0B40D460188090502D5214C7C4402E0F1
:100B90001F4C7C440E34002100F1240608E002F0D2
:100BA0000F071209E75D42EA03721B097754491CDB
:100BB00052EA0307F3D102780023120704D5702DFF
:100BC00006D009B1022311342246F0BCFFF75ABE09
:100BD00001231034F8E770B504460D46214610682D
:100BE000FFF747FE024629462046BDE87040002335
:100BF000C6E7D21D22F00703D3E90023C0E703684C
:100C0000126843F0200303600823C3610023B7E7A1
:100C100060DE000010B5203AC0F00B80B1E818503B
:100C2000203AA0E81850B1E81850A0E81850BFF4D6
:100C3000F5AF5FEA027C24BFB1E81850A0E8185075
:100C400044BF18C918C0BDE810405FEA827C24BFC9
:100C500051F8043B40F8043B08BF7047D20728BF57
:100C600031F8023B48BF11F8012B28BF20F8023BA6
:100C700048BF00F8012B70474FF000020429C0F074
:100C8000128010F0030C3FF477ADCCF1040CBCF1F2
:100C9000020F18BF00F8012BA8BF20F8022BA1EB10
:100CA0000C01FFF769BD5FEAC17C24BF00F8012B8E
:100CB00000F8012B48BF00F8012B7047004870472F
:100CC000BC3F002030B5B0F10A024FEA900E71F13E
:100CD00000034EEA817EB0EB0E0061EB91014FEA1A
:100CE000101E4EEA017E10EB0E0041EB11114FEA8F
:100CF000102E4EEA016E10EB0E0041EB11214FEA6F
:100D0000104E4EEA014E10EB0E0041EB114140181F
:100D100041F100014FEAD00040EA41704FEAD101B1
:100D200010EB80054FEA810444EA907444EB01041F
:100D30006D1944EB0404521BA3414FF0000348BF5C
:100D40000A3200D530BD401C41F1000130BD704772
:100D50002DE9FF4F0C461E464FF0FF378BB0D2E90E
:100D60000001DDF860800A908A46C1F30A5505B992
:100D70003D46002108464FF00000BAF1000F00F494
:100D8000400005DA00EB80004FF4400101EA50001A
:100D90004FEA9059B9F1010F00DDB9460A9850EABF
:100DA0004A000ED044F61050A5F2FF3545432F14EB
:100DB000B8F1000F1ED07542291E1EDDC9F10002D8
:100DC0001CE0B8F1010F4FF0000001D0302103E02A
:100DD000F24305E02154401CB042FBDB30460022C8
:100DE000002121540B99C1F80880C1E900200FB0FF
:100DF000BDE8F08FBD1B6D1CDEE74A4600DA694294
:100E000006A800F0DDFB06AB93E8070003AB83E820
:100E1000070050460A9900F055FC8DE80700A0F540
:100E200000501F3800900398002D0ADD42F21F0188
:100E30004A460844002303A90390684600F0BEFE1A
:100E400009E0A0F500504A461F38002303A903908B
:100E5000684600F0C8FE8DE807000004000C03D0CF
:100E60004FF0FF30410800E01046B8F1000F03D00A
:100E70000022009215461EE0751E05D4FFF722FFE2
:100E8000303262556D1EF9D5B3460122084302D0B7
:100E900000227F1C04E02078302801D100227F1E30
:100EA000002A099784D01DE0112D07DAFFF70AFF09
:100EB000303262556D1C50EA0102F5D1084302D070
:100EC0000098C8B10EE00021681E05E0235C625C5A
:100ED00063542254401E491C8142F7DBAB46A81BD9
:100EE000401E0990002004F80B000B98099AC0F8E6
:100EF0000880C0E9002B7AE711264FF0000857E779
:100F00002DE9F04F88460446D21D22F0070191B02A
:100F1000D1E90001CDE90A0107F089FD02460B98ED
:100F2000C00F01D02D2007E02068810701D52B20BC
:100F300002E0202101EAC000032A099001D0072A1B
:100F400005DB03464146204600F0FAFA0BE1207823
:100F5000800601D5E06900E00620B8F1650F814602
:100F600006D0B8F1660F18D0B8F1670F70D131E034
:100F70000020B9F1110F009001DB112301E009F10C
:100F800001030AAA01A90CA8FFF7E2FEDDE90C7033
:100F9000002609F10105834647E001204B460090F9
:100FA0004FF000470AAA01A90CA8FFF7D1FEDDE91E
:100FB0000DB00C995D46002610B909F101000D181D
:100FC000B9EB050003D4C0F1FF3609F10105A5EB2B
:100FD00009002BE0B9F1010F01DA4FF001090020FF
:100FE000B9F1110F0090484601DD112300E00346DE
:100FF0000AAA01A90CA8FFF7ABFEDDE90C704D466B
:1010000000268346207800070AD4AB4500DA5D4607
:1010100001A8012D04DD411911F8011C302907D068
:101020004F4502DA17F1040F04DA012082460FE07F
:101030006D1EEEE7002F02DCED1B3E4403E0781C42
:10104000A84200DD7D1CB81B00F1010A4FF00047EB
:101050002078000703D4AA4501DB4FF0FF3A0021B6
:10106000B7F1004F0DF143088DF8431024D0022052
:101070002B23002F01DA7F422D230A21021EA0F12B
:10108000010000DC5FB197FBF1FC97FBF1F201FB83
:101090001C7C17460CF1300C08F801CDEEE7A8F1E6
:1010A000010003702188090501D5452100E0652173
:1010B000A0F1010800F8011C09980FA9A1EB08078D
:1010C000FF1D00B10120411901EBEA70A16938440C
:1010D000081A401EA0612078C00602D42046FFF7FF
:1010E0006FF9099828B1D4E901219047206A401C82
:1010F00020622078C00622D52046FFF761F91EE065
:10110000002E04DBB34502DD01A8805D00E0302045
:10111000D4E901219047206A401C2062761CAAF184
:1011200001005FEA000A0AD100F006FAC06801680F
:10113000405CD4E901219047206A401C2062281EAF
:10114000A5F10105DCDC07E0D4E9012118F8010B69
:101150009047206A401C2062381EA7F10107F3DC8B
:101160002046FFF743F9032011B041E62DE9F04F87
:1011700004460D46D21D22F0070089B0D0E9009741
:101180004846394607F053FC0246F80F01D02D239C
:1011900007E02068810701D52B2302E0202101EA26
:1011A000C0038DF820300BB1012000E00020032A9D
:1011B000824601D0072A04DB2946204600F0C0F908
:1011C0003FE12078800601D40D2500E0E569C7F3F2
:1011D0000A560D2D49DA00214FEA175B08464FF0F9
:1011E0000000002F00F4400007DA00EB80004FF40D
:1011F000400100EBD07001EA60008115012901DD9A
:101200004FF0FF3100224FEA850CBCF1180F06D3D6
:101210001346ACF118004FF08052C24003E04FF487
:10122000801323FA0CF30CF10C0CBCF1200F04D347
:10123000ACF1200C09FA0CF001E007FA0CF00029DF
:101240004FF0004801DD18B90FE00ED140450CD336
:1012500019EB02095F4121B9404502D19F4329EAB8
:101260000209BBEB175F00D0761C2088000502D571
:101270007B48784402E07A487844193808AA302339
:1012800002F80A30037C0AF10101002E0AF1020A79
:1012900053546A4602DC4FF0300101E04FF0310157
:1012A0004FF001088DF8001002D0A6F2FF3603E0DF
:1012B00059EA470100D06B4E002D02DC2178090766
:1012C00004D54FF002082E218DF80110C4460021EC
:1012D0000BE0C7F303433F01C35C491C6D1E02F8DA
:1012E0000830052908F1010801DA002DF1DC0021A0
:1012F0000CE000EB1973491C1B786D1E082902F8DD
:1013000008304FEA091908F1010801DA002DF0DC74
:1013100021688B0602D516E0A8F10108E04505DD3D
:1013200002EB080313F8013C302BF5D0B8F1000FA5
:1013300009DD02EB080313F8013C2E2B03D109074A
:1013400001D4A8F10108002D05DD3E2102F80810A6
:101350006D1E08F10108407C002E02F8080008F11B
:10136000010804DA2D20764202F8080002E02B2062
:1013700002F808000A214FF47A70864208F1010849
:101380000BDB96FBF0F3303302F8083096FBF0F3FA
:1013900008F1010800FB136601E0642E0CDB6420F9
:1013A00096FBF0F3303302F8083096FBF0F308F1C7
:1013B000010800FB136601E00A2E06DB96FBF1F044
:1013C000303002F8080008F1010896FBF1F001FB4B
:1013D0001060303002F80800A16908F1010808EB3C
:1013E000050202EB0A00081AA0612078C00602D4A8
:1013F0002046FEF7E5FF216A08AE01EB0A002062F5
:1014000004E0D4E9012116F8010B9047BAF1010A72
:10141000F7D22078C00602D52046FEF7D1FF6E46EF
:1014200009E016F8010B3E280FD0D4E901219047BE
:10143000206A401C2062B8F10108F2D22046FEF773
:10144000D5FF09B00320BDE8F08F206A2844206250
:1014500003E0D4E90121302090476D1EEBD3F8E77B
:1014600075D9000002FCFFFF10B5436913B1AFF35B
:10147000008001E0FFF7B0FA012010BD128800F1F2
:10148000240182840022C2840122EDE711684FF01A
:10149000FF32E9E770B516460C46054600F044F801
:1014A000036893F80101012806D0FF2C0FD8185DBE
:1014B00068B101202C7070BDD3F807013246214677
:1014C00003F2071303442846BDE8704018474FF065
:1014D000FF3070BD00487047BC3F00207546FFF7E5
:1014E000F9FFAE4605006946534620F007008546E1
:1014F00018B020B5FEF724FFBDE820404FF00006ED
:101500004FF000074FF000084FF0000B21F00701EB
:10151000AC46ACE8C009ACE8C009ACE8C009ACE82E
:10152000C0098D467047000010B500F005F8001D99
:1015300010BD00BF19A0000000487047DC3F00202C
:101540002DE9F0411F46044603260168072A01F4ED
:10155000006004DB08B116A505E016A503E008B19C
:1015600015A500E015A521F010002060A069C01E9F
:10157000A0610FB1401EA0612046FEF721FF4FB1D0
:10158000D4E9012138469047206A401C2062C01CE3
:10159000206206E0206AFAE7D4E9012115F8010B80
:1015A0009047761EF8D22046FEF720FFBDE8F08176
:1015B0004E414E006E616E00494E4600696E6600F7
:1015C0002DE9F047814616468AB0354878440DC863
:1015D0008DE80D0032487844801C03AC0DC884E8C7
:1015E0000D0041F69B300844372190FBF1F290FB4F
:1015F000F1F5A5F1800501FB12041B3C02D5644204
:10160000012000E00020DFF898A080460027FA447F
:10161000AAF1BE0A0EE0E0070AD03246684607EBA0
:10162000470101230AEB810100F0DDFA8DE8070094
:1016300064107F1C002CEED1194F7F44AE3F19E09F
:10164000E80715D007EB04100DF1180A90E80E001A
:101650008AE80E00C068F04201D19819089032461D
:10166000012306A903A800F0BEFA03AB83E8070034
:101670006D10641C002DE3D14FF001033246694622
:10168000B8F1000F03A802D000F098FA01E000F0D2
:10169000AAFAC9E90001C9F808200AB0BDE8F08734
:1016A000ACD6000010B50446AFF300802046BDE87C
:1016B0001040FEF7CABD704701491820ABBEFEE7D7
:1016C000260002005FEA400C08BF91F0000F4FEACD
:1016D0008C234FEAC12243EA51514FEA1C5018BFF4
:1016E00000F5F0404FEA300018BF41F000415FEADA
:1016F0006C5C00F02980BCF1FF3F08BF40F08040E7
:101700007047130C06BF12044FF0100C4FF0000C82
:10171000130E04BF12020CF1080C130F04BF1201C8
:101720000CF1040C930F04BF92000CF1020CD30FC8
:1017300004BF52000CF1010C11464FF00002A0F161
:101740001F00A0EB0C00704711F0004F08BF70475E
:1017500031F000413FF4D5AF0B0C06BF09044FF048
:10176000100C4FF0000C0B0E04BF09020CF1080C1A
:101770000B0F04BF09010CF1040C8B0F04BF89008F
:101780000CF1020CCB0F04BF49000CF1010CCCF1A1
:101790002003A0EB0C0022FA03F302FA0CF241EA58
:1017A000030100F10100704720F07F4C80EA030044
:1017B00023F07F47ACEB070303F57C5300F00040B8
:1017C00003F1FF032DE980494FEA154B09B44FEAB5
:1017D000144325EA0B4E24EA03480FF2042606EBD5
:1017E000132749083E785FEA320203FB0667C7F514
:1017F000000707FB06F64FEA54374FEAD64606F1D4
:10180000020607FB066CCCF1005C4FEA1C472CEA91
:10181000074C07FB06F40CFB06F504EB15464FEAF4
:10182000961634BF00204FF000404FEAD13706FB38
:1018300007FC4FEA1C4C0CFB0BF7D21B03FB0CF70D
:1018400061EB07010CFB0EF7B0EB074072EB1742A0
:101850000CFB08F734BFA2EB0742B2EB074261EB87
:1018600017414FEA0C444FEA910706FB07FC4FEA89
:101870001C4C0CFB0BF7B0EBC74072EB573203FB71
:101880000CF734BFA2EBC742B2EBC74261EB573152
:101890000CFB0EF7B0EBC70072EB57720CFB08F7AE
:1018A00034BFA2EBC702B2EBC70261EB5771039FD3
:1018B0004FEA816141EA921104EBCC044FEAD1373F
:1018C0004FEA826206FB07FC42EA90124FEA806010
:1018D0004FEA1C4C0CFB0BF7D21B03FB0CF761EB24
:1018E00007010CFB0EF7B0EB074072EB17420CFB45
:1018F00008F734BFA2EB0742B2EB074261EB174196
:101900004FEA8C554FEA910704EB9C2406FB07FC39
:101910004FEA1C4C0CFB0BF7B0EBC74072EB573295
:1019200003FB0CF734BFA2EBC742B2EBC74261EB3B
:1019300057310CFB0EF7B0EBC70072EB57720CFB84
:1019400008F734BFA2EBC702B2EBC70261EB5771D5
:1019500015EB4C254FEA816141EA92114FEA826210
:101960004FEAD13742EA901206FB07FC44F100042B
:101970004FEA80604FEA1C4C0CFB0BF7D21B03FBB9
:101980000CF761EB07010CFB0EF7B0EB074072EBB5
:1019900017420CFB08F734BFA2EB0742B2EB074239
:1019A00061EB174115EB1C154FEA813141EA924179
:1019B0004FEA823242EA90424FEA80304FEA0C7698
:1019C00044F1000448EA03434EEA0B484FF0000E8E
:1019D000B2EB080C71EB030724BF624639464EEBAD
:1019E0000E0E4FF0000B0018524149414BEB0B0B10
:1019F000B2EB080C71EB03077BF1000B24BF6246CE
:101A000039464EEB0E0E4FF0000B00185241494183
:101A10004BEB0B0BB2EB080C71EB03077BF1000BEC
:101A200024BF624639464EEB0E0E51EA020718BF3C
:101A300046F0010616EB0E7655F1000254F1000156
:101A400003D5BDE88901BDE80088BDE88901BDE88E
:101A50000048B619524141EB0101A3F1010370475F
:101A600080807F7E7D7C7B7A7978777676757473DB
:101A7000727171706F6E6E6D6C6C6B6A6A6968689A
:101A8000676666656464636362616160605F5F5E30
:101A90005E5D5D5C5C5B5B5A5A59595858575756A6
:101AA000565555555454535352525251515050500B
:101AB0004F4F4F4E4E4D4D4D4C4C4C4B4B4B4A4A5D
:101AC0004A494949484848474747474646464545A1
:101AD00045444444444343434342424242414141DA
:101AE000002B9C4630D477002BD01CB54FEA37072B
:101AF00003B44FF010004FF01001BAF1000F06D000
:101B0000BCF1000FDCBF40F0080040F008014FF0CE
:101B100000000FBCBDE810400BF1010BBBF1010F41
:101B200008BF5FEA170722BF12F1010211F101019C
:101B30004FF0004143F1000300F0004043EA000091
:101B40007047F9D35708D0E746EA064613F1400F2D
:101B50004FEA16461FDD13F1200FDFBF16430A467A
:101B6000002120335B42BED0C3F1200746EA06467F
:101B700002FA07F74FEA164646EA0706C3F12007BE
:101B800022FA03F201FA07F721FA03F14FF00003FA
:101B900042EA0702A7E746EA020646EA06464FEA95
:101BA000164646EA0106BCBF46EA0646360C4FF02A
:101BB00000034FF000024FF0000194E72DE9804C44
:101BC0009A46934670B491E8380007C831EA400C51
:101BD00048BF34EA430C03D5FFF7E6FDFFF780FF6B
:101BE000F0BCBDE8008C2DE9804C9A46934670B459
:101BF00091E8380007C810F0804F08BF13F0804FFD
:101C000003D100F005F8FFF76BFFF0BCBDE8008CD6
:101C100020F07F4780EA030023F07F4C07EB0C03A2
:101C2000A3F57C5300F00040A3F1FE0392F0000FF7
:101C300000F0B38095F0000F00F077802DE90149A6
:101C40004FEA11404FEA144621EA004800FB06FC27
:101C500024EA064708FB06F607FB08F800FB07F72F
:101C600018EB06484CEB164C4FEA124B18EB0748A2
:101C70004FEA15464CEB174022EA0B4E0BFB06FCD5
:101C800025EA06470EFB06F607FB0EFE0BFB07F7E1
:101C90001EEB064E4CEB164C4FF000061EEB074EAB
:101CA0004CEB174B18EB0B0840F1000018EB0E0B38
:101CB00058EB000840F100008F1A4FF000013CBFC4
:101CC000C943661B14BFB5EB040C00213CBFC943DC
:101CD000F61B4FEA17444EEA8E0E27EA04454FEAF8
:101CE0001C4704FB07622CEA074C05FB07F70CFBBB
:101CF00005F604FB0CFC16EB074642EB174216EB0D
:101D00000C4642EB1C421BEB060658EB020241411B
:101D100046EA9E0601D5BDE80189B619524141EB5C
:101D20000101A3F10103BDE801894FEA14454FEA1F
:101D3000114724EA054621EA074C05FB07F406FB98
:101D400007F70CFB06F105FB0CFC11EB074144EB1C
:101D500017444FEA124711EB0C4144EB1C4422EAB2
:101D6000074C05FB07F206FB07F70CFB06F605FB25
:101D70000CFC16EB074642EB174216EB0C4642EB07
:101D80001C456A1854F1000148BF7047B61952410A
:101D900041EB0101A3F10103704795F0000F37D02B
:101DA0004FEA11424FEA144721EA024624EA074C5F
:101DB00002FB07F106FB07F70CFB06F402FB0CFC29
:101DC00014EB074441EB17414FEA154714EB0C4461
:101DD00041EB1C4125EA074C02FB07F506FB07F720
:101DE0000CFB06F602FB0CFC16EB074645EB174511
:101DF00016EB0C4645EB1C42121951F1000148BF8D
:101E00007047B619524141EB0101A3F1010370473C
:101E10004FEA14454FEA114724EA054621EA074CE8
:101E200005FB07F106FB07F70CFB06F24FF0000677
:101E300005FB0CFC12EB074241EB174112EB0C4285
:101E400051EB1C4148BF7047921841EB0101A3F1CF
:101E5000010370477CB504460D4617481023002146
:101E600000901A46084604F06FFB082313A20021D5
:101E7000142004F0EBFBA1786078CDE9000111A3F8
:101E80000C221021082004F0D0FA082310A23021DF
:101E9000002004F0DBFB08230FA23021482004F0CF
:101EA000D5FB2DB1002110238022084604F0D2FA80
:101EB000BDE87C4005F06AB92FE30008414C41526F
:101EC0004D000000253032643A25303264000000B5
:101ED0004F4B3A53544F50004E4558543A534E5A74
:101EE000000000002DE9F0410546002418263C279B
:101EF00003F088FA012804D003280CD0052814D058
:101F000016E0012C48D0641C04EBD47020F00100D2
:101F1000201A44B20CE014B1012C03D008E0687818
:101F2000401C10E0A878401C1EE054B1012C19D0D0
:101F300003F0DEFF284600F061F874B1012C1DD0DB
:101F400022E068781730B0FBF6F106FB11006870EC
:101F500003F0CEFF284600F051F810231A46194628
:101F600038200FE0A8783B30B0FBF7F107FB1100F9
:101F7000A87003F0BDFF284600F040F810231A4671
:101F80001946502004F066FA05F000F904F01CFC34
:101F90000A2008F087F9ABE7BDE8F0812DE9F041B0
:101FA000804600F09BFF064600254FF4967700BF61
:101FB00003F028FA044605F0F9FD012C17D0032C94
:101FC00018D000F08BFF801BB84204D300F086FFCE
:101FD00006468DB1002503F08BFF29464046FFF7EA
:101FE00039FF04F0F1FB142008F05CF9E0E7002071
:101FF000BDE8F0810120FBE70125ECE71CB50446B4
:102000001B481023002100901A46084604F09CFA51
:10201000207808B117A000E017A0009017A30822AD
:102020000021102004F001FAA1786078CDE90001C8
:1020300014A308221021002004F0F7F920790128C8
:1020400013D015A0009016A308222021002004F030
:10205000ECF9E078009015A308223021002004F06C
:10206000E4F9BDE81C4005F091B814A0EAE70000CF
:102070002FE30008590000004E0000004F4E3A25A3
:1020800073000000312E54494D4520253032643A0A
:1020900025303264000000004F4E43450000000030
:1020A000322E52455045415420257300332E534E55
:1020B0004F4F5A45202532644D0000004441494CA1
:1020C000590000007CB500252C46684600F01AF93E
:1020D0005FF0050603F096F9012804D003282DD0FF
:1020E000052841D136E044B1012C0BD0022C12D08E
:1020F000032C14D0042C1CD036E0684600F01EF9E6
:1021000000207CBD9DF8000018B100208DF8000073
:102110002AE00120FAE76846FFF7E4FE24E09DF894
:102120000400012801D0012000E000208DF8040007
:102130001AE00DB1002517E0012515E0042C01D1AE
:10214000012D01D0641C0AE09DF803001E280BD26B
:10215000401C1DE0042C01D1012D14D0241D94FB42
:10216000F6F006FB104044B203F0C2FE6846FFF7EB
:1021700045FF6946204600F00EF804F025FB0A20D2
:1021800008F090F8A6E79DF803000128ECD9401E5E
:102190008DF80300E8E705282BD2DFE800F00308FC
:1021A0000D121D00102300211A4608461CE01023C2
:1021B00020220021184617E0102328221946382033
:1021C00012E008794FF01003012803D020222021CB
:1021D000482009E02822FAE7C8784FF010030A28BF
:1021E00004D210223021502004F034B918223021BA
:1021F000EEE770471CB51C480022017859B101294F
:1022000031D1C11E4B78012B0BD081784078BDE8CD
:102210001C4000F0F7B8BDE81C400021134801F055
:10222000A5BE4A70C47800226946104801F0FFFE3E
:10223000002201A90D4801F0D3FE9DF800109DF881
:102240000100C1EB011104EB81013C220144B1FB0F
:10225000F2F01823B0FBF3F403FB1400B1FBF2F32C
:1022600002FB1311D3E71CBD730100203C020020C8
:1022700070B504461B4DC00702D0286804F0BAFCB4
:10228000A00703D51848006804F0B4FC600703D524
:102290001648006804F0AEFC200703D51448006817
:1022A00004F0A8FCE00603D51248006804F0A2FC84
:1022B000A00603D51048006804F09CFC600603D516
:1022C0000E48006804F096FC200603D50C48006810
:1022D00004F090FC002C04D12868BDE8704004F0A4
:1022E00089BC70BD08000020040000200C00002004
:1022F0001000002014000020180000201C00002006
:1023000020000020002805D00349D1F803200260F6
:10231000C979017170470000700100200348002155
:10232000017081704170FFF765BF000070010020EF
:10233000014880787047000070010020002829D0F3
:1023400015490268C1F803200079C871C81C427899
:10235000172A01D91722427082783B2A01D93B22E1
:102360008270C278A2B11E2A01D91E22C2700278E0
:1023700002B1012202700279012A00D0002202710A
:10238000002048700448C01C8178407800F03AB8BA
:102390000522EBE7704700007001002008B500251A
:1023A000174F6E1E4FF00108FC1E00953346304655
:1023B0006A46194608F0DAFE20780028F6D0257023
:1023C00038780028F2D005F0F1FB84F8028000F0A4
:1023D00033F881460A48FFF7E1FD012801D018B122
:1023E00008E084F8018003E0387900B93D70657039
:1023F000FFF700FF4846FFF73BFFA570D6E7000058
:10240000730100201CB5002200928DF800008DF8A9
:10241000011001928DF802201146064801F0A6FD38
:1024200000226946034801F0E5FE002801D000F0D3
:10243000C7F91CBD3C02002010B51D4800240068EF
:1024400005F0BCFE00B101241A48006805F0B6FE94
:1024500008B144F002041848006805F0AFFE08B166
:1024600044F004041548006805F0A8FE08B144F0E3
:1024700008041348006805F0A1FE08B144F01004F8
:102480001048006805F09AFE08B144F020040E4898
:10249000006805F093FE08B144F040040B48006862
:1024A00005F08CFE08B144F08004204610BD000009
:1024B00008000020040000200C0000201000002074
:1024C00014000020180000201C0000202000002024
:1024D0000020FFF763BF000010B50821044802F098
:1024E0004DFA0349034809680088C86310BD00001D
:1024F00050020020E0000020002801DA0020704790
:10250000642801DD64207047C0B27047FEE7000018
:10251000FEB5154C2088A08009F078FE01251C2608
:102520001027A06002F06EFF044601281BD006F0C1
:1025300055FA204606F0CEF903F0DAFC05F00EF865
:102540000097CDE90165082224231421104603F0E9
:1025500079FE04F01BFE04F037F9FFF7BDFF0520FC
:1025600007F0A0FEDEE7FEBDE000002042780B7819
:102570009A420ED302784B789A420AD8C2788B7866
:102580009A4206D38078C978884202D8014901204E
:102590008871704700010020014800F059BA00001E
:1025A000E002002030B590F840500124AC40C56BEB
:1025B0006C60046863604368102B036803D0996003
:1025C0000068C26030BD9A600068C16030BD70476D
:1025D00038B508F059FD0246002407480094234608
:1025E0000121006808F068FF0448C48184704470C9
:1025F0000470848138BD00003400002000010020F8
:1026000070B524480122017A491CCCB20472417A87
:10261000491CCBB24372817A491CCDB2002185722C
:102620000A2D0AD38172C5894FF6FF766D1CADB2B3
:10263000C581B54201D3C181C271022C0ED3017292
:102640008489641CA5B285810478641CE4B204709A
:10265000FF2D00D98181882C00D30170142B0BD35E
:10266000417243785B1CDBB24370A02B00D94170F0
:102670004378DB070CD002714279002A07D0028A26
:10268000521C92B20282642A01D90182417170BD4A
:102690000171F1E7000100200E4810B500780E4CE2
:1026A000052815D2DFE800F0030507090B000B48E9
:1026B00006E00B4804E00B4802E00B4800E00B4842
:1026C000006807F0E7FE2068BDE8104007F064BF2F
:1026D00010BD0000EC0000200400002008000020D5
:1026E0001000002014000020180000201C00002012
:1026F00038B5044620481023002100901A460846A9
:1027000003F022FF08231DA21021002003F09EFFEA
:1027100008231DA22021002003F098FF08231EA2F9
:102720003021002003F092FF062000900123224672
:102730000021402003F066FF34B1012C09D0022CA7
:102740000BD0032C13D10CE0102300211A460846AD
:102750000BE010234022194606E0102360222021BE
:1027600002E0102360223021102003F073FEBDE848
:10277000384004F00BBD00002FE30008312EC9E8FB
:10278000D6C3CAB1BCE40000322ECFD4CABED5BB7A
:10279000B8DFCBAECEBB0000332EC9E8D6C3C6C16E
:1027A000C4BBC1C1B6C80000012000F095BA022028
:1027B00000F092BA102000F08FBA402000F08CBADE
:1027C00072B6FEE704F0DAFFFCE7000008B500246B
:1027D0000625294E02F016FE012804D0032814D045
:1027E00005281DD117E014B1012C08D018E02348AA
:1027F000006807F04FFE002007F0CEFE10E000203A
:1028000005F09FFE00F042F80AE0641C64B2012C5F
:1028100006DD002404E0641E64B2002C00DA01240A
:1028200003F066FB0123224600214020009503F0BF
:10283000E9FE102300211A460846009603F084FEA4
:1028400008230FA21021002003F000FF14B1012C77
:102850000AD103E010231A46002102E0102350227F
:102860001946002003F0F6FD04F090FC03F0ACFFE5
:102870000A2007F017FDADE72FE300080400002051
:10288000D0A1BFD6C1FAD3CECFB700002DE9F8430F
:10289000FFF79EFE00254FF47A78234E0127234C44
:1028A00002F0B0FD032802D0012816D000E06771C5
:1028B00004F0DEFDA07998B103F01AFB182108237B
:1028C0001BA2084603F0C2FE04F060FC03F07CFF8C
:1028D000404607F0E7FCA57114E00020BDE8F8834E
:1028E000E079E8B103F004FB1821082313A208469D
:1028F00003F0ACFE04F04AFC03F066FF404607F02C
:10290000D1FCE57103F0F4FA04F040FC03F05CFF45
:10291000002300951A460321306808F0CDFDDCE75E
:102920000A2007F0BFFCBBE73400002000010020B4
:1029300047616D65204F76657200000047616D65E7
:102940002050617373000000FFF740FFFCE70000B8
:102950002DE9104002F056FD012805D004F0B2FD2B
:10296000052007F09FFCF5E7012005F0EAFD0020B7
:1029700010BD10B590F821100022022905D00421C5
:10298000816380F82020012010BD01680B6823F0CE
:102990000E030B6001680B6823F001030B6090F8D5
:1029A0004030C46B012101FA03F3636080F8211009
:1029B00080F82020104610BD10B590F8211000249A
:1029C000022903D00421816301243DE001680A68E3
:1029D00022F00E020A6001680A6822F001020A6011
:1029E0001A4A0168914201D1012121E0174A1432AB
:1029F000914201D110211BE0144A2832914201D1A9
:102A0000891515E0114A3C32914201D189140FE039
:102A10000E4A5032914202D14FF4803108E00B4A05
:102A20006432914202D14FF4801101E04FF0807185
:102A3000064A083A5160012180F82110002180F8EF
:102A40002010416B01B18847204610BD08000240AC
:102A50002DE9F05FC16B0C6801680B68D0F840C0CD
:102A6000042202FA0CF2494DDFF824A1494E4A4FE4
:102A7000DFF828B1DFF828E122422CD05A072AD506
:102A80000A68920603D40A6822F004020A60016808
:102A9000A94201D1042219E0514501D1402215E09B
:102AA000B14202D14FF4806210E0B94202D14FF43A
:102AB00080420BE0594502D14FF4802206E0714577
:102AC00002D14FF4800201E04FF080622F490839B3
:102AD0004A60C16A3BE04FF0020808FA0CF818EAB5
:102AE000040F4FF000094FF0010235D05FEA837800
:102AF00032D50B689B0605D40B6823F00A030B60E4
:102B000080F821200168A94201D1022219E0514533
:102B100001D1202215E0B14202D14FF4007210E041
:102B2000B94202D14FF400520BE0594502D14FF4A3
:102B3000003206E0714502D14FF4001201E04FF07F
:102B40000072124908394A6080F82090816A002991
:102B50001AD0BDE8F05F0847082505FA0CF52542B4
:102B600012D01B0710D50B6823F00E030B6090F8F2
:102B70004010C36B02FA01F15960826380F8212092
:102B800080F82090016BE2E7BDE8F09F080002406A
:102B90001C00024030000240440002405800024045
:102BA0006C00024030B528B308C8134914221944F8
:102BB000B1FBF2F18900C1631049816302214177C1
:102BC0001A6843F6F0718A43D0E900142143D0E932
:102BD00002452C432143046921434469214384690C
:102BE000214311431960002141630122427701779B
:102BF000084630BD012030BDF8FFFDBF0000024097
:102C000070B5044690F82000002501280CD0012062
:102C100084F8200094F821600020012E06D084F86A
:102C200020000225284670BD022070BD022684F8CF
:102C30002160A0632068066826F001060660204631
:102C4000FFF7B0FCE06A00282068016802D041F07C
:102C50000E0106E021F0040101602068016841F0E6
:102C60000A0101602068016841F001010160D9E7B3
:102C70001CB500210191102808D0402808D0022856
:102C800008D0012801D104F0A7FF1CBD012402E0F7
:102C9000022400E0042404F09FFF04F079FF0028E0
:102CA000F3D10B48006830B101A900910023012243
:102CB000214608F053F901980028E6D005494FF065
:102CC00080500860BFF34F8FBFF36F8F1CBD0000B3
:102CD0000000002004ED00E0044910B50A6802423B
:102CE00002D00860FFF7C4FF10BD000014040140CB
:102CF0002DE9F84FDFF8B8910024A9F1040B234621
:102D00000F2709F1040AABF1040EC9E00125A54023
:102D10002A40AA427DD1674ED1F804C0ACEB060828
:102D2000B44532D014DCBCF1030F3AD009DCBCF15D
:102D3000000F2AD0BCF1010F1CD0BCF1020F31D121
:102D40001DE0BCF1110F17D0BCF1120F2AD119E010
:102D5000B8F5881F19D006DCB8F5803F15D0B8F556
:102D6000801F1FD111E0B8F5001F0ED0B8F5041F69
:102D700018D10AE0CB6815E0CB681B1D12E0CB68C8
:102D800008330FE0CB680C330CE08B682BB1012BC0
:102D90004FF0080303D0456104E0042302E005611D
:102DA00000E00023FF2A01D8064601E000F10406F6
:102DB0004FEA840501D9A5F12005D6F8008007FA6D
:102DC00005FC28EA0C0803FA05F548EA0508C6F8E8
:102DD00000804D68ED0062D5374DAE6946F00106C2
:102DE000AE61AD6924F0030605F001050095334D91
:102DF00006EB050CDCF80850A607360F07FA06F8B4
:102E000025EA0805DFF8B880404503D14FF00008F7
:102E100017E044E0DFF8AC80404502D14FF00108F4
:102E20000FE0DFF8A480404502D14FF0020808E02F
:102E3000DFF89880404502D14FF0030801E04FF0E1
:102E4000040808FA06F848EA0508CCF808804D6836
:102E5000D9F80060ED024D4601D5164300E09643D7
:102E60002E604D68DAF80060AD02554601D5164374
:102E700000E096432E604D68DBF80060AD035D46D0
:102E800001D5164300E096432E604D68DEF80060E1
:102E9000ED03754601D5164300E096432E60641C91
:102EA0000D682A46E5407FF431AFBDE8F88F000099
:102EB0000804014000001110001002400000014011
:102EC00000080140000C01400010014000140140C6
:102ED0008068084000D001207047000001488068E9
:102EE000704700004000002070B5040025D094F821
:102EF0003D00002520B984F83C50204600F014FB2A
:102F0000242084F83D002068016821F0010101605F
:102F10002068016841F4004101602068016821F4E3
:102F20000041016000F0D8FD4D4A6168914201D82E
:102F30004C4900E04C49884201D2012070BD4B4908
:102F40002368B0FBF1F15E6826F03F060E435E6039
:102F50006368934206D94FF4967359434FF47A73DA
:102F6000B1FBF3F12368491C1E6A26F03F0631438A
:102F700019626168914210D84900401EB0FBF1F21D
:102F8000521CC2F30B02042A01D2042022E0B0FB3F
:102F9000F1F0401CC0F30B001CE0A268F2B301EB9F
:102FA000C10303EB0116431EB3FBF6F35B1C43F4B2
:102FB00080431B0549D092B301EBC10202EB011122
:102FC000401EB0FBF1F0401CC0F30B0040F4804009
:102FD00040F400402168CA694CF6FF739A431043DD
:102FE000C861D4E9071001432068026822F0C002DA
:102FF00011430160D4E9030101432068826848F26B
:10300000FF339A4311438160D4E9050108432168E5
:10301000CA6822F0FF021043C86001E00EE016E02B
:103020002068016841F0010101602564202084F8D6
:103030003D00256384F83E50002070BD01EB410641
:10304000431EB3FBF6F35B1CB3E70120C2E701EBC1
:103050004101401EB0FBF1F0401CC0F30B00B7E78C
:10306000A086010080841E0000093D0040420F0040
:103070002DE9F84F1F4690468A460446DDF8289011
:10308000FFF72CFF054694F83D0020287FD1192337
:10309000012240492046009502F068F8002876D1C8
:1030A00094F83C00012872D0012084F83C0020688C
:1030B0000168C90703D1016841F00101016020687E
:1030C000016821F400610160212084F83D00102096
:1030D00084F83E0000262664C4F824806785608D4D
:1030E00020852D48E0622B464A465146204601F095
:1030F000F1FE90B9206841698069009036E02A4667
:103100004946204602F010F950B1206C042804D141
:103110002068016841F4007101600120BDE8F88F6A
:10312000606A216800780861606A401C6062618D95
:10313000491E6185218D491E89B221852268536906
:10314000DB435B070BD451B100781061606A401C0F
:103150006062608D401E6085208D401E20852A465D
:103160004946204601F0D6FF0028CED1208D002808
:10317000C5D154F83D0B016841F400710160202075
:1031800004F81E09E67766770020C7E7FFE702200C
:10319000C4E70000020010000000FFFF2DE9FF4F10
:1031A00083B00025DDE910799A4693460446DDF8A0
:1031B00048800095FFF792FE064694F83D002028CF
:1031C0007CD11923012288492046009601F0CEFFC8
:1031D0000028F5D194F83C0001286FD0012084F834
:1031E0003C0020680168C90703D1016841F0010172
:1031F00001602068016821F400610160222084F8E8
:103200003D00402084F83E0025646762A4F82A90BF
:10321000608D20857548E062CDE9008653465A46A8
:103220002046049901F0A4FE00287CD1208DDFF80F
:10323000C091202768B1012814D0022820680168B5
:103240001ED041F48061016020684169806900906E
:10325000BCE02068416981690091016841F4007116
:103260000160B3E02068016821F48061016072B6FA
:103270002068416981690091016841F400710AE0A8
:1032800041F40061016072B6206841698169009172
:10329000016821F48061016062B697E0032865D877
:1032A00001280CD0022843464FF000024946204630
:1032B00000960BD001F05AFFA8BB0CE091E032461B
:1032C0004146204601F0F8FF68BB72E001F04EFF76
:1032D00048BB72B633E02068016821F48061016068
:1032E00072B620680069616A0870606A401C60629A
:1032F000208D401E2085608D401E60853D4846F231
:10330000A8110068B0FBF1F0C0EBC00000EB80003A
:103310000090401E009007D020684069C0434007DD
:103320000DD50098F5E727E044F8305F6773A57383
:10333000206940F02000206162B625731CE02068FF
:10334000016841F40071016020680069616A0870D9
:10335000606A401C6062218D491E2185618D491E75
:10336000618562B621680969017026E032464146EE
:10337000204601F0A1FF18B1012007B0BDE8F08F91
:1033800020680069616A0870606A401C6062208D74
:10339000401E81B22185608D401E60852068426993
:1033A000D243520712D4032903D1016821F480616A
:1033B000016020680069616A0870606A401C606290
:1033C000208D401E2085608D401E6085208D002848
:1033D0007FF464AF84F83D7084F83E5084F83C502C
:1033E000CBE70220C9E70000020010000000FFFF49
:1033F000040001004C0000202DE9FF4F83B09A46E5
:10340000DDE9119793460446DDF84080FFF766FD3D
:10341000054694F83D0020287FD119230122404918
:103420002046009501F0A2FE002876D194F83C00D9
:10343000012872D0012084F83C0020680168C90787
:1034400003D1016841F0010101602068016821F4A5
:1034500000610160212084F83D00402084F83E0096
:1034600000262664C4F82480A4F82A90608D208564
:103470002C48E062CDE9007553465A46204604992F
:1034800001F0F4FD70B930E02A463946204601F0DB
:103490004BFF58B1206C042804D12068016841F426
:1034A00000710160012007B0BDE8F08F606A2168FB
:1034B00000780861606A401C6062218D491E89B2F3
:1034C0002185628D521E628522685369DB435B074A
:1034D0000BD469B100781061606A401C6062208D75
:1034E000401E2085608D401E6085208D0028CBD138
:1034F0002A463946204601F00DFE0028CAD154F86C
:103500003D0B016841F400710160202004F81E09A0
:10351000E67766770020C6E7FFE70220C3E70000F2
:10352000020010000000FFFF30B585B000210091BF
:103530000191029103911E4D03681E4C122103223A
:103540001D48AB4216D1A36943F00803A361A369E8
:10355000039203F008030493C023CDE900316946C8
:10356000FFF7C6FBE06940F40010E061E06900F499
:10357000001019E0114DAB4217D1A36943F00803C5
:10358000A361A369039203F0080304934FF440631B
:10359000CDE900316946FFF7ABFBE06940F48000FC
:1035A000E061E06900F48000049005B030BD0000E7
:1035B0000054004000100240000C01400058004040
:1035C0000248816802781144816070474000002001
:1035D000074810B5016841F010010160032000F0B8
:1035E000B3F80F2000F006F800F050F8002010BDEE
:1035F0000020024030B505461F4887B0C16941F040
:103600000401C161C06906A900F00400009001A88E
:1036100000F042FA0498B0B100F05EFA4000174999
:10362000174AB0FBF1F11748491E0260416040F2B1
:10363000E7320021C0E903218160816100F070FF61
:10364000040003D015E000F047FAE8E70D4800F069
:10365000A7FF04000DD11E2000F049F8102D07D25D
:10366000002229461E2000F04FF80748056000E0C0
:10367000012407B0204630BD0010024040420F0038
:103680000008004024030020440000200F4808B533
:10369000816941F001018161816901F001010091BD
:1036A000C16941F08051C161C069002200F08050C1
:1036B00000900F21901E00F027F80548416821F086
:1036C000E06141F00071416008BD0000001002405F
:1036D00000000140002809DB00F01F020121914099
:1036E0004009800000F1E020C0F8801270470028F7
:1036F00009DB00F01F02012191404009800000F128
:10370000E020C0F800117047F0B40E4B1B680C4667
:10371000C3F30223C3F10705042D00D90425191DA5
:10372000072901D2002300E0DB1E012606FA05F17D
:10373000491E214099409E40761E16403143F0BC00
:1037400005F089B90CED00E0064900F007020868B1
:103750004FF6FF03184040EA0220034A1043086076
:10376000704700000CED00E00000FA05014901205F
:103770000862704700000E420648026822F0040208
:103780000260012903D040BF20BF20BF704730BF77
:103790007047000010ED00E00E4A10B5136823F0EA
:1037A00002031360136823F00103034313600A4C00
:1037B000206840F004002060012909D040BF03F0D8
:1037C00089F803F087F8206820F00400206010BD1D
:1037D00030BFF8E70070004010ED00E010B5014682
:1037E0000020234C012922D0022939D010291DD1D3
:1037F00061682268D20119D51E48C1F38342C9030A
:10380000805C0AD561681B4AC1F34041921E515C3D
:10381000194AB2FBF1F1484301E018494843616895
:10382000490203D440000321B0FBF1F010BD226A2D
:10383000C2F30121012903D1920701D5C80310BDAC
:10384000022905D1626A920702D549F6404010BDAF
:103850000329FCD121688903F9D54FF2244010BD1A
:1038600000F04AF96168C1F38131491C4900DBE786
:1038700000100240B4C6000800127A0000093D00A2
:103880002DE9F84305460078354CC00754D0E0696F
:103890000026C00008D4E06940F08050E061E06993
:1038A000012600F0805000902E480168C90512D40E
:1038B0000168804641F480710160FFF70FFB074605
:1038C00005E000BFFFF70AFBC01B642823D8D8F827
:1038D0000000C005F6D5206A10F4407021D0A988F8
:1038E00001F4407181421CD0206A1F49012220F45A
:1038F00040700A6000220A602062C00711D0FFF702
:10390000EDFA074641F2883808E000BFFFF7E6FA13
:10391000C11B414502D90320BDE8F883206A800716
:10392000F4D5206A696820F44070084320621EB113
:10393000E06920F08050E0612878800705D5606854
:10394000A96820F44040084360602878C00605D587
:103950006068E96820F48000084360600020DBE7CD
:103960000010024000700040400442422DE9F04740
:103970000F46050061D0434E306800F00700B842A2
:1039800009D2306820F0070038433060306800F01A
:103990000700B84251D128683B4C810712D5400737
:1039A00003D5606840F4E06060602878000703D5C4
:1039B000606840F4605060606068A96820F0F000C2
:1039C000084360602878C00728D06868012810D0B4
:1039D0002168022810D0890700292EDA616821F0B9
:1039E000030101436160FFF779FA804641F28839AB
:1039F0000DE021688903EFE78901EDE7FFF76EFA33
:103A0000A0EB0801494502D90320BDE8F0876068B2
:103A1000696800F00C00B0EB810FEFD1306800F066
:103A20000700B8420BD9306820F0070038433060F7
:103A3000306800F00700B84201D00120E5E728789F
:103A4000400705D56068E96820F4E06008436060DD
:103A50002878000706D56068296920F4605040EA9C
:103A6000C100606000F058F86168084AC1F30311B2
:103A7000515CC8400649086006480068FFF7BAFD77
:103A80000020C2E70020024000100240C4C6000827
:103A90004C000020440000200F2202600C4A5368B2
:103AA00003F003034360536803F0F003836053683B
:103AB00003F4E063C36052684FF4E06303EAD202A8
:103AC00002610448006800F00700086070470000C9
:103AD000001002400020024004480549006849687F
:103AE000044AC1F30221515CC84070474C000020D9
:103AF00000100240D4C6000804480549006849681F
:103B0000044AC1F3C221515CC84070474C000020F8
:103B100000100240D4C600080E4A51680E4801F059
:103B20000C03042B11D0082B0FD10C48C1F3834395
:103B3000C903C05C0AD55168084AC1F34041921ECE
:103B4000515C054A5043B0FBF1F0704704494843CB
:103B5000704700000010024000127A00A2C6000860
:103B600000093D002DE9F84F040070D02078C04DC9
:103B7000C00749D06868C0F38100012807D0686891
:103B8000C0F38100022809D16868C00306D52868FF
:103B9000800339D560680028E7D035E06068B0F56B
:103BA000803F0BD010B1B0F5A02F11D0286820F4C1
:103BB00080302860286820F4802002E0286840F4E3
:103BC00080302860606890B1FFF788F906460AE007
:103BD000286840F480202860F0E700BFFFF77EF9F6
:103BE000801B642873D828688003F7D50CE0FFF7A2
:103BF00075F9064605E000BFFFF770F9801B6428E1
:103C0000F0D828688003F7D420789A4E80074FF0C8
:103C100001094FF0000839D5686810F00C0F07D083
:103C20006868C0F38100022809D16868C00306D41F
:103C30002868800714D52069012808D110E0206980
:103C4000B0B1C6F80090FFF749F9074605E00AE170
:103C5000FFF744F9C01B0228C4D828688007F7D5AD
:103C60002868616920F0F80040EAC10028600DE092
:103C7000C6F80080FFF732F9074604E0FFF72EF997
:103C8000C01B022823D828688007F7D420780007B3
:103C90002CD57948A169D9B1C0F80090FFF71EF979
:103CA000074604E0FFF71AF9C01B02280FD8686A1C
:103CB0008007F7D571484FF4FA510068B0FBF1F076
:103CC000009000BF0098411E0091FAD20EE080E003
:103CD000C0F80080FFF702F9074604E0FFF7FEF89E
:103CE000C01B022875D8686A8007F7D4207840077F
:103CF00060D5E8690027C00008D4E86940F080502A
:103D0000E861E869012700F0805000905C48016894
:103D1000C90513D40168834641F480710160FFF73F
:103D2000DDF8824606E000BFFFF7D8F8A0EB0A00F6
:103D300064284ED8DBF80000C005F5D5E0680128FE
:103D40000AD008B1052813D0286A20F001002862A3
:103D5000286A20F0040002E0286A40F0010028628E
:103D6000E06841F2883B98B1FFF7B8F882460BE073
:103D7000286A40F004002862EEE700BFFFF7AEF8C3
:103D8000A0EB0A0159455AD8286A8007F6D50CE0FD
:103D9000FFF7A4F8824605E0FFF7A0F8A0EB0A01C0
:103DA00059454CD8286A8007F6D41FB1E86920F03D
:103DB0008050E861E06988B36968C1F38101022934
:103DC00044D00228C6F8608004D0FFF787F8044684
:103DD00038E034E0FFF782F8074604E0FFF77EF8AA
:103DE000C01B02282BD828688001F7D4206AB0F5C0
:103DF000803F05D16868A16820F4003008436860FE
:103E0000D4E908010843696821F474110843686023
:103E1000C6F86090FFF762F8044606E025E000BFB0
:103E2000FFF75CF8001B022809D828688001F7D545
:103E30001BE000BFFFF752F8001B022802D9032045
:103E4000BDE8F88F28688001F4D40EE00128F7D08F
:103E50006868226A00F48031914204D1616A00F4FA
:103E60007010884201D00120EAE70020E8E7000056
:103E70000010024000004242800442424C000020F8
:103E800000700040024850F8210080B270470000E6
:103E9000006C0040024800EB810091B20160704765
:103EA000006C00407047704710B504460068016818
:103EB000C90717D04168C90714D040684007204699
:103EC00007D5FFF7F0FF21686FF004004860042079
:103ED00002E0FFF7E7FF012060742068416821F0ED
:103EE0000101416010BD00001CB500200F49019088
:103EF000012008700E4C2068002816D007F0B6F894
:103F0000022812D101A80122009000231146206846
:103F100007F024F80198002807D006494FF0805098
:103F20000860BFF34F8FBFF36F8F1CBD700100207F
:103F30002800002004ED00E010B504460068016888
:103F400089070AD54068800707D52046FFF7CCFFD0
:103F50002068416821F00201416003494FF40030BC
:103F600008600120607410BD140401402DE9F04187
:103F7000040012D0207C012812D0012626740220D1
:103F800060742068016821F002010160204602F09F
:103F900016FD00250427C8B904E00120BDE8F08122
:103FA0000220FBE72068416821F00201416021689E
:103FB0004FF6FF700862216848620848016821F4E2
:103FC00000310160204602F015FD10B167742574C0
:103FD000E3E7667425740020E0E700000004014078
:103FE000F8B505004FF0000016460C46009006D0CC
:103FF0002CB100226946284600F019F808B10120CA
:10400000F8BD287B2070E87BE070697B6170A97B3C
:10401000A17056B102F071FCE070607802F06DFCA6
:104020006070A07802F069FCA0700020F8BD2DE956
:10403000F04791460C465FEA00084AD084B3D8F8AE
:1040400000004068400744D4404602F0FCFC4FF4B6
:1040500061620546B0FBF2F1B0FBF2F302FB1350D4
:104060003C23B0FBF3F0B5FBF2F6607002FB165098
:10407000B0FBF3F203FB1200A070182931D3182013
:10408000B1FBF0F7B1FBF0F200FB121020704046DC
:1040900002F0D2FC411C04D0A84202D9461B02E027
:1040A00017E04FF0FF36A7EB071000EB4000C0EB26
:1040B000001005EBC0152946404602F036FD40B918
:1040C000701C01D0711900E03146404602F019FD24
:1040D00010B10120BDE8F0873946404602F018FCD7
:1040E00000E02170B9F1000F0BD0207802F005FC40
:1040F0002070607802F001FC6070A07802F0FDFB97
:10410000A0700020E6E7000070B5040003D0607CDA
:10411000002610B105E0012070BD2674204600F095
:104120003DF802206074204600F092F9042550BB4F
:10413000204602F044FC30BB2068416821F00701B2
:104140004160A06820B11448016821F001010160BC
:104150001148001F0168A26821F4607111430160D9
:104160006068411C04D10120FFF738FB58B1401EA4
:104170002268C0F303419160216880B2C860204684
:1041800002F038FC08B16574C5E7E673012060737E
:10419000A0736074002070BD306C004008B50068EA
:1041A000114988421FD1FFF7E1FA1048C16941F077
:1041B0000061C161C0690E4900F0006000900120FB
:1041C0000860002205210320FFF79EFA0320FFF775
:1041D0008EFA002205212920FFF796FABDE8084053
:1041E0002920FFF784BA08BD0028004000100240D3
:1041F0003C0442422DE9F8434FF0000617460D46B5
:10420000040000960FD075B1207C01280ED04FF02D
:10421000010984F81090022060740022694620464B
:10422000FFF705FF20B10120BDE8F8830220FBE77E
:104230009DF800004FF4616148439DF80110C1EB07
:10424000011100EB81009DF8021000EB01082878B5
:10425000E7B102F049FB4FF4616100FB01F76878B8
:1042600002F042FBC0EB001007EB8007A87802F0D9
:104270003BFB3918414501D217480144204602F062
:1042800040FC70B1042060742674CCE74FF4616187
:1042900048436978C1EB011100EB8100A978014422
:1042A000E8E72068416821F0020141602068016868
:1042B00041F0020101600948016841F400310160E8
:1042C00006480830016841F40031016084F811901B
:1042D00026740020A8E7000080510100000401407E
:1042E0002DE9F0410D4604003BD0C5B3207C0128E8
:1042F0003AD04FF0010884F8108002206074E8780A
:1043000072B302F0F1FAE073687802F0EDFA6073CC
:10431000A87802F0E9FAA073C2B2617BE07B02F0F8
:10432000C5FB20732870204602F08DFB4FF46161BD
:10433000B0FBF1F1002518292DD91822B1FBF2F1BB
:10434000A1EB011101EB4101C1EB011100EBC11621
:104350003146204602F0E9FB0427C8B90BE000E033
:1043600004E00120BDE8F0810220FBE7E0736878FB
:104370006073A878CFE7204602F05EFB411C0AD0AC
:10438000B04208D206490144204602F0BAFB10B1FF
:1043900067742574E5E784F8118025740020E1E74F
:1043A000805101002DE9F0410D46040024D01DB3D9
:1043B000207C012823D04FF0010884F810800220CF
:1043C00060742878EAB102F08FFA4FF4616100FB63
:1043D00001F6687802F088FAC0EB001006EB800660
:1043E000A87802F081FA35182946204602F09DFB94
:1043F0000026042710BB0FE00120BDE8F081022059
:10440000FBE74FF4616148436978C1EB011100EBB0
:104410008100A9784518E7E72068416821F0050187
:104420004160204602F008FB411C0AD0A84208D295
:1044300006490144204602F064FB10B167742674FB
:10444000DAE784F8118026740020D6E78051010055
:1044500070B504000AD02068416821F0080141606D
:10446000FEF73CFD05464FF47A7608E0012070BD6A
:10447000FEF734FD401BB04201D9032070BD206817
:1044800040680007F4D5002070BD000003480068B4
:10449000C16841F00101C1607047000024030020A1
:1044A00003480068C16821F00101C1607047000045
:1044B000240300207047704770B590F83C20012A13
:1044C00026D0012480F83C40022280F83D20036879
:1044D0005A689D6822F070060A6832435A600D4B94
:1044E00002689A4208D0B2F1804F05D00A4B9A4236
:1044F00002D00A4B9A4204D1496825F0800319433F
:10450000916080F83D40002180F83C10084670BD65
:10451000022070BD002C0140000400400008004053
:1045200010B5040003D094F83D0010B107E001205D
:1045300010BD002084F83C00204600F01FF8022047
:1045400084F83D00211D206803F09EFE012084F8C0
:10455000460084F83E0084F83F0084F8400084F868
:10456000410084F8420084F8430084F8440084F851
:10457000450084F83D00002010BD000008B500682B
:10458000B0F1804F08D10548C16941F00101C16116
:10459000C06900F00100009008BD0000001002405A
:1045A00090F83D10012901D001207047022180F8C8
:1045B0003D100168CA6842F00102CA6000680B49F8
:1045C000884208D0B0F1804F05D00949884202D016
:1045D0000849884204D1816801F00701062903D007
:1045E000016841F00101016000207047002C01408A
:1045F000000400400008004070B5044690F83C00FC
:104600000025012817D0012684F83C60022084F898
:104610003D002068826822F0770222F47F428260A7
:104620000868502838D00DDC20284FD005DC90B326
:10463000102811D14AE0022070BD302846D0402811
:104640000AD13BE060282FD070280DD0B0F5805FF4
:1046500003D0B0F5005F12D0012584F83D60002042
:1046600084F83C00284670BDCB68D1E90121206860
:1046700003F053FE2068816841F0770109E0CB68C0
:10468000D1E90121206803F048FE2068816841F4E7
:1046900080418160E1E719E0CA684968206803F059
:1046A000F1FE5021206806E0CA684968206803F0DE
:1046B000FAFE6021206803F03AFECEE7CA68496836
:1046C000206803F0DFFE40212068F4E722680146FD
:1046D0001046F0E770472DE9F04104460068C668CF
:1046E00005694FF00007A90713D5B10711D5F91EC9
:1046F000016101202077206880698007204602D070
:10470000FFF7E8FF04E000F0A3F8204600F035F9D9
:104710002777680716D5700714D521686FF0040055
:104720000861022020772068806910F4407F2046CD
:1047300002D0FFF7CFFF04E000F08AF8204600F037
:104740001CF92777280715D5300713D521686FF096
:1047500008000861042020772068C069800720468F
:1047600002D0FFF7B7FF04E000F072F8204600F037
:1047700004F92777E80616D5F00614D521686FF0FE
:1047800010000861082020772068C06910F4407F7D
:10479000204602D0FFF79EFF04E000F059F82046C3
:1047A00000F0EBF82777E80708D0F00706D021687B
:1047B0006FF001000861204600F066F9280608D570
:1047C000300606D521686FF0800008612046FFF7AB
:1047D00071FE680608D5700606D521686FF04000A6
:1047E0000861204600F05AF9A8060AD5B00608D597
:1047F00021686FF0200008612046BDE8F041FFF716
:104800005ABEBDE8F081000000B585B000210091DE
:104810000191029103910068B0F1804F11D10A48D3
:10482000816941F0040181618069694600F00400FA
:104830000490042000900220019003900348FEF7AA
:1048400057FA05B000BD000000100240000801400A
:10485000704770B5044690F83C0000260D460128CC
:104860000FD0012084F83C006AB1042A1DD0082A28
:104870002FD00C2A3FD00126002084F83C0030467F
:1048800070BD022070BD206803F05AFD2068816968
:1048900041F0080181612068816921F00401816192
:1048A000206881692A69114311E0206803F070FDD6
:1048B0002068816941F4006181612068816921F487
:1048C00080618161206881692A6941EA02218161F0
:1048D000D2E7206803F088FD2068C16941F0080133
:1048E000C1612068C16921F00401C1612068C1690A
:1048F0002A69114311E0206803F0A2FD2068C16914
:1049000041F40061C1612068C16921F48061C16125
:104910002068C1692A6941EA0221C161ACE710B58A
:10492000040003D094F83D0010B107E0012010BD51
:10493000002084F83C00204600F01EF8022084F895
:104940003D00211D206803F09FFC012084F84600F3
:1049500084F83E0084F83F0084F8400084F8410069
:1049600084F8420084F8430084F8440084F8450049
:1049700084F83D00002010BD7047704710B5044614
:10498000022249B104290ED0082913D094F841001D
:10499000012816D0012010BD94F83E000128F9D15D
:1049A00084F83E200FE094F83F000128F2D184F80B
:1049B0003F2008E094F840000128EBD184F8402023
:1049C00001E084F841200122206803F099FC0F499E
:1049D0002068884203D1426C42F40042426420685D
:1049E000884208D0B0F1804F05D00949884202D0F2
:1049F0000849884204D1816801F00701062903D0E3
:104A0000016841F001010160002010BD002C01404F
:104A1000000400400008004030B504460D46006820
:104A2000002203F06DFC174B41F2111120688A102F
:104A3000984209D1036A0B4206D1036A134203D19B
:104A4000436C23F4004343642068036A0B4206D19D
:104A5000016A114203D1016821F0010101600120C6
:104A60003DB1042D08D0082D09D084F84100002064
:104A700030BD84F83E00FAE784F83F00F7E784F899
:104A80004000F4E7002C014000680349884201D14E
:104A9000FEF796BD70470000000800407047704761
:104AA00070470000F8B5016804460868CA684B6999
:104AB00010F00F0F4FF0000559D003F0010602F47B
:104AC0009077374365D0C10705D0D10503D5616C18
:104AD00041F001016164410705D5D90703D0616C3C
:104AE00041F002016164810705D5D90703D0616CEB
:104AF00041F004016164010707D502F02001314350
:104B000003D0616C41F008016164616C00293AD006
:104B1000800604D5900602D5204603F0B4FD206837
:104B20004069616CC0F38010090700D460B320466F
:104B300003F074FD20684069400621D520681430D8
:104B400050E8001F21F0400140E80012002AF5D192
:104B5000E06BA8B16D494163E06BFDF72DFF0028C4
:104B600011D0E06B416B01B0BDE8F040084783060F
:104B70000FD593060DD52046BDE8F84003F083BD60
:104B80002046FFF78DFFF8BD2046FFF789FF6564DB
:104B9000F8BD266B2023012E7CD1C6067AD5D60619
:104BA00078D508684868009048694FF002064006CA
:104BB00040D5E16B086840680004000CE8D0A28D85
:104BC0008242E5D9E085886920282DD020680C3004
:104BD00050E8001F21F4807140E80012002AF5D14E
:104BE0002068143050E8001F21F0010140E8001255
:104BF000002AF5D12068143050E8001F21F0400150
:104C000040E80012002AF5D184F84230256320687C
:104C10000C3050E8001F21F0100140E80012002A7B
:104C2000F5D1E06BFDF7A5FE6663A08DE18D401A1E
:104C300081B22AE0A08DE18D401A81B2E08D00287A
:104C4000A6D00029A4D022680C3252E8000F20F42C
:104C5000907042E80007002FF5D12068143050E82A
:104C6000002F22F0010240E80027002FF5D184F840
:104C70004230256320680C3050E8002F22F01002EB
:104C800040E80023002BF5D166632046FFF707FFBD
:104C9000F8BDFFE705062BD5150629D594F8410088
:104CA0002128F5D1A068B0F5805F01D12069B0B1AD
:104CB000206A411C2162216800784860E08C401E17
:104CC0000004000CE084E3D12068C16821F0800179
:104CD000C1602068C16841F04001C160D8E7206A26
:104CE0000088C0F308004860206A801C2062E5E765
:104CF0004006CDD55006CBD5CA68204622F04002EA
:104D0000CA6084F8413000F0CBF8C1E7778500082D
:104D100070B5040004D094F84100002510B106E0FD
:104D2000012070BD84F84050204600F023F8242074
:104D300084F841002068C16821F40051C160204618
:104D400003F002FD2068016921F4904101612068AF
:104D5000416921F02A0141612068C16841F4005194
:104D6000C1606564202084F8410084F842006563D6
:104D7000002070BD70B586B00025064600950195EF
:104D8000029503950068224988423FD121498869EC
:104D900040F480408861886900F48040049088690C
:104DA00040F00400886188691B4C00F00400049006
:104DB0004815009002200190032003906946204688
:104DC000FDF796FF2015CDE90005694620460295BE
:104DD000FDF78EFF124C114820601020C4E9010538
:104DE0008020C4E903056561A5612046E561FDF702
:104DF000D9FE08B1FDF7E4FCB463002205212520AB
:104E00006662FEF781FC2520FEF771FC06B070BDDE
:104E100000380140001002400008014044000240F8
:104E2000E00200207047000070B5044690F8410091
:104E3000202801D0022070BD49B342B32162A28470
:104E4000E28400206064212384F84130A56B114B7B
:104E5000AB62A56B104BEB62A56B104B2B63A36B86
:104E60005863256813462A1DA06BFDF7C9FE21680B
:104E70006FF0400008602068143050E8001F41F0D7
:104E8000800140E80012002AF5D1002070BD012009
:104E900070BD0000D18500081386000887850008D2
:104EA00070477047FEE701684A69D24352050FD444
:104EB0006FF480624A61002140F8301F2022427363
:104EC0008173026942F0040202610173012070479C
:104ED00000207047F8B50446C06A1E460D461746C6
:104EE000082807D0012805D010F5803F02D0206B9C
:104EF000122804D12068016841F4807101601346D2
:104F000000224FF001112046009600F02FF940B129
:104F100020680068C00502D54FF4007020640320AB
:104F2000F8BD2069B0F5804F0ED00620216800EA58
:104F3000D51040F0F000086133463A460B49204650
:104F400000F05CF978B902E005F0FE0000E0E8B29C
:104F500021680861054933463A46891F204600F01A
:104F60004DF90028DCD00120F8BD00000800010048
:104F70002DE9F84F0446006889460B9D0168984664
:104F8000174641F4806101602068016841F4807136
:104F9000016000954FF0011B0022594620460A9BF4
:104FA00000F0E4F84FF4007A40B120680068C005D2
:104FB00001D5C4F840A00320BDE8F88F216809F0AE
:104FC000FE0008612B46284920460A9A00F016F98F
:104FD000F0BB20684169806900902A4620460A9902
:104FE00000F0A2F940B1206C04283AD12068016891
:104FF00041F40071016034E0FEB2B8F1010F09D054
:105000002168380A08612A4620460A9900F08CF97E
:105010000028E8D1206806612A4620460A9900F057
:1050200083F90028DFD12068016841F480710160B4
:1050300000950022594620460A9B00F097F8002868
:10504000B3D1216809F0FF0040F00100086100E0E1
:1050500007E02B46044920460A9A00F0CFF80028C2
:10506000AAD00120A8E70000020001002DE9F843C2
:10507000044600680D46DDE9089701689846164623
:1050800041F4807101604B4600224FF0011120462F
:10509000009700F06BF848B120680068C00502D5A1
:1050A0004FF4007020640320BDE8F883216805F008
:1050B000FE0008613B464A461549204600F09EF82E
:1050C00088B920684169806900903A46494620467F
:1050D00000F02AF948B1206C042804D12068016846
:1050E00041F4007101600120DEE7F5B2B8F1010F73
:1050F00009D02168300A08613A464946204600F046
:1051000013F90028E7D1206805610020CCE70000F2
:105110000200010070B516460D4604461EE020460A
:10512000FFF7C1FE08B1012070BD681C16D0FDF765
:10513000D5FE801BA84200D885B920684069C043CD
:1051400040070BD5002044F8300F20216173A07375
:10515000216941F0200121612073E4E72068406962
:10516000C0434007DBD4002070BD00002DE9F047AC
:10517000984617460D460446C1F30746DDF82090D1
:105180002AE000BFB8F1FF3F26D0FDF7A7FEA0EB55
:105190000901414502D8B8F1000F1DD12068012E48
:1051A00016D0806925EA00000004000C12D000200F
:1051B000B84211D1002044F8300F20216173A07350
:1051C000216941F02001216120730120BDE8F087B1
:1051D0004069E7E70120EBE72068012E0AD08069EB
:1051E00025EA00000004000C06D00020B842C9D017
:1051F0000020EBE74069F3E70120F7E72DE9F047EE
:10520000984616460D4604464FF000094FF0200A16
:10521000C1F3074723E020684069C043400515D427
:105220002068016841F40071016021686FF48060BA
:105230004861C4F8309084F83DA084F83E90216C19
:1052400041F00401216484F83C9021E0701C06D0F8
:10525000FDF744FEA0EB0800B04203D816B1012FC1
:105260001FD021E02068012F15D0806925EA0000B9
:105270000004000C18D000BF44F8309F84F80DA043
:1052800084F80E90216941F02001216184F80C908E
:105290000120BDE8F087406925EA00000004000C09
:1052A000EAD12068406901E02068806925EA0000B1
:1052B0000004000CAFD1ECE72DE9F0410025904649
:1052C0000E460446202728E04069C043C0060CD49F
:1052D00054F8301B6FF01000486144F8105967779C
:1052E000A577206A2062257714E0FDF7F7FDA0EB93
:1052F0000800B04200D886B920684069C043400623
:105300000BD544F8305F6773A573206940F0200027
:10531000206125730120BDE8F08120684169C943FF
:105320004906D1D40020F6E770B516460D4604466E
:105330001EE02046FFF7B7FD08B1012070BD681CD4
:1053400016D0FDF7CBFD801BA84200D885B9206898
:105350004069C04300060BD5002044F8300F2021DF
:105360006173A073216941F0200121612073E4E79A
:1053700020684069C0430006DBD4002070BD0000F7
:1053800008B500200246009001210A2005F015FA18
:105390001A491B4C4FF0FF35086007212B466A461F
:1053A000084605F0E3FE142004F07CFF0098C107D6
:1053B00009D0012000F03CF80028EED060780028E9
:1053C000EBD1012016E0810709D5032000F030F869
:1053D0000028E2D060780028DFD103200AE04007EF
:1053E000DBD5052000F024F80028D6D0607800280E
:1053F000D3D1052000F098F8CFE700003C00002052
:10540000D800002008B500208DF8000002460748AB
:105410006946006805F098FB012801D0002008BD0E
:1054200002F0C4FB9DF8000008BD00003C00002015
:1054300010B50B4A012804D0032804D0052808D150
:1054400009E0102100E040214FEA0200FDF740FD95
:1054500020B1002010BD02210248F7E7012010BD55
:1054600000080140000C0140FFF78AFFFCE7000044
:105470002DE9FC412A4C00258DF80450667807463A
:10548000607858B33046FFF7D3FF0100254831D08C
:1054900061884FF6FF72914202D26188491C618097
:1054A0006188642918D361880A226439B1FBF2F358
:1054B00002FB131100290FD1012E15D0032E15D098
:1054C000052E15D08DF8041000231A4601A9006896
:1054D00005F00CFA01202070BDE8FC8100231A467B
:1054E00003213846009517E00221EBE70421E9E7A4
:1054F0000621E7E7217839B98DF8046000231A46C0
:1055000001A9006805F0F2F93846658025706570DC
:1055100000231A460321009505F0CEFFDCE70000CA
:10552000D80000203C00002038B50849487000240D
:105530004C800C7005F0A8FD02460548009400233D
:105540000121006805F0B8FF38BD0000D800002038
:10555000300000200EB5684600F010F8FFF752FF4B
:10556000012805D002F038F8052004F09BFEF2E790
:10557000012002F0E6FF00200EBD00002DE9FC47EF
:1055800048498146881ECDE90001831E021F811F04
:10559000083800F0E4F8434C0A3CB4F9060006F081
:1055A0001DFE21690D4606F079FEA16A06F0C6FCD3
:1055B0006061B4F9080006F011FE294606F06EFE9F
:1055C000E16A06F0BBFCA061B4F90A0006F006FE31
:1055D000294606F063FE216B06F0B0FCE061B4F9E9
:1055E000040006F060FA0646B4F900000D46404299
:1055F00006F059FA32462B4603F078FE2A4E002276
:10560000334606F07BFAD4E90E2306F097F805F04E
:10561000B3FF2062B4F9040006F045FA05460F46D0
:10562000B4F9020006F03FFA2A463B4603F05EFE5C
:105630000022334606F062FAD4E90E2306F07EF823
:1056400005F09AFF6062E168054688464FF07E509B
:1056500006F022FF0646216A06F020FE0746404675
:10566000616906F01BFE394606F068FC0746A06239
:105670003046294606F012FE05464046A16906F06E
:105680000DFE294606F05AFCE06205464046E169F7
:1056900006F004FE2063C9E90075C9F80800BDE8FA
:1056A000FC87000032010020008066403A2000F0B4
:1056B000D9B810B50021382000F0F0F83A2000F0F9
:1056C000D1F80021372000F0E9F801216B2000F02B
:1056D000E5F800216C2000F0E1F80421192000F029
:1056E000DDF806211A2000F0D9F818211B2000F05F
:1056F000D5F81821BDE810401C2000F0CFB870B5D7
:105700000E46054614460021382000F0C7F83A201E
:1057100000F0A8F82021372000F0C0F829461F200B
:1057200000F0BCF83146202000F0B8F815216920BF
:1057300000F0B4F801211C2000F0B0F8A007000E22
:1057400040F007016C2000F0A9F828216B2000F040
:10575000A5F8BDE870404021382000F09FB82DE941
:10576000F0470746DDE9089A1D4690460E463B2065
:1057700000F078F804463C2000F074F840EA042079
:1057800038803D2000F06EF804463E2000F06AF8B4
:1057900040EA042030803F2000F064F804464020B6
:1057A00000F060F840EA0420A8F80000432000F070
:1057B00059F80446442000F055F840EA04202880B7
:1057C000452000F04FF80446462000F04BF840EA30
:1057D0000420A9F80000472000F044F804464820BF
:1057E00000F040F840EA0420AAF80000BDE8F08785
:1057F00004480068002803D04FF0FF3105F0FCBAE0
:1058000070470000DC00002003480068002801D039
:1058100005F07BB970470000DC00002010B50420C3
:1058200004F0C0FF0E49086000F000F901216B2070
:1058300000F034F800216C2000F030F80421192029
:1058400000F02CF806211A2000F028F818211B205F
:1058500000F024F81821BDE810401C2000F01EB80C
:10586000DC0000201FB50446FFF7C2FF01210A2219
:1058700003A88DE807000B462246D0210448FDF717
:105880008DFCFFF7C1FF9DF80C0004B010BD0000B7
:10589000E801002001F0ECFFFCE7000013B584B044
:1058A0000446FFF7A5FF01210A2205A88DE807009D
:1058B0000B462246D0210348FDF79EFDFFF7A4FFCB
:1058C00006B010BDE8010020094808B5416941F063
:1058D000010141614069002200F0010000900521B2
:1058E0000E20FDF711FFBDE808400E20FDF7FFBEBA
:1058F0000010024010B5044A0021044803F03EFEA7
:105900000349886310BD00007CC60008357E00088E
:1059100000000020F0B585B0002003902E4881697A
:1059200041F010018161816901F0100104918169E8
:1059300041F020018161816901F0200104918169B8
:1059400041F004018161816901F0040104918169E0
:1059500041F0080181618069012400F00800049091
:105960001E481F4FCDE90040022569460295384682
:10597000FDF7BEF91B4E5020CDE9000669460294A2
:105980003846FDF7B5F90095CDE90164694616483A
:10599000FDF7AEF9002205210620FDF7B5FE062031
:1059A000FDF7A5FE002205210720FDF7ADFE07202B
:1059B000FDF79DFE002205210A20FDF7A5FE0A2025
:1059C000FDF795FE002205211720FDF79DFE17200B
:1059D000FDF78DFE05B0F0BD001002400000111073
:1059E0000008014000002110000C01400D4810B5D6
:1059F0000B4901600C49416000214FF480428160F5
:105A0000C0E9031241618161C1610162FDF76CFA75
:105A1000002803D0BDE81040FCF7D2BE10BD000046
:105A20000054004094010020801A06000D4810B573
:105A30000B4901600C49416000214FF480428160B4
:105A4000C0E9031241618161C1610162FDF74CFA55
:105A5000002803D0BDE81040FCF7B2BE10BD000026
:105A600000580040E8010020A08601007CB5002419
:105A700038480194364900940160611EC0E9011460
:105A8000FEF742FB08B1FCF79BFE01213148FEF70F
:105A9000F9F945F6A525A8422CD017208DF8040069
:105AA0003B208DF805008DF80640002201A9294809
:105AB000FEF778FC08B1FCF783FE05208DF80000A6
:105AC00004208DF8010014208DF802001A208DF8B2
:105AD0000300002269461F48FEF702FC08B1FCF7EC
