:020000040800F2
:10000000083C0020AD0100089F47000801010008DE
:1000100099470008D50B000875580008000000003B
:1000200000000000000000000000000015010008B2
:100030001F0C00080000000059010008455300088B
:10004000C7010008C7010008C70100086552000881
:10005000C7010008C7010008210C0008C7010008FB
:10006000C7010008C7010008C7010008C701000850
:10007000C7010008C7010008DD0B0008C701000820
:10008000E90B0008C7010008C7010008C701000804
:10009000C7010008C7010008C7010008C701000820
:1000A000C7010008C7010008C7010008C701000810
:1000B000C7010008C7010008F9530008DD31000836
:1000C000D1310008FD310008C7010008C701000850
:1000D000C701000869580008C7010008C7010008E7
:1000E000C7010008C7010008C7010008DFF80CD0ED
:1000F00000F0F0FC0048004779850008083C00202B
:100100001EF0040F0CBFEFF30880EFF3098007F037
:10011000CDBF0000224B19680868B0E8F00F80F3EB
:100120000988BFF36F8F4FF0000080F311884EF005
:100130000D0E70470000000006480068006880F35C
:10014000088862B661B6BFF34F8FBFF36F8F00DFD1
:1001500000BF00BF08ED00E0EFF30980BFF36F8F31
:100160000F4B1A6820E9F00F106008B54FF05000EF
:1001700080F31188BFF34F8FBFF36F8F0AF08CFDB0
:100180004FF0000080F31188BDE808401968086846
:10019000B0E8F00F80F30988BFF36F8F704700BF9E
:1001A00010000020EFF305807047000006488047EC
:1001B00006480047FEE7FEE7FEE7FEE7FEE7FEE74C
:1001C000FEE7FEE7FEE7FEE7F7530008ED00000854
:1001D0002DE9F05F0546002092469B46884606467C
:1001E000814640241BE0284641464746224600F00F
:1001F00020F853465A46C01A914110D3114618466A
:10020000224600F04DFB2D1A67EB01084F462246AF
:100210000120002100F044FB17EB00094E41201E95
:10022000A4F10104DFDC484631462A464346BDE8D6
:10023000F09F202A04DB203A21FA02F000217047C7
:1002400021FA02F3D040C2F120029140084319463E
:10025000704740EA01039B0703D009E008C9121F59
:1002600008C0042AFAD203E011F8013B00F8013B70
:10027000521EF9D27047D2B201E000F8012B491E9C
:10028000FBD270470022F6E710B513460A46044633
:100290001946FFF7F0FF204610BD10B5002200E020
:1002A000521C835C8C5CA34201D1002BF8D1D8B2E4
:1002B000E1B2401A10BD034611F8012B00F8012BE2
:1002C000002AF9D118467047F0B480EA0102D40F31
:1002D0004200B2EB410F02D20246084611464A00E4
:1002E00042D0C30DDDB2C1F3C752AD1A202D35DAAD
:1002F000C1F3160141F4000204B15242C5F12006D7
:1003000002FA06F12A411044B3EBD05F23D0C4B106
:10031000012DA0EBC35009DCF0BC4FF0004202EA13
:10032000C352DBB200F5000000F0E4BA400000F177
:10033000807000EBC350A0F1807040EAD17049009A
:1003400009E0490841EAC071A0EBC35000F5000084
:10035000400800EBC350F0BC00F0C3BA6142012278
:1003600002EB4101001BF6E7F0BC704781F0004151
:10037000AAE780F00040A7E780EA010210B502F08A
:100380000043400022D04A001FD0010E01EB126151
:10039000C0F35600C2F3560240F4000042F40002DB
:1003A000A0FB022000047F39140400D0401C50EA56
:1003B000124001D44000491EC2B20C0604EBD0101A
:1003C000401C4008802A02D003E0002010BD20F02D
:1003D0000100002900DA0020184310BD30B480EA83
:1003E000010202F0004530F0004221F0004013D03D
:1003F00090B1C30DD40DC2F31601C0F31600E41A78
:1004000041F4000140F400027D34914201D3641CA8
:1004100000E04900002C02DA30BC002070474FF4A5
:1004200000000023914201D3891A034340084FEA98
:100430004101F7D151B1914202D14FF0004105E0A5
:1004400002D24FF0010101E06FF0010103EBC45053
:10045000284430BC00F045BA420005D0C0F3C75272
:100460005242914201DC0020704700EBC1507047BE
:100470002DE9FE4F804681EA0300C00F0C46009034
:1004800021F0004123F00045B8EB0200A94105D25C
:100490004046214690461C460B46024623F000404B
:1004A000104347D0270DC7F30A00C3F30A51029047
:1004B000401A019040286BDAC3F3130040F4801B0C
:1004C0000098924620B10023D2EB030A63EB0B0B9A
:1004D00001985946C0F14002504600F0E1F9064645
:1004E0000D4650465946019A00F0E9F910EB080014
:1004F0006141002487EA115284EAE7731A4340D02D
:10050000009A62B3019A012A4FEA075215DC001BD8
:1005100061EB02014FF0004202EA0752CDE90042CE
:10052000001C41F5801132462B4600F06DFA03B0F5
:10053000BDE8F08F40462146F9E7001B61EB020160
:10054000001C41F5801300185B412018A2F500172C
:1005500047EB030140EAD570B6196D4111E06D0813
:100560004FEA360645EAC0754FEA0752001B61EBB9
:100570000201001C41F5801149084FEA30000019C2
:10058000514132462B4603B0BDE8F04F00F02DBA82
:100590000098012240000023D0EB020263EBE073DD
:1005A000009821464FEAE074B8EB000061EB0401CB
:1005B000E9E783F000435BE781F0004158E72DE96C
:1005C000FE4F81EA030404F0004421F0004100944E
:1005D0004FF0000B23F0004350EA01045ED052EAD2
:1005E00003045BD0C3F30A54C1F30A552C44A4F2AC
:1005F000F3340194A0FB0254C1F3130141F48011C0
:10060000C3F3130343F4801301FB024400FB034EC6
:10061000840A970A44EA815447EA8357A4FB07688F
:1006200002958D0A05FB07854FEA932C04FB0C54B9
:100630002705029D4FEA065847EA1637B5EB08052D
:100640006EEB070C870E920E47EA811742EA83127F
:10065000A7FB0201B6EB0B0164EB00042B0D43EA90
:100660000C335E1844EB1C50DA465146E7FB02019E
:10067000C5F313044FEA0B3343EA14534FEA043231
:10068000019C43EA0603A4F10C040294009CCDE90A
:1006900000B400F0B9F903B0BDE8F08F00200146C6
:1006A000F9E72DE9F04D81EA030404F0004B21F055
:1006B000004514464FF0000A23F0004150EA0502BD
:1006C00020D054EA01021DD0C5F30A570246C5F3F3
:1006D0001303C1F31300C1F30A5640F4801543F429
:1006E0008013A7EB0608101BD64608F2FD3873EB03
:1006F000050002D308F1010801E092185B41B8F14E
:10070000000F03DA00200146BDE8F08D00204FF411
:100710008011064684460EE0171B73EB050705D3D0
:10072000121B63EB050306434CEA010C49084FEA30
:10073000300092185B4150EA0107EDD152EA030004
:1007400012D082EA040083EA0501084305D0101B99
:10075000AB4106D20122002306E000224FF0004305
:1007600002E06FF0010253101AEB06004CEB085147
:1007700010EB0A0041EB0B01BDE8F04D00F035B97C
:10078000C10F80EAE0700844CA079623002100F0F8
:10079000B1B896230022114600F0ACB800F0004238
:1007A00020F00040C10DC0F3160040F400007F2986
:1007B00001DA00207047962903DCC1F19601C84098
:1007C00001E096398840002AF4D04042704720F07A
:1007D0000040C10DC0F3160040F400007F2901DA8B
:1007E00000207047962903DCC1F19601C84070478C
:1007F00096398840704700F0004230F000400AD03F
:10080000C10D01F56071C0F3160042EA0151C20842
:1008100040071143704700200146704730B5041E61
:1008200071F1000404DB4FF00044404264EB01012D
:10083000141E73F1000405DB1C464FF000435242C6
:1008400063EB0403994208BF904230BD002801DBEE
:10085000C0F10040002901DBC1F100418142704735
:10086000002801DBC0F10040002901DBC1F100419B
:100870008842704730B50B460146002020220124F3
:1008800009E021FA02F59D4205D303FA02F5491B5E
:1008900004FA02F52844151EA2F10102F1DC30BD74
:1008A000202A04DB203A00FA02F100207047914030
:1008B000C2F1200320FA03F3194390407047202A25
:1008C00006DBCB17203A41FA02F043EAE07306E078
:1008D00041FA02F3D040C2F1200291400843194688
:1008E00070470029A8BF7047401C490008BF20F08E
:1008F0000100704710B4B0FA80FC00FA0CF050EA26
:10090000010404BF10BC704749B1CCF1200421FAA6
:1009100004F411FA0CF118BF012121430843A3EBA1
:100920000C01CB1D4FEA00614FEA102042BF0020AE
:1009300010BC704700EBC35010440029A4BF10BC8A
:100940007047401C490008BF20F0010010BC7047F0
:10095000F0B4002802DCF0BC00207047C0F3C7519F
:10096000C0F3160040F40000CA0701D14000491E40
:100970003F2202EB6105002211464FF4000626FAE1
:1009800001F31344D418844201D8001B1A464000D6
:10099000491C1729F3DD5100814202D24FF0FF318B
:1009A00000E0002102EBC550F0BCFFF79ABF10B584
:1009B00041000CD0C0F3C751962908DC7E2909DC20
:1009C00006DB410204D000F0004040F07E5010BD34
:1009D000002010BDC1F19604C4F1200100FA01F11C
:1009E000E040FFF77EFFA04010BD10B5141E73F16C
:1009F000000408DA401C41F1000192185B411A43DF
:100A000001D120F0010010BD2DE9F04D92469B462A
:100A100011B1B1FA81F202E0B0FA80F220329046D0
:100A2000FFF73EFF04460F4640EA0A0041EA0B0189
:100A300053465A46084313D0114653EA010019D0D1
:100A4000C8F140025046FFF7F4FB05460E465046FB
:100A500059464246FFF724FF084305D0012004E031
:100A600020463946BDE8F08D0020054346EAE07691
:100A70002C4337430A986305E40AA0EB08000022E0
:100A8000FD0A44EA47540A3002D500200146E9E74E
:100A9000010510196941DDE9084500196941BDE802
:100AA000F04DA2E7C1F30A52C1F3130140F2FF3344
:100AB00041F480119A4202DA00200146704740F268
:100AC00033439A42A2F2334202DC5242FFF7B1BBF7
:100AD000FFF7E6BE064C074D06E0E06840F0010374
:100AE00094E8070098471034AC42F6D3FFF702FBB6
:100AF000A0DE0008C0DE000870B58C1810F8015B9D
:100B000015F0070301D110F8013B2A1106D110F8A6
:100B1000012B03E010F8016B01F8016B5B1EF9D1AA
:100B20002B0705D40023521E0DD401F8013BFAE730
:100B300010F8013BCB1A921C03E013F8015B01F89B
:100B4000015B521EF9D5A142D8D3002070BD000030
:100B500009F03AF806F0EAF807F0F2FC07F098FA24
:100B60000CA210A1032007F0F5FC06F00FF807F027
:100B7000AFFD0EA210A1032007F0ECFC06F088FDEB
:100B800007F06AFE0DA207A1032007F0E3FC08F0BE
:100B90007BF8FEE753797374656D20626F6F742E76
:100BA0002E2E00004D41494E00000000496E697430
:100BB00069616C697A65640042544E0053746172D5
:100BC00074696E67207363686564756C65722E2E38
:100BD0002E000000FFF794FAFEE70000014800F045
:100BE00099B80000E4030020014800F093B8000029
:100BF000FC02002030B590F840500124AC40C56B99
:100C00006C60046863604368102B036803D09960CC
:100C10000068C26030BD9A600068C16030BD704736
:100C2000012000F091B972B600BEFDE710B590F852
:100C300021100022022905D00421816380F82020A0
:100C4000012010BD01680B6823F00E030B600168E2
:100C50000B6823F001030B6090F84030C46B012156
:100C600001FA03F3636080F8211080F82020104619
:100C700010BD000010B590F821100024022903D007
:100C80000421816301243DE001680A6822F00E021C
:100C90000A6001680A6822F001020A601A4A0168C3
:100CA000914201D1012121E0174A1432914201D130
:100CB00010211BE0144A2832914201D1891515E018
:100CC000114A3C32914201D189140FE00E4A503250
:100CD000914202D14FF4803108E00B4A64329142D4
:100CE00002D14FF4801101E04FF08071064A083ABA
:100CF0005160012180F82110002180F82010416B03
:100D000001B18847204610BD0800024090F821003C
:100D1000704700002DE9F05FC16B0C6801680B683B
:100D2000D0F840C0042202FA0CF2494DDFF824A1A9
:100D3000494E4A4FDFF828B1DFF828E122422CD093
:100D40005A072AD50A68920603D40A6822F00402D8
:100D50000A600168A94201D1042219E0514501D17C
:100D6000402215E0B14202D14FF4806210E0B94256
:100D700002D14FF480420BE0594502D14FF480225A
:100D800006E0714502D14FF4800201E04FF080622D
:100D90002F4908394A60C16A3BE04FF0020808FA5F
:100DA0000CF818EA040F4FF000094FF0010235D09B
:100DB0005FEA837832D50B689B0605D40B6823F075
:100DC0000A030B6080F821200168A94201D10222A8
:100DD00019E0514501D1202215E0B14202D14FF472
:100DE000007210E0B94202D14FF400520BE05945B5
:100DF00002D14FF4003206E0714502D14FF40012E7
:100E000001E04FF00072124908394A6080F82090E2
:100E1000816A00291AD0BDE8F05F0847082505FA65
:100E20000CF5254212D01B0710D50B6823F00E03DA
:100E30000B6090F84010C36B02FA01F159608263B5
:100E400080F8212080F82090016BE2E7BDE8F09F58
:100E5000080002401C0002403000024044000240F2
:100E6000580002406C00024030B528B308C813494E
:100E700014221944B1FBF2F18900C1631049816366
:100E8000022141771A6843F6F0718A43D0E90014D1
:100E90002143D0E902452C4321430469214344699D
:100EA00021438469214311431960002141630122D8
:100EB00042770177084630BD012030BDF8FFFDBF05
:100EC0000000024070B5044690F82000002501287B
:100ED0000CD0012084F8200094F821600020012E1D
:100EE00006D084F820000225284670BD022070BD7F
:100EF000022684F82160A0632068066826F00106B7
:100F000006602046FFF776FEE06A00282068016848
:100F100002D041F00E0106E021F0040101602068DA
:100F2000016841F00A0101602068016841F0010197
:100F30000160D9E7012804D102480068002800D0E8
:100F40000047704704010020044910B50A680242B6
:100F500002D00860FFF7EEFF10BD0000140401404E
:100F60002DE9F84FDFF8B8910024A9F1040B2346CE
:100F70000F2709F1040AABF1040EC9E00125A540D1
:100F80002A40AA427DD1674ED1F804C0ACEB0608D6
:100F9000B44532D014DCBCF1030F3AD009DCBCF10B
:100FA000000F2AD0BCF1010F1CD0BCF1020F31D1CF
:100FB0001DE0BCF1110F17D0BCF1120F2AD119E0BE
:100FC000B8F5881F19D006DCB8F5803F15D0B8F504
:100FD000801F1FD111E0B8F5001F0ED0B8F5041F17
:100FE00018D10AE0CB6815E0CB681B1D12E0CB6876
:100FF00008330FE0CB680C330CE08B682BB1012B6E
:101000004FF0080303D0456104E0042302E00561CA
:1010100000E00023FF2A01D8064601E000F10406A3
:101020004FEA840501D9A5F12005D6F8008007FA1A
:1010300005FC28EA0C0803FA05F548EA0508C6F895
:1010400000804D68ED0062D5374DAE6946F001066F
:10105000AE61AD6924F0030605F001050095334D3E
:1010600006EB050CDCF80850A607360F07FA06F861
:1010700025EA0805DFF8B880404503D14FF00008A5
:1010800017E044E0DFF8AC80404502D14FF00108A2
:101090000FE0DFF8A480404502D14FF0020808E0DD
:1010A000DFF89880404502D14FF0030801E04FF08F
:1010B000040808FA06F848EA0508CCF808804D68E4
:1010C000D9F80060ED024D4601D5164300E0964385
:1010D0002E604D68DAF80060AD02554601D5164322
:1010E00000E096432E604D68DBF80060AD035D467E
:1010F00001D5164300E096432E604D68DEF800608F
:10110000ED03754601D5164300E096432E60641C3E
:101110000D682A46E5407FF431AFBDE8F88F000046
:1011200008040140000011100010024000000140BE
:1011300000080140000C0140001001400014014073
:101140008068084000D00120704700000148806896
:101150007047000000000020704770472DE9F04103
:10116000016804464A694E6890F83E000025D7435E
:10117000FA050BD4F243D20508D46FF4807201252E
:101180004A6121680A6842F400420A60B90508D43D
:10119000F143C90505D422686FF4007145F00205DA
:1011A0005161790525D4F143C90522D4638D94F8A2
:1011B0003D10226B202808D13BB9212910D02929C4
:1011C0000ED0282901D1212A0AD022686FF480612B
:1011D000516145F00405102806D0402804D008E0ED
:1011E000204602F0A3FD04E02068016841F400718C
:1011F0000160380508D4F043C00505D421686FF4B8
:10120000006045F008054861002D07D0206C284398
:1012100020642046BDE8F04102F004B9BDE8F08149
:101220002DE9F047026800215368C66A90F83E40F5
:1012300090F83D50102C12D0402C10D0046C002C93
:101240007DD05469E443A6077AD4DE43B60577D44B
:10125000036C03B19169BDE8F04702F043BD9769A3
:1012600051694FF42A0CC9435FEAC1784FF02A490B
:1012700004D066452AD04E4528D010E0DE43B6059E
:101280000DD4C16A614501D1012103E0C16A49451C
:1012900001D10821C162BDE8F04702F0B7BB0E07DB
:1012A00016D4DE43B60513D4416CC9B21161416B4B
:1012B00009B1896A29B9816B002907D0896A002997
:1012C00004D00068416841F400614160BDE8F087E6
:1012D0008E0706D4DE43B60503D4BDE8F04702F01E
:1012E000E9BAFE43526876074FEA02521DD4002A3B
:1012F000ECDB0A0608D4DA43520505D4490705D5C4
:10130000BDE8F04702F07ABA4907DFD4D94389052E
:10131000DCD4212D05D0402CD8D1BDE8F04702F017
:10132000BBBBBDE8F04702F027BA002ACEDB4A0675
:101330000BD4DA43520508D4490708D501E00DE083
:101340000EE0BDE8F04702F09DB94907BED4D9438D
:101350008905BBD4BDE8F04702F027B9916970E771
:10136000E10606D4D943890503D4BDE8F04702F06D
:1013700025BD2821212D27D0292D25D0650655D41E
:10138000DD436D0552D4640752D590F83D30448D4D
:10139000002C9BD01269446A2270426A521C42623D
:1013A000428D521E4285428D002A8FD12A2B8DD12B
:1013B0000268536823F4806353602222026380F83A
:1013C0003D1000F029FC81E7250623D4DD436D059F
:1013D00020D4640720D590F83D30448D002CF2D005
:1013E000446A24781461426A521C4262428D521E41
:1013F0004285428D002AE6D1292BE4D10268536848
:1014000023F4806353602122026380F83D1000F0D2
:1014100004FC5BE76107D6D4D9438905D3D4418D59
:101420000029D0D0416A097811610AE06107CAD465
:10143000D9438905C7D4418D0029C4D01169426AB6
:101440001170416A491C4162418D491E41853DE749
:101450007047000070B5040025D094F83D000025C9
:1014600020B984F83C50204600F058FB242084F832
:101470003D002068016821F00101016020680168D9
:1014800041F4004101602068016821F400410160DD
:1014900000F012FE4D4A6168914201D84C4900E0CB
:1014A0004C49884201D2012070BD4B492368B0FBF2
:1014B000F1F15E6826F03F060E435E60636893427A
:1014C00006D94FF4967359434FF47A73B1FBF3F195
:1014D0002368491C1E6A26F03F0631431962616881
:1014E000914210D84900401EB0FBF1F2521CC2F3E9
:1014F0000B02042A01D2042022E0B0FBF1F0401CD0
:10150000C0F30B001CE0A268F2B301EBC10303EBD4
:101510000116431EB3FBF6F35B1C43F480431B052B
:1015200049D092B301EBC10202EB0111401EB0FBA6
:10153000F1F0401CC0F30B0040F4804040F4004048
:101540002168CA694CF6FF739A431043C861D4E915
:10155000071001432068026822F0C00211430160B5
:10156000D4E9030101432068826848F2FF339A43BB
:1015700011438160D4E9050108432168CA6822F05B
:10158000FF021043C86001E00EE016E02068016829
:1015900041F0010101602564202084F83D002563AD
:1015A00084F83E50002070BD01EB4106431EB3FBA2
:1015B000F6F35B1CB3E70120C2E701EB4101401EDB
:1015C000B0FBF1F0401CC0F30B00B7E7A0860100B0
:1015D00080841E0000093D0040420F0070477047A4
:1015E0007047704700680449884204D10348006985
:1015F000002800D00047704700540040F000002051
:101600002DE9FF4F83B00025DDE910799A46934616
:101610000446DDF848800095FFF798FD064694F8EB
:101620003D0020287CD119230122884920460096BC
:1016300002F09EFC0028F5D194F83C0001286FD000
:10164000012084F83C0020680168C90703D10168C3
:1016500041F0010101602068016821F4006101602E
:10166000222084F83D00402084F83E002564676213
:10167000A4F82A90608D20857548E062CDE9008647
:1016800053465A462046049902F05AFA00287CD163
:10169000208DDFF8C091202768B1012814D00228DE
:1016A000206801681ED041F48061016020684169B2
:1016B00080690090BCE020684169816900910168FF
:1016C00041F400710160B3E02068016821F4806199
:1016D000016072B62068416981690091016841F436
:1016E00000710AE041F40061016072B6206841694E
:1016F00081690091016821F48061016062B697E020
:10170000032865D801280CD0022843464FF0000278
:101710004946204600960BD002F02AFCA8BB0CE0FC
:1017200091E032464146204602F0C8FC68BB72E0B8
:1017300002F01EFC48BB72B633E02068016821F459
:101740008061016072B620680069616A0870606A31
:10175000401C6062208D401E2085608D401E60858B
:101760003D4846F2A8110068B0FBF1F0C0EBC000A4
:1017700000EB80000090401E009007D02068406978
:10178000C04340070DD50098F5E727E044F8305FE7
:101790006773A573206940F02000206162B625734D
:1017A0001CE02068016841F4007101602068006954
:1017B000616A0870606A401C6062218D491E218543
:1017C000618D491E618562B621680969017026E054
:1017D00032464146204602F071FC18B1012007B0A4
:1017E000BDE8F08F20680069616A0870606A401C7B
:1017F0006062208D401E81B22185608D401E608513
:1018000020684269D243520712D4032903D10168E8
:1018100021F48061016020680069616A0870606A73
:10182000401C6062208D401E2085608D401E6085BA
:10183000208D00287FF464AF84F83D7084F83E501A
:1018400084F83C50CBE70220C9E7000002001000FA
:101850000000FFFF040001000C0000202DE9FF4FF5
:1018600083B09A46DDE9119793460446DDF840803F
:10187000FFF76CFC054694F83D0020287FD1192322
:10188000012240492046009502F072FB002876D1E3
:1018900094F83C00012872D0012084F83C002068B4
:1018A0000168C90703D1016841F0010101602068A6
:1018B000016821F400610160212084F83D0040208E
:1018C00084F83E0000262664C4F82480A4F82A90F8
:1018D000608D20852C48E062CDE9007553465A465C
:1018E0002046049902F0AAF970B930E02A46394638
:1018F000204602F01BFC58B1206C042804D120685B
:10190000016841F400710160012007B0BDE8F08F6B
:10191000606A216800780861606A401C6062218DFD
:10192000491E89B22185628D521E628522685369E3
:10193000DB435B070BD469B100781061606A401C1F
:101940006062208D401E2085608D401E6085208D48
:101950000028CBD12A463946204602F0DDFA00287D
:10196000CAD154F83D0B016841F400710160202098
:1019700004F81E09E67766770020C6E7FFE7022035
:10198000C3E70000020010000000FFFF2DE9FC5F2C
:101990000025984691468A460446DDF830B0009509
:1019A000FFF7D4FB074694F83D00202828D157487C
:1019B00046F2A81120260068B0FBF1F000EBC00150
:1019C00001EB001000900098401E009010D020689D
:1019D0008069C0438007F6D594F83C0001280FD0F9
:1019E000012084F83C0020680168C9070BD00EE094
:1019F00044F8305F6673A573206940F020002061D1
:101A00000220BDE8FC9F016841F0010101602068EF
:101A1000016821F400610160212084F83D0040202C
:101A200084F83E002564C4F824B00D986085608D6C
:101A300020853748E062C4F844A0C4F84890C4F850
:101A40004C802565208DE8B3606BF0B1314981622F
:101A5000616B31480863606BC562606B45632268E7
:101A6000238D1032616A606BFFF72CFAB0B184F8F5
:101A70003D6084F83E5054F8400F40F0100000BF25
:101A800044F8040925700120BBE784F83D6084F820
:101A90003E5054F8400F40F08000F1E72320CDE99C
:101AA000000743464A465146204602F0C7F898B11F
:101AB000606BFFF7DFF8606B85622068016821F4D6
:101AC000806100E019E00160258565852068016876
:101AD00021F001010160D6E7206841698169009128
:101AE00084F83C50416841F480714160206841684D
:101AF00041F400614160002083E784F83D6084F890
:101B00003E5054F8400F40F04000B9E70C00002070
:101B10000000FFFF03330008CD320008F0B585B0A8
:101B2000002500950195029503950646344F0268FD
:101B3000344C12200321344BBA423AD1A26942F00C
:101B40000802A261A269039102F008020492C02275
:101B5000CDE9002069461846FFF702FAE06940F433
:101B60000010E061E0692A4C00F40010049027485E
:101B700020601020C4E901058020C4E903056561E7
:101B8000A5612046E561FFF76FF908B1FFF74BF853
:101B90007463002205211F20666200F0D7F81F2021
:101BA00000F0C6F800220521202000F0CFF8202008
:101BB00021E0184DAA4220D1A26942F00802A26198
:101BC000A269039102F0080204924FF44062CDE949
:101BD000002069461846FFF7C3F9E06940F4800029
:101BE000E061E069002200F48000049011462120A9
:101BF00000F0ACF8212000F09BF805B0F0BD00002B
:101C00000054004000100240000C01406C000240F3
:101C1000FC0200200058004070477047024881686D
:101C2000027811448160704700000020074810B519
:101C3000016841F010010160032000F0A7F80F20B7
:101C400000F006F800F050F8002010BD002002401F
:101C500030B505461F4887B0C16941F00401C16134
:101C6000C06906A900F00400009001A800F004FA81
:101C70000498B0B100F020FA40001749174AB0FBB1
:101C8000F1F11748491E0260416040F2E73200213D
:101C9000C0E903218160816100F022FE040003D0CD
:101CA00015E000F009FAE8E70D4800F047FE0400EF
:101CB0000DD11E2000F03CF8102D07D2002229463D
:101CC0001E2000F043F80748056000E0012407B03B
:101CD000204630BD0010024040420F000008004086
:101CE00028040020040000200F4808B5816941F055
:101CF00001018161816901F001010091C16941F037
:101D00008051C161C069002200F0805000900F2115
:101D1000901E00F01BF80548416821F0E06141F099
:101D20000071416008BD0000001002400000014049
:101D3000002809DB00F01F020121914040098000CA
:101D400000F1E020C0F8001170470000F0B40E4B25
:101D50001B680C46C3F30223C3F10705042D00D909
:101D60000425191D072901D2002300E0DB1E0126EE
:101D700006FA05F1491E214099409E40761E164004
:101D80003143F0BC03F0DFBD0CED00E0064900F08C
:101D9000070208684FF6FF03184040EA0220034A92
:101DA00010430860704700000CED00E00000FA05E9
:101DB000014901200862704700000E4210B501463B
:101DC0000020234C012922D0022939D010291DD10D
:101DD00061682268D20119D51E48C1F38342C90344
:101DE000805C0AD561681B4AC1F34041921E515C78
:101DF000194AB2FBF1F1484301E0184948436168D0
:101E0000490203D440000321B0FBF1F010BD226A67
:101E1000C2F30121012903D1920701D5C80310BDE6
:101E2000022905D1626A920702D549F6404010BDE9
:101E30000329FCD121688903F9D54FF2244010BD54
:101E400000F04AF96168C1F38131491C4900DBE7C0
:101E50000010024090C3000800127A0000093D0003
:101E60002DE9F84305460078354CC00754D0E069A9
:101E70000026C00008D4E06940F08050E061E069CD
:101E8000012600F0805000902E480168C90512D448
:101E90000168804641F480710160FFF757F90746F9
:101EA00005E000BFFFF752F9C01B642823D8D8F81B
:101EB0000000C005F6D5206A10F4407021D0A98832
:101EC00001F4407181421CD0206A1F49012220F494
:101ED00040700A6000220A602062C00711D0FFF73C
:101EE00035F9074641F2883808E000BFFFF72EF9C0
:101EF000C11B414502D90320BDE8F883206A800751
:101F0000F4D5206A696820F44070084320621EB14D
:101F1000E06920F08050E0612878800705D560688E
:101F2000A96820F44040084360602878C00605D5C1
:101F30006068E96820F48000084360600020DBE707
:101F40000010024000700040400442422DE9F0477A
:101F50000F46050061D0434E306800F00700B842DC
:101F600009D2306820F0070038433060306800F054
:101F70000700B84251D128683B4C810712D5400771
:101F800003D5606840F4E06060602878000703D5FE
:101F9000606840F4605060606068A96820F0F000FC
:101FA000084360602878C00728D06868012810D0EE
:101FB0002168022810D0890700292EDA616821F0F3
:101FC000030101436160FFF7C1F8804641F288399F
:101FD0000DE021688903EFE78901EDE7FFF7B6F827
:101FE000A0EB0801494502D90320BDE8F0876068ED
:101FF000696800F00C00B0EB810FEFD1306800F0A1
:102000000700B8420BD9306820F007003843306031
:10201000306800F00700B84201D00120E5E72878D9
:10202000400705D56068E96820F4E0600843606017
:102030002878000706D56068296920F4605040EAD6
:10204000C100606000F058F86168084AC1F30311EC
:10205000515CC8400649086006480068FFF7F8FD73
:102060000020C2E70020024000100240A0C3000888
:102070000C000020040000200F2202600C4A53686C
:1020800003F003034360536803F0F0038360536875
:1020900003F4E063C36052684FF4E06303EAD202E2
:1020A00002610448006800F0070008607047000003
:1020B00000100240002002400448054900684968B9
:1020C000044AC1F30221515CC84070470C00002053
:1020D00000100240B0C30008044805490068496880
:1020E000044AC1F3C221515CC84070470C00002073
:1020F00000100240B0C300080E4A51680E4801F0BB
:102100000C03042B11D0082B0FD10C48C1F38343CF
:10211000C903C05C0AD55168084AC1F34041921E08
:10212000515C054A5043B0FBF1F070470449484305
:10213000704700000010024000127A007EC30008C1
:1021400000093D002DE9F84F040070D02078C04D03
:10215000C00749D06868C0F38100012807D06868CB
:10216000C0F38100022809D16868C00306D5286839
:10217000800339D560680028E7D035E06068B0F5A5
:10218000803F0BD010B1B0F5A02F11D0286820F4FB
:1021900080302860286820F4802002E0286840F41D
:1021A00080302860606890B1FEF7D0FF06460AE0F4
:1021B000286840F480202860F0E700BFFEF7C6FFE3
:1021C000801B642873D828688003F7D50CE0FEF7DD
:1021D000BDFF064605E000BFFEF7B8FF801B642880
:1021E000F0D828688003F7D420789A4E80074FF003
:1021F00001094FF0000839D5686810F00C0F07D0BE
:102200006868C0F38100022809D16868C00306D459
:102210002868800714D52069012808D110E02069BA
:10222000B0B1C6F80090FEF791FF074605E00AE15D
:10223000FEF78CFFC01B0228C4D828688007F7D59A
:102240002868616920F0F80040EAC10028600DE0CC
:10225000C6F80080FEF77AFF074604E0FEF776FF37
:10226000C01B022823D828688007F7D420780007ED
:102270002CD57948A169D9B1C0F80090FEF766FF66
:10228000074604E0FEF762FFC01B02280FD8686A09
:102290008007F7D571484FF4FA510068B0FBF1F0B0
:1022A000009000BF0098411E0091FAD20EE080E03D
:1022B000C0F80080FEF74AFF074604E0FEF746FF3D
:1022C000C01B022875D8686A8007F7D420784007B9
:1022D00060D5E8690027C00008D4E86940F0805064
:1022E000E861E869012700F0805000905C480168CF
:1022F000C90513D40168834641F480710160FEF77B
:1023000025FF824606E000BFFEF720FFA0EB0A0093
:1023100064284ED8DBF80000C005F5D5E068012838
:102320000AD008B1052813D0286A20F001002862DD
:10233000286A20F0040002E0286A40F001002862C8
:10234000E06841F2883B98B1FEF700FF82460BE05F
:10235000286A40F004002862EEE700BFFEF7F6FEB0
:10236000A0EB0A0159455AD8286A8007F6D50CE037
:10237000FEF7ECFE824605E0FEF7E8FEA0EB0A0160
:1023800059454CD8286A8007F6D41FB1E86920F077
:102390008050E861E06988B36968C1F3810102296E
:1023A00044D00228C6F8608004D0FEF7CFFE044671
:1023B00038E034E0FEF7CAFE074604E0FEF7C6FE4A
:1023C000C01B02282BD828688001F7D4206AB0F5FA
:1023D000803F05D16868A16820F400300843686038
:1023E000D4E908010843696821F47411084368605E
:1023F000C6F86090FEF7AAFE044606E025E000BF9E
:10240000FEF7A4FE001B022809D828688001F7D532
:102410001BE000BFFEF79AFE001B022802D9032032
:10242000BDE8F88F28688001F4D40EE00128F7D0C9
:102430006868226A00F48031914204D1616A00F434
:102440007010884201D00120EAE70020E8E7000090
:102450000010024000004242800442420C00002072
:1024600000700040024850F8210080B27047000020
:10247000006C0040024800EB810091B2016070479F
:10248000006C00407047704710B504460068016852
:10249000C90717D04168C90714D0406840072046D3
:1024A00007D5FFF7F0FF21686FF0040048600420B3
:1024B00002E0FFF7E7FF012060742068416821F027
:1024C0000101416010BDF8B505004FF0000016464F
:1024D0000C46009006D02CB100226946284600F038
:1024E00019F808B10120F8BD287B2070E87BE07066
:1024F000697B6170A97BA17056B102F01AFEE07091
:10250000607802F016FE6070A07802F012FEA070F3
:102510000020F8BD2DE9F04791460C465FEA00081F
:102520004AD084B3D8F800004068400744D44046FD
:1025300002F0A5FE4FF461620546B0FBF2F1B0FB7C
:10254000F2F302FB13503C23B0FBF3F0B5FBF2F6C1
:10255000607002FB1650B0FBF3F203FB1200A07098
:10256000182931D31820B1FBF0F7B1FBF0F200FBD2
:1025700012102070404602F07BFE411C04D0A8429D
:1025800002D9461B02E017E04FF0FF36A7EB071019
:1025900000EB4000C0EB001005EBC015294640469B
:1025A00002F0BCFE40B9701C01D0711900E0314648
:1025B000404602F09FFE10B10120BDE8F087394689
:1025C000404602F0C1FD00E02170B9F1000F0BD0D0
:1025D000207802F0AEFD2070607802F0AAFD6070F5
:1025E000A07802F0A6FDA0700020E6E770B5040018
:1025F00003D0607C002610B105E0012070BD267478
:10260000204600F03DF802206074204600F014F9E6
:10261000042550BB204602F0EEFD30BB2068416827
:1026200021F007014160A06820B11448016821F041
:10263000010101601148001F0168A26821F4607166
:10264000114301606068411C04D10120FFF7B6FB13
:1026500058B1401E2268C0F303419160216880B2E6
:10266000C860204602F0E2FD08B16574C5E7E67374
:1026700001206073A0736074002070BD306C004056
:1026800008B500680D49884217D1FFF791FB0C4847
:10269000C16941F00061C161C0690A4900F0006090
:1026A000009001200860002205210320FFF74EFB67
:1026B000BDE808400320FFF73BBB08BD00280040F1
:1026C000001002403C0442422DE9F0410D46040056
:1026D0003BD0C5B3207C01283AD04FF0010884F8E4
:1026E000108002206074E87872B302F019FDE07384
:1026F000687802F015FD6073A87802F011FDA073F0
:10270000C2B2617BE07B02F0CAFD207328702046D4
:1027100002F0B5FD4FF46161B0FBF1F1002518291D
:102720002DD91822B1FBF2F1A1EB011101EB41010E
:10273000C1EB011100EBC1163146204602F0EEFD5F
:102740000427C8B90BE000E004E00120BDE8F081F7
:102750000220FBE7E07368786073A878CFE7204633
:1027600002F086FD411C0AD0B04208D2064901445D
:10277000204602F0BFFD10B167742574E5E784F8C8
:10278000118025740020E1E7805101002DE9F0411E
:102790000D46040024D01DB3207C012823D04FF027
:1027A000010884F81080022060742878EAB102F0F1
:1027B000B7FC4FF4616100FB01F6687802F0B0FCF1
:1027C000C0EB001006EB8006A87802F0A9FC3518D3
:1027D0002946204602F0A2FD0026042710BB0FE088
:1027E0000120BDE8F0810220FBE74FF4616148431E
:1027F0006978C1EB011100EB8100A9784518E7E782
:102800002068416821F005014160204602F030FD5A
:10281000411C0AD0A84208D206490144204602F0D1
:1028200069FD10B167742674DAE784F811802674A4
:102830000020D6E78051010070B504000AD020685E
:10284000416821F008014160FEF780FC05464FF425
:102850007A7608E0012070BDFEF778FC401BB0429C
:1028600001D9032070BD206840680007F4D500201E
:1028700070BD70477047000070B590F83C20012A89
:1028800026D0012480F83C40022280F83D200368D5
:102890005A689D6822F070060A6832435A600D4BF0
:1028A00002689A4208D0B2F1804F05D00A4B9A4292
:1028B00002D00A4B9A4204D1496825F0800319439B
:1028C000916080F83D40002180F83C10084670BDC2
:1028D000022070BD002C01400004004000080040B0
:1028E00010B5040003D094F83D0010B107E00120BA
:1028F00010BD002084F83C00204600F01EF80220A5
:1029000084F83D00211D206802F07CFD012084F840
:10291000460084F83E0084F83F0084F8400084F8C4
:10292000410084F8420084F8430084F8440084F8AD
:10293000450084F83D00002010BD704790F83D1020
:10294000012901D001207047022180F83D10016863
:10295000CA6842F00102CA6000680B49884208D088
:10296000B0F1804F05D00949884202D00849884219
:1029700004D1816801F00701062903D0016841F004
:102980000101016000207047002C0140000400405C
:102990000008004070472DE9F04104460068C66811
:1029A00005694FF00007A90713D5B10711D5F91E26
:1029B000016101202077206880698007204602D0CD
:1029C000FFF7E8FF04E000F0A3F8204600F046F926
:1029D0002777680716D5700714D521686FF00400B3
:1029E0000861022020772068806910F4407F20462B
:1029F00002D0FFF7CFFF04E000F08AF8204600F095
:102A00002DF92777280715D5300713D521686FF0E2
:102A100008000861042020772068C06980072046EC
:102A200002D0FFF7B7FF04E000F072F8204600F094
:102A300015F92777E80616D5F00614D521686FF04A
:102A400010000861082020772068C06910F4407FDA
:102A5000204602D0FFF79EFF04E000F059F8204620
:102A600000F0FCF82777E80708D0F00706D02168C7
:102A70006FF001000861204600F078F9280608D5BB
:102A8000300606D521686FF0800008612046FFF708
:102A9000F0FE680608D5700606D521686FF0400084
:102AA0000861204600F06CF9A8060AD5B00608D5E2
:102AB00021686FF0200008612046BDE8F041FFF773
:102AC000D9BEBDE8F081000000B585B000210091BD
:102AD0000191029103910068B0F1804F11D10A4831
:102AE000816941F0040181618069694600F0040058
:102AF0000490042000900220019003900348FEF708
:102B00002FFA05B000BD000000100240000801408F
:102B1000704770B5044690F83C0000260D46012829
:102B20000FD0012084F83C006AB1042A1DD0082A85
:102B30002FD00C2A3FD00126002084F83C003046DC
:102B400070BD022070BD206802F0A6FC206881697B
:102B500041F0080181612068816921F004018161EF
:102B6000206881692A69114311E0206802F0BCFCE9
:102B70002068816941F4006181612068816921F4E4
:102B800080618161206881692A6941EA022181614D
:102B9000D2E7206802F0D4FC2068C16941F0080146
:102BA000C1612068C16921F00401C1612068C16967
:102BB0002A69114311E0206802F0EEFC2068C16927
:102BC00041F40061C1612068C16921F48061C16183
:102BD0002068C1692A6941EA0221C161ACE710B5E8
:102BE000040003D094F83D0010B107E0012010BDAF
:102BF000002084F83C00204600F01EF8022084F8F3
:102C00003D00211D206802F0FDFB012084F84600F4
:102C100084F83E0084F83F0084F8400084F84100C6
:102C200084F8420084F8430084F8440084F84500A6
:102C300084F83D00002010BD08B50068B0F1804F59
:102C400008D10548C16941F00101C161C06900F0C6
:102C50000100009008BD0000001002407047000015
:102C600010B50446022249B104290ED0082913D018
:102C700094F84100012816D0012010BD94F83E00C0
:102C80000128F9D184F83E200FE094F83F00012894
:102C9000F2D184F83F2008E094F840000128EBD1FD
:102CA00084F8402001E084F841200122206802F0ED
:102CB000E5FB0F492068884203D1426C42F4004290
:102CC00042642068884208D0B0F1804F05D009499D
:102CD000884202D00849884204D1816801F0070186
:102CE000062903D0016841F001010160002010BDF8
:102CF000002C0140000400400008004030B50446AC
:102D00000D460068002202F0B9FB174B41F2111189
:102D100020688A10984209D1036A0B4206D1036ADF
:102D2000134203D1436C23F4004343642068036AD5
:102D30000B4206D1016A114203D1016821F0010161
:102D4000016001203DB1042D08D0082D09D084F880
:102D50004100002030BD84F83E00FAE784F83F00CF
:102D6000F7E784F84000F4E7002C014000680349CD
:102D7000884201D1FEF752BF7047000000080040B2
:102D80007047704770470000F8B50168044608684E
:102D9000CA684B6910F00F0F4FF0000559D003F0CF
:102DA000010602F49077374365D0C10705D0D105FD
:102DB00003D5616C41F001016164410705D5D90774
:102DC00003D0616C41F002016164810705D5D90728
:102DD00003D0616C41F004016164010707D502F082
:102DE0002001314303D0616C41F008016164616CE2
:102DF00000293AD0800604D5900602D5204602F07C
:102E000075FC20684069616CC0F38010090700D42C
:102E100060B3204602F035FC20684069400621D5A9
:102E20002068143050E8001F21F0400140E80012F3
:102E3000002AF5D1E06BA8B16D494163E06BFDF765
:102E400019FF002811D0E06B416B01B0BDE8F040E4
:102E5000084783060FD593060DD52046BDE8F840F8
:102E600002F044BC2046FFF78DFFF8BD2046FFF777
:102E700089FF6564F8BD266B2023012E7CD1C60630
:102E80007AD5D60678D508684868009048694FF02A
:102E90000206400640D5E16B086840680004000C5B
:102EA000E8D0A28D8242E5D9E085886920282DD01E
:102EB00020680C3050E8001F21F4807140E80012B7
:102EC000002AF5D12068143050E8001F21F00101DC
:102ED00040E80012002AF5D12068143050E8001FA5
:102EE00021F0400140E80012002AF5D184F8423078
:102EF000256320680C3050E8001F21F0100140E8E5
:102F00000012002AF5D1E06BFDF790FE6663A08DFC
:102F1000E18D401A81B22AE0A08DE18D401A81B284
:102F2000E08D0028A6D00029A4D022680C3252E8F7
:102F3000000F20F4907042E80007002FF5D12068C0
:102F4000143050E8002F22F0010240E80027002F43
:102F5000F5D184F84230256320680C3050E8002F0A
:102F600022F0100240E80023002BF5D166632046D2
:102F7000FFF707FFF8BDFFE705062BD5150629D596
:102F800094F841002128F5D1A068B0F5805F01D107
:102F90002069B0B1206A411C216221680078486034
:102FA000E08C401E0004000CE084E3D12068C1687E
:102FB00021F08001C1602068C16841F04001C1601A
:102FC000D8E7206A0088C0F308004860206A801CA7
:102FD0002062E5E74006CDD55006CBD5CA6820462D
:102FE00022F04002CA6084F8413000F0CBF8C1E71B
:102FF000DD55000870B5040004D094F841000025A8
:1030000010B106E0012070BD84F84050204600F069
:1030100023F8242084F841002068C16821F400517D
:10302000C160204602F0C4FB2068016921F4904190
:1030300001612068416921F02A0141612068C1686D
:1030400041F40051C1606564202084F8410084F897
:1030500042006563002070BD70B586B0002506464D
:1030600000950195029503950068224988423FD159
:103070002149886940F480408861886900F4804073
:103080000490886940F00400886188691B4C00F056
:103090000400049048150090022001900320039042
:1030A00069462046FDF75CFF2015CDE9000569461D
:1030B00020460295FDF754FF124C11482060102065
:1030C000C4E901058020C4E903056561A5612046C6
:1030D000E561FDF7C9FE08B1FDF7A5FDB463002267
:1030E000052125206662FEF731FE2520FEF720FE31
:1030F00006B070BD003801400010024000080140D9
:1031000044000240E40300207047000070B504460C
:1031100090F84100202801D0022070BD49B342B38D
:103120002162A284E28400206064212384F841307B
:10313000A56B114BAB62A56B104BEB62A56B104BF3
:103140002B63A36B5863256813462A1DA06BFDF7FC
:10315000B9FE21686FF0400008602068143050E824
:10316000001F41F0800140E80012002AF5D1002044
:1031700070BD012070BD0000375600087956000868
:10318000ED5500087CB500680D49884216D1002530
:1031900001A80C4CCDE90005A2690323294620694A
:1031A00005F0C0FDA5610198002807D006494FF041
:1031B00080500860BFF34F8FBFF36F8F7CBD00005E
:1031C000003801408C00002004ED00E07047000052
:1031D0000148FDF7C3BF0000540200200148FEF77C
:1031E0001FB800005402002000487047F000002083
:1031F0000149086170470000F00000200148FEF717
:103200000FB80000A8020020004870470801002005
:1032100038B5406A002190F83D202B4B46F2A814A7
:103220001B68B3FBF4F3C3EBC30303EB830300930B
:103230003BB15B1E009303681B689B0505D5009B93
:10324000F6E7036C43F020030364436B03B1996218
:10325000836B03B1996203681C6824F480641C606A
:103260004185436B03B15963836B03B159630368B1
:103270001C6824F001041C6090F83D402023602C61
:103280000BD0282434EA02020FD080F83D3080F8B9
:103290003E1000BFFEF7DCF838BD80F83D3080F806
:1032A0003E100164FDF758FF38BD0268136843F013
:1032B000010313600268136843F4806313600163C1
:1032C00080F83D40E6E700000C00002010B5406AA1
:1032D0000021426B02B19162826B02B1916202687D
:1032E000136823F4806313604185202280F83D2019
:1032F00080F83E10016C41F010010164FEF7A8F85F
:1033000010BD2DE9F041446A94F83D2094F83E50F8
:10331000E16A2068436823F440734360636B0020D4
:1033200003B19862A36B03B19862212333EA0207C9
:103330004FF022060CD036EA020701D1202D07D02B
:1033400094F83E20002A21D0628D012A20D024E06A
:1033500021684D6825F400654D6060852820292A84
:1033600002D02A2A07D00CE0236384F83D002046CF
:10337000FEF753FC05E0266384F83D002046FEF787
:103380004BFC2068416841F440714160BDE8F08128
:103390002268136823F4806313602268536823F45F
:1033A0004073536011F5803F06D0082904D0B1F175
:1033B0002A4F01D0202904D12268136843F40073F6
:1033C00013602268536823F4805353602268536863
:1033D00023F4006353606085226C1AB12046FEF727
:1033E00037F8D3E7202284F83D2094F83E2084F873
:1033F0003E00402A09D0082902D0202900D01220FE
:1034000020632046FEF7EBF8C0E720632046FEF776
:10341000E8F8BBE700684169C943090601D4002107
:103420000161704770B5044690F83D0094F83E1075
:10343000102901D0402906D1222804D121680A6828
:1034400022F400620A60282131EA00024FF00005F0
:103450004FF0200626D021684968090505D4602868
:1034600003D084F83D6084F83E50256320684168AD
:10347000090537D5416821F400614160606B90F81F
:1034800021203C49012A11D04163606BFDF7F2FB1A
:1034900038B32068016821F00101016084F83D60C3
:1034A000606B1CE0256384F83D10DFE7A06B41638F
:1034B000A06BFDF7DFFBA0B120684169C943490655
:1034C00005D40069616A0870606A401C6062206807
:1034D000016821F00101016084F83D60A06B416B3F
:1034E000884710E094F83D10602910D04169C94325
:1034F000490605D40069616A0870606A401C606210
:103500002046FDF7A5FF206CC1071CD115E084F80B
:103510003D6025644169C943490605D40069616A73
:103520000870606A401C60622068016821F0010137
:1035300001602046FDF710FEE5E7810703D441074F
:1035400001D4000704D52068416821F4E06141609E
:1035500094F83D00216C49070BD5282809D106486D
:10356000E062256384F83D6084F83E502046FEF713
:1035700035F870BD113200080000FFFF01684A698C
:10358000D24352050FD46FF480624A61002140F8A3
:10359000301F202242738173026942F004020261EB
:1035A0000173012070470020704710B5C26A438D37
:1035B0000168042B06D0438D032B08D0438D022BCA
:1035C0001DD012E04A6822F480624A600CE04B6829
:1035D00023F480634B60042A06D0022A04D00168D9
:1035E0000A6822F480620A6001680969426A1170FF
:1035F000416A491C4162418D491E418510BD012A25
:1036000034D0102A32D0042A34D0022A32D00B68A7
:1036100043F400730B6001680969436A1970416AD9
:10362000491C4162438D5B1E438503681B690B7017
:10363000416A491C4162418D491E418501684B68C0
:1036400023F440734B60202180F83D1090F83E3009
:103650000021402B80F83E1010D0082A02D0202AEA
:1036600000D012210163FDF7BAFF10BD0B6823F4EF
:103670008063CFE70B6843F48063CBE70163FDF71A
:10368000B0FF10BD38B590F83D10222910D1C36AA3
:10369000418D03290DD901680969426A1170416A97
:1036A000491C4162418D491E4185418D032906D047
:1036B00038BDC26A022A02D0012906D029B10068A9
:1036C000416821F48061416038BD2A4A46F2A8145D
:1036D00000211268B2FBF4F202EB8202009202684F
:1036E0002024009D6D1E009526D01568AD05F8D4E8
:1036F000156825F4806515600268556825F4E06555
:10370000556002681269456A2A70426A521C426218
:10371000428D521E428580F83D4090F83E2080F850
:103720003E10402A21D0082B02D0202B00D012219D
:103730000163FDF754FF38BD036C43F020030364BD
:10374000536823F4E063536002681269436A1A7095
:10375000426A521C4262428D521E428580F83D40B0
:1037600080F83E10FDF774FE38BD0163FDF739FFA8
:1037700038BD00000C00002010B5C26A90F83D1062
:1037800021290BD1418D51B1416A0268097811613B
:10379000416A491C4162418D491E418510BD20236B
:1037A0000021082A13D0202A11D012F5803F0ED014
:1037B0000268546824F4E06454601122026380F8C3
:1037C0003E1080F83D3000BFFDF70AFF10BD0268D3
:1037D000546824F4E06454600268146844F400748B
:1037E0001460016380F83D3090F83E2080F83E1070
:1037F000402AE9D1FDF7F6FE10BD000010B590F8A3
:103800003D1090F83E30C26A048DB4B1212903D036
:10381000402B11D122290FD1418DE1B390F83E10F8
:10382000402942D0416A026809781161416A491C05
:103830004162418D491E418510BD2129E8D12023D7
:103840000021082A13D0202A11D012F5803F0ED073
:103850000268546824F4E06454601122026380F822
:103860003E1080F83D3000BFFDF7BAFE10BD026883
:10387000546824F4E06454600268146844F40074EA
:103880001460016380F83D3090F83E2080F83E10CF
:10389000402AE9D100E002E0FDF7A4FE10BD006877
:1038A000416821F48061416010BDBDE8104000F026
:1038B000F3B8000078B590F83E50C26A046B90F8F7
:1038C0003D6000230168222E73D1066D0EB9402D94
:1038D0006FD0056D1DB90569B5F5404F1BD0458DFD
:1038E00095B3468D484D012E20D0448D022C4DD0ED
:1038F0000C6844F480640C6001684C68240579D538
:10390000AA4273D0012A71D0082A6FD0102A6DD034
:10391000202A6BD06EE04A698A6900920A6842F4F4
:1039200080720A60016D491C016578BDAA4214D1FC
:103930000A6822F480620A6001684A68120504D5A8
:103940000A6822F4806217E0FFE74A698A690092F8
:103950000A6842F400720A6050E0082A10D0202A57
:103960000ED0122C0AD0042A03D0022A01D0102A29
:10397000E6D10A6842F480620A603BE0012ADFD0A7
:103980000A6822F480620A600168DEE7042A11D026
:10399000022A0FD0102A0DD00C6844F400640C6089
:1039A00001684C698C6900940C6824F480640C6094
:1039B00008E025E00C6844F480640C6001684C6900
:1039C0008969009101684C68240517D5AA4207D07F
:1039D000012A05D0082A03D0102A01D0202A0DD1AF
:1039E0004A6842F480524A6008E0FFE74A6842F4BD
:1039F00080524A6001684A6989690091036578BD0F
:103A000048698869009078BD0000FFFF90F83E107B
:103A1000402910D00169B1F5804F19D0016DA9B3CB
:103A2000016D012910D1416C5FF0F10201F4407188
:103A300042EAD11106E0016D0029416C05D0C9B2FE
:103A400041F0010100680161704701F0FE01F9E7F2
:103A500090F83D102129416C09D0C9B241F0010113
:103A600002681161416B29B1896A49B902E001F02C
:103A7000FE01F5E7816B0029E6D0896A0029E3D0D1
:103A80000068416841F4006141607047FFE7416CA4
:103A9000F02201F44071CBE710B590F83D10026DB3
:103AA0004AB1026D012A14D0026D022A16D0BDE877
:103AB0001040FFF7AFBCC16C0129816C02D0C1F38B
:103AC000072108E00268C9B21161016D891C016516
:103AD00010BD816CC9B20268116123E022291CD09B
:103AE000428D0AB1212920D0428D002AF0D121290E
:103AF000EED101684A6822F4E0624A6001680A680F
:103B000042F400720A6000210163202280F83D2007
:103B100080F83E10FDF766FD10BD01680A6842F4AA
:103B200080720A60016D491CD1E7416A0268097818
:103B30001161416A491C4162418D491E418510BD98
:103B40002DE9F84F0446006889460B9D01689846A8
:103B5000174641F4806101602068016841F480717A
:103B6000016000954FF0011B0022594620460A9B38
:103B700000F0FEF94FF4007A40B120680068C005FB
:103B800001D5C4F840A00320BDE8F88F216809F0F2
:103B9000FE0008612B46284920460A9A00F030FAB8
:103BA000F0BB20684169806900902A4620460A9946
:103BB00000F0BCFA40B1206C04283AD120680168BA
:103BC00041F40071016034E0FEB2B8F1010F09D098
:103BD0002168380A08612A4620460A9900F0A6FAA8
:103BE0000028E8D1206806612A4620460A9900F09C
:103BF0009DFA0028DFD12068016841F480710160DE
:103C000000950022594620460A9B00F0B1F9002891
:103C1000B3D1216809F0FF0040F00100086100E025
:103C200007E02B46044920460A9A00F0E9F90028EB
:103C3000AAD00120A8E70000020001002DE9F84306
:103C4000044600680D46DDE9089701689846164667
:103C500041F4807101604B4600224FF00111204673
:103C6000009700F085F948B120680068C00502D5CA
:103C70004FF4007020640320BDE8F883216805F04C
:103C8000FE0008613B464A461549204600F0B8F957
:103C900088B920684169806900903A4649462046C3
:103CA00000F044FA48B1206C042804D1206801686F
:103CB00041F4007101600120DEE7F5B2B8F1010FB7
:103CC00009D02168300A08613A464946204600F08A
:103CD0002DFA0028E7D1206805610020CCE700001C
:103CE0000200010038B50C4690F83D20002128253F
:103CF000954302680B4605D051699169009180F89F
:103D00003C3038BD556825F480655560E243540762
:103D100000D50121120601D5828900E0028B80F8CE
:103D20003C3092B2FDF719FA38BD00002DE9F041A0
:103D300090F83D300446C26A002120261E4F0068DC
:103D40006FF48065082A01D0202A01D1282B04D0E5
:103D5000212B17D04561BDE8F081E762426822F46B
:103D6000E0624260206845612068026822F4806257
:103D70000260216384F83D6084F83E102046FDF720
:103D80002DFCE8E7E7622122226384F83D6084F895
:103D90003E10416821F4E06141602068456120687F
:103DA000016821F4806101602046FFF733FB204663
:103DB000FDF733FFCFE700000000FFFFF8B590F8F4
:103DC0003D6004460068416821F4E061416020687C
:103DD000002541690091016841F0010101602068FE
:103DE000016821F48061016020684168090520D5DF
:103DF000474F222E48D02A2E46D0616B0968496869
:103E00006185618D19B1216C41F004012164416823
:103E100021F400614160606BFCF778FF012808D055
:103E2000606B4763606BFCF725FF10B1606B416B03
:103E30008847608D08B320684169C943490708D4A1
:103E40000069616A0870606A401C6062608D401E93
:103E5000608520684169C943490608D40069616AE0
:103E60000870606A401C6062608D401E6085608DD5
:103E700018B1206C40F004002064206C00B3204690
:103E8000BDE8F840FFF7CEBAA16B096849686185C3
:103E9000618D19B1216C41F004012164416821F464
:103EA00000614160A06BFCF731FF0128C1D0A06B1D
:103EB0004763A06BFCF7DEFE0028BAD0A06BB6E724
:103EC0002A2E06D12563282084F83D002046FDF7E0
:103ED000A3FE94F83D10202028290DD0216B222923
:103EE00001D0222E07D1256384F83D0084F83E508E
:103EF0002046FDF791FEF8BD0649E162256384F88E
:103F00003D0084F83E502046FDF768FBF8BD0000F8
:103F1000113200080000FFFF70B516460D4604463A
:103F20001EE02046FFF72AFB08B1012070BD681C87
:103F300016D0FDF70BF9801BA84200D885B9206880
:103F40004069C04340070BD5002044F8300F2021C2
:103F50006173A073216941F0200121612073E4E7BE
:103F600020684069C0434007DBD4002070BD0000DA
:103F70002DE9F047984617460D460446C1F307461B
:103F8000DDF820902AE000BFB8F1FF3F26D0FDF712
:103F9000DDF8A0EB0901414502D8B8F1000F1DD1B1
:103FA0002068012E16D0806925EA00000004000C6C
:103FB00012D00020B84211D1002044F8300F202147
:103FC0006173A073216941F02001216120730120F8
:103FD000BDE8F0874069E7E70120EBE72068012EA4
:103FE0000AD0806925EA00000004000C06D00020F9
:103FF000B842C9D00020EBE74069F3E70120F7E7BA
:104000002DE9F047984616460D4604464FF0000944
:104010004FF0200AC1F3074723E020684069C043FE
:10402000400515D42068016841F4007101602168E1
:104030006FF480604861C4F8309084F83DA084F843
:104040003E90216C41F00401216484F83C9021E011
:10405000701C06D0FDF77AF8A0EB0800B04203D838
:1040600016B1012F1FD021E02068012F15D08069E3
:1040700025EA00000004000C18D000BF44F8309F6F
:1040800084F80DA084F80E90216941F0200121618F
:1040900084F80C900120BDE8F087406925EA000013
:1040A0000004000CEAD12068406901E020688069C2
:1040B00025EA00000004000CAFD1ECE72DE9F04147
:1040C000002590460E460446202728E04069C0435C
:1040D000C0060CD454F8301B6FF01000486144F84F
:1040E00010596777A577206A2062257714E0FDF7DD
:1040F0002DF8A0EB0800B04200D886B920684069CE
:10410000C04340060BD544F8305F6773A573206940
:1041100040F02000206125730120BDE8F081206877
:104120004169C9434906D1D40020F6E770B5164667
:104130000D4604461EE02046FFF720FA08B1012094
:1041400070BD681C16D0FDF701F8801BA84200D88E
:1041500085B920684069C04300060BD5002044F8AB
:10416000300F20216173A073216941F0200121618A
:104170002073E4E720684069C0430006DBD40020D8
:1041800070BD000010B525A22AA1032004F0E2F9B9
:10419000FFF73AF8294908600068804728A225A15E
:1041A000032004F0D7F980216B2000F061F964202E
:1041B00004F0B6FD00216B2000F05AF918211B20F5
:1041C00000F056F900211C2000F052F913211920AB
:1041D00000F04EF904211A2000F04AF900216C2069
:1041E00000F046F928216B2000F042F987216C206D
:1041F00000F03EF98021372000F03AF90121382003
:1042000000F036F9752000F0C1F80346BDE8104013
:1042100011A208A1032004F09DB900004D505536AD
:1042200030353020496E69742073746172742E2E9B
:104230002E0000004D50553630353000B4000020BF
:104240004D50553630353020496E697420636F6D9E
:10425000706C6574652E00004D5055363035302039
:1042600057484F5F414D5F493A20307825303258EA
:10427000000000001CB504460020009001900622BA
:1042800069463B2000F032F830B10AA211A10220A9
:1042900004F060F904201CBDBDF8000040BA208085
:1042A000BDF8020040BA6080BDF8040040BAA080AA
:1042B00000201CBD4D5055363035302052656164AC
:1042C00020416363656C2044617461204661696CC0
:1042D000656400004D5055363035300010B53A2039
:1042E00000F054F800F0010010BD00002DE9FE437D
:1042F00001241646894680460325134F13E038688B
:1043000033464A46846841466820A04704000AD0E4
:10431000C5F103000096CDE9014043460B4A0CA1CC
:10432000022004F017F96D1EEDB202D3002CE6D185
:1043300007E034B1434608A205A10120009604F02D
:1043400009F92046BDE8FE83B4000020ACDD00087A
:104350004D505536303530004D50553630353020C3
:104360005265616420427566666572204661696CBB
:1043700065643A2052656720307825303258203DF8
:104380003E205B6C656E3D25645D000038B50446DB
:1043900001226946FFF7AAFF28B1234603A20BA119
:1043A000012004F0D7F89DF8000038BD4D50553677
:1043B0003035302052656164204661696C65643A2D
:1043C0002052656720307825303258004D505536E0
:1043D000303530002DE9FE430124164689468046DB
:1043E0000325134F13E0386833464A464468414674
:1043F0006820A04704000AD0C5F103000096CDE96B
:10440000014043460B4A0C49022004F0A3F86D1EFC
:10441000EDB202D3002CE6D107E034B1434607A247
:1044200005490120009604F095F82046BDE8FE837A
:10443000B400002068DD0008C44400084D50553623
:104440003035302057726974652042756666657232
:10445000204661696C65643A205265672030782592
:10446000303258203C3D205B6C656E3D25645D001C
:104470007CB50C468DF804100546012201A9FFF712
:10448000A9FF002806D02B4603A20EA1012000940C
:1044900004F060F87CBD00004D50553630353020BA
:1044A0005772697465204661696C65643A2052658B
:1044B0006720307825303258203C3D203078253038
:1044C000325800004D505536303530000D4808B593
:1044D000416941F0010141614069002200F00100A1
:1044E000009005210E20FDF731FC0E20FDF720FC89
:1044F000002205211020FDF729FCBDE8084010200E
:10450000FDF716BC0010024000B585B000200390F6
:104510001A48816941F010018161816901F010013F
:104520000491816941F020018161816901F02001DC
:104530000491816941F004018161816901F0040104
:104540000491816941F0080181618069694600F048
:104550000800049051200090094801900120029029
:104560000848FCF7FDFC002205210620FDF7EEFBC4
:104570000620FDF7DDFB05B000BD00000010024085
:1045800000002110000801400D4810B50B490160E2
:104590000C49416000214FF480428160C0E9031260
:1045A00041618161C1610162FCF754FF002803D0C1
:1045B000BDE81040FCF737BB10BD000000540040C0
:1045C00054020020801A06000D4810B50B49016006
:1045D0000C49416000214FF480428160C0E9031220
:1045E00041618161C1610162FCF734FF002803D0A1
:1045F000BDE81040FCF717BB10BD0000005800409C
:10460000A8020020801A06007CB5002437480194D7
:10461000354900940160611EC0E90114FDF7E6FF11
:1046200008B1FCF700FB01213048FDF71BFF45F600
:10463000A52290423AD001212C48FDF71BFF2325EB
:104640008DF8045059208DF805008DF806400122A0
:1046500001A92648FEF79AF808B1FCF7E4FA04200D
:104660008DF800008DF801008DF8025026208DF89D
:104670000300012269461D48FEF726F808B1FCF741
:10468000D2FA9DF801009DF8031040EA01220221B0
:104690001648FDF7EFFE9DF800009DF8021040EA75
:1046A000012203211148FDF7E5FE7CBD02210F48E0
:1046B000FDF7D8FE044603210C48FDF7D3FE210A7E
:1046C0008DF803108DF80140010A8DF802108DF865
:1046D0000000002269460548FDF7F6FF0028E4D0F7
:1046E000FCF7A1FA7CBD0000002800404003002038
:1046F00010B58AB0002407941C2168460894FBF783
:10470000C1FD16484FF0804101604721C0E9011406
:1047100040F2E731C0E9031480218161FEF75FFABE
:1047200008B1FCF780FA079407A90C480894FEF733
:10473000A3F808B1FCF777FA6020CDE900040294F1
:104740000822694605480494FEF7E3F908B1FCF72E
:104750006AFA0248FEF7B8F90AB010BD5403002007
:104760000C4810B50A4901604FF4E1314160002165
:1047700081600C22C160C0E904128161C161FEF751
:1047800039FC002803D0BDE81040FCF74CBA10BD3E
:10479000003801409C030020FBF7B2FCFEE7FEE777
:1047A0004FF480610148FBF76DBD0000042E00202E
:1047B000F0B50B4424E0044685181DE07F2C19D881
:1047C000002917DB3F2915DCCE1701EB56764FEA9F
:1047D000E60C0D4F26F0070607EBCC172744A1EB9C
:1047E000060E97F800C0012606FA0EF62CEA060C13
:1047F00087F800C0641C24B2A542DFDC491C09B262
:104800008B42D8DCF0BD0000042E002008B500204B
:1048100000900C486946406804F0EAF930B90AA2F1
:1048200014A1012003F096FEFCF7FDF90098002882
:1048300007D012494FF080500860BFF34F8FBFF38D
:104840006F8F08BDAC0000204661696C6564207400
:104850006F20676976652049324320444D412073BB
:10486000656D6170686F72652066726F6D20495367
:10487000520000004F4C45440000000004ED00E0F1
:104880002DE9FF4F804687B0C2F101001446039026
:104890000D46081901B200264746404600F004F9CB
:1048A000281B01B2384600F0FFF808EB040000B204
:1048B000294600F0F9F8A8EB040000B2294600F000
:1048C000F3F80A98002875D0674206E0E81901B2AB
:1048D000404600F0E9F87F1C3FB2A742F6DB69E0F2
:1048E000761C039836B2002802DA00EB460004E09A
:1048F000641E24B2311B00EB4100401C00B2039047
:10490000281901B208EB060000B281460291069018
:1049100000F0CAF8A81901B208EB040000B28346FF
:10492000059100F0C1F8281B01B2A8EB060000B207
:104930000F460190009000F0B7F8A81B01B2A8EB59
:10494000040000B28246049100F0AEF839464846B1
:1049500000F0AAF85846049900F0A6F802990098C9
:1049600000F0A2F85046059900F09EF80A9808B3A6
:10497000604207B20BE0E81901B28946069800F0E0
:1049800093F84946019800F08FF87F1C3FB2A74288
:10499000F1DB704207B20BE0E81901B289465046DC
:1049A00000F082F84946584600F07EF87F1C3FB27E
:1049B000B742F1DBA64293DB0BB0BDE8F08F2DE9E7
:1049C000F04F1E464FF0000904460D461746C846F4
:1049D000B1420ED1BC4208DD2746144605E0294607
:1049E000204600F061F8641C24B2BC42F7DDBDE84B
:1049F000F08FBC420DD1B54208DD1D460E4605E0E4
:104A00002946204600F050F86D1C2DB2B542F7DD66
:104A1000EDE703DD274614461D460E46B54205DD8B
:104A2000684205B2704206B24FF00109701B391B93
:104A3000884207DD20462C4605463846374606465E
:104A40004FF00108701B4200391B0FFA82FB421A1B
:104A500052000FFA82FAC1EB400019E0604201B245
:104A600003E0684201B203E02146284601E02946FE
:104A7000204600F019F8BC42B9DA641C24B2002EBA
:104A800002DA06EB0B0003E06D1C2DB206EB0A0008
:104A900006B2B9F1000F03D0B8F1000FE1D0DDE7A5
:104AA000B8F1000FE3D0DFE710B57F2813D8002955
:104AB00011DB3F290FDCCA1701EB5272D410064BF1
:104AC00022F0070203EBC41318448A1A0378012169
:104AD00091400B43037010BD042E00202DE9F043DC
:104AE0000446CD1807988846A618274668BB681E56
:104AF0000FFA80F909E041463846FFF7D5FF4946ED
:104B00003846FFF7D1FF7F1C3FB2BE42F3DC761E72
:104B1000474636B209E039462046FFF7C5FF304622
:104B20003946FFF7C1FF7F1C3FB2BD42F3DCBDE851
:104B3000F083444605E021463846FFF7B5FF641C84
:104B400024B2A542F7DC7F1C3FB2BE42F1DCEEE7A7
:104B500010B53FA243A1032003F0FCFC43A241A1F6
:104B6000032003F0F7FCFEF73FFB4A4C206008B936
:104B7000FCF759F80021012003F0E4FF606008B958
:104B8000FCF751F84448FEF733FB44A235A103205B
:104B900003F0E0FC20680068804748A231A10320B0
:104BA00003F0D8FCAE2000F025FAD52000F022FA60
:104BB000802000F01FFAA82000F01CFA3F2000F02F
:104BC00019FAD32000F016FA002000F013FA402062
:104BD00000F010FA8D2000F00DFA142000F00AFA0F
:104BE000202000F007FA002000F004FAA12000F0D5
:104BF00001FAC82000F0FEF9DA2000F0FBF91220DB
:104C000000F0F8F9812000F0F5F9CF2000F0F2F97A
:104C1000D92000F0EFF9F12000F0ECF9DB2000F0F2
:104C2000E9F9402000F0E6F9A42000F0E3F9A6201D
:104C300000F0E0F9AF2000F0DDF9FFF7B1FD00F082
:104C400091F9BDE8104026A206A1032003F082BC22
:104C50004F4C454420496E69742073746172742E00
:104C60002E2E00004F4C4544000000005573696E25
:104C70006720686172647761726520493243312030
:104C8000285042363D53434C2C205042373D53442C
:104C900041290000AC0000200D480008496E6974ED
:104CA00069616C697A696E67204932432073756265
:104CB00073797374656D2E2E2E00000049324331D6
:104CC00020696E697469616C697A65642028504254
:104CD000363D53434C2C205042373D53444129002C
:104CE0004F4C454420496E697420636F6D706C654C
:104CF00074650000F0B50B4423E0044685181CE001
:104D00007F2C18D8002916DB3F2914DCCE1701EBC5
:104D1000567C4FEAEC070C4E2CF0070C06EBC7163E
:104D20002644A1EB0C0E37784FF0010C0CFA0EFC68
:104D300087EA0C073770641C24B2A542E0DC491CEA
:104D400009B28B42D9DCF0BD042E002010B50C4610
:104D500040F0B00000F04EF9102040EA141000F0CE
:104D600049F904F00F00BDE8104000F043B900001D
:104D700008B5082B0ED0062B15D00C2B1ED1104BCE
:104D800002EBC20203EB8202A2F5906218230092AA
:104D90000C2211E00B4B03EB0212A2F50072102360
:104DA0000092082208E0084B02EB420203EB4202A9
:104DB000C03A00920823062200F008F808BD00005F
:104DC000E2CB0008B8C30008A8C900082DE9F04FDD
:104DD0001F4616460D4682460024FFF7E9FC7F1E5B
:104DE000F81707EB50700121DFF898B001EBE007EE
:104DF00043E000203DE000BF0AEB00037F2B36D8E4
:104E0000E91705EB5171CA1021F00701691A002D4D
:104E100003DA521E083112B209B202EB0409B9F1E9
:104E2000070F0ED8099A04FB06F802440BEBC91EC3
:104E300018F802201EF803C08A404CEA020C0EF853
:104E400003C009F10102072A11D80BEBC91202EBCA
:104E50000308099A04FB06FC024498F880301CF809
:104E60000220C1F10801CA40134388F88030401C79
:104E7000C0B2B042C0D3641CE4B2A742B9DCBDE802
:104E8000F08F0000042E00202DE9FF4F002583B095
:104E90009B4690462C46AA46DFF8C09056E0100686
:104EA0008DF8042005F101050DD40398ADB220441E
:104EB0008DF805A000B25B460499FFF759FF04EB9B
:104EC0000B0084B242E0A8B218F80010002941D0CB
:104ED000401C8DF8051085B28DF806A0002606E06E
:104EE000384601A9FBF7D9F968B1761CB6B2C6EB12
:104EF000C60000EB800101EB0900074618A1FBF793
:104F0000CCF90028ECD1BBF1080F03D0BBF1060FA0
:104F10001CD111E0C6EBC60000EB800101EB0900DB
:104F2000C01C009003981023204400B21A46049934
:104F3000FFF74CFF103408E003980623204400B22A
:104F40003F220499FFF714FFA41DA4B218F805200E
:104F5000002AA4D107B0BDE8F08F00003ED90008B8
:104F60000000000070B503F039FD094D0024002158
:104F70002046FFF7EBFE05EBC410802100F09AF805
:104F8000641CE4B2082CF2D3BDE8704003F026BDE7
:104F9000042E00202DE9F0410646C81701EB5070A1
:104FA000C410C8189046401EC21700EB5270012270
:104FB00002EBE00005B2002902DA6D1E2DB2641E7C
:104FC0000B4F11E07F2E0DD8002C0BDB072C09DCDA
:104FD000F1B2E0B2FFF7BAFE07EBC410304441462D
:104FE00000F068F8641C24B2AC42EBDBBDE8F08151
:104FF000042E002071B581B00324144D0BE0032C66
:1050000009D29DF804000090C4F1030310A21BA173
:10501000022003F09FFA286801230021466801AAB4
:105020003C20B047641EE4B248B1002CE7D19DF8A3
:10503000043014A211A1012003F08CFA7CBD4FF0C2
:10504000FF31686803F0FAFD7CBD0000AC00002071
:1050500052657472792025643A204661696C6564F2
:1050600020746F20777269746520636F6D6D616E57
:105070006420307825303258000000004F4C454401
:10508000000000004661696C656420746F207772CF
:1050900069746520636F6D6D616E642030782530B2
:1050A0003258206166746572203320617474656DB6
:1050B0007074730070B50D4C0E460246216833467D
:1050C0004D6840213C20A84705464FF0FF316068FD
:1050D00003F0B4FD002D07D03346BDE8704004A2B4
:1050E0000DA1022003F036BA70BD0000AC00002014
:1050F0004661696C656420746F20777269746520FD
:105100006461746120626C6F636B206F66206C65F4
:105110006E677468202564004F4C45440000000011
:10512000010901EB810100F00F0000EB4100C0B26A
:105130007047002102E00A38C0B2491C0A28FAD29E
:10514000090740EA116070472DE9F0410446002547
:10515000C07B627BA37B42E0012A16D0032A14D0D5
:10516000052A12D0072A10D0082A0ED00A2A0CD0FD
:105170000C2A0AD0042A10D0062A0ED0092A0CD0F4
:105180000B2A0AD0022A0DD028E01F2B0CD30C2AA0
:1051900005D101221346401C20E01E2B04D301231D
:1051A000521C1BE01C2B02D203F1010316E011D1AB
:1051B00083B29E0710D16426B3FBF6F706FB1736C1
:1051C00036B94FF4C876B3FBF6F706FB17331BB9B5
:1051D0001D2303E01D2B01D1032201236D1C8D42F1
:1051E000BAD3D1B2E0736173DAB2A27300F057F8A8
:1051F0002073BDE8F08170B50446FBF7A7FF0546B4
:105200004FF47A7606E0FBF7A1FF401BB04201D9CC
:10521000032070BD206840688006F4D5206841688E
:1052200041F010014160002070BD000070B50446DF
:105230000068416821F010014160FBF787FF0546D7
:105240004FF47A7607E000BFFBF780FF401BB042C7
:1052500001D9032070BD206840688006F4D5002085
:1052600070BD00000148FDF70FB9000040030020A9
:105270000168086A496A89B241EA004070470068DB
:1052800081698AB2C1698BB2816989B28A4203D0CD
:10529000C06961F31F40704743EA02407047F0B5B0
:1052A0006424C1EBC1030927A500072603EB011302
:1052B0000329B3FBF7F100F5FA60114401440AD267
:1052C000401EB0FBF4F201EB9001B0FBF5F0891A3F
:1052D0000844001D08E0B0FBF4F201EB9001B0FBC4
:1052E000F5F0891A0844801CB0FBF6F106FB1100AA
:1052F000C0B2F0BD70B50D4606460024FFF77BFF37
:1053000048B93168280C08623168A8B24862304652
:10531000FFF78CFF00B10124204670BD70B50D462B
:1053200006460024FFF767FF48B93168280C8861FA
:105330003168A8B2C8613046FFF778FF00B1012498
:10534000204670BD10B5502080F31188BFF34F8FF9
:10535000BFF36F8F06F040FC18B104494FF0805046
:105360000860002080F3118810BD000004ED00E00B
:1053700070B594B028216846FAF784FF14210AA872
:10538000FAF780FF002501240F951195052012954D
:105390000090CDE9025410954FF480300190022620
:1053A0000494CDE907604FF4E01009906846FCF7DB
:1053B000C9FE10B172B600BEFDE70F20CDE90A06A6
:1053C0004FF48060CDE90C5002210AA80E95FCF73D
:1053D000BDFD10B172B600BEFDE74FF48070CDE99F
:1053E0000F400FA8FCF73CFD002802D072B600BEAB
:1053F000FDE714B070BD70470148FDF7CCBA00005E
:1054000028040020F0B50268194B1A4C1A4D4FF0D1
:105410008047984205D0B84203D0A04201D0A842AC
:1054200003D122F070064A683243984205D0B84250
:1054300003D0A04201D0A84203D122F44074CA682C
:1054400022434C6922F08002224302608A68C262D1
:105450000A688262984201D10969016301214161B0
:105460000169C90703D0016921F001010161F0BDA3
:10547000002C0140000400400008004010B501F07D
:105480001F030121046A99408C430462016A9A4017
:105490001143016210BD000030B5036A026A22F0B8
:1054A000010202624268846924F073050C682C438F
:1054B00023F002058B682B430A4DA8420BD123F041
:1054C0000805CB6822F440722B434D6923F0040396
:1054D00015438A692A4342608461496841630362D3
:1054E00030BD0000002C014030B5026A036A23F091
:1054F00010030362436884690D6824F4E64444EAB7
:1055000005248D6822F0200242EA05120B4DA842C4
:105510000ED1CD6822F0800242EA05124D6923F4D3
:10552000406343EA85038D6922F0400243EA850324
:105530004360846149688163026230BD002C014090
:1055400030B5036A026A22F4807202624268C4695A
:1055500023F4007324F073050C682C438D6843EA30
:1055600005230C4DA8420ED1CD6823F4006343EA15
:1055700005234D6922F4405242EA05128D6923F455
:10558000806342EA05124260C4614968C1630362F4
:1055900030BD0000002C014030B5046A026A22F4DC
:1055A000805202624268C3690D6823F4E64343EA0D
:1055B00005238D6824F4005444EA0534064DA842BE
:1055C00004D14D6922F4804242EA85124260C361EF
:1055D00049680164046230BD002C014010B5406A86
:1055E0000021C185C184FDF7CDFB10BD70B5446AB3
:1055F0002068406994F84110C0F3C01000252129AB
:1056000004D118B1E584204600F062F820684069B2
:1056100094F84210C0F38010222904D118B1E58516
:10562000204600F02EF8606C40F0100060642046C8
:10563000FDF7A8FB70BD10B50146406A096809680E
:10564000890616D40021C1840168143151E8002F65
:1056500022F0800241E80023002BF5D101680C31D3
:1056600051E8002F42F0400241E80023002BF5D121
:1056700010BDFDF787FD10BD10B5406AFDF7A6FD12
:1056800010BD01680C3151E8002F22F4907241E8FE
:105690000023002BF5D10168143151E8002F22F0CE
:1056A000010241E80023002BF5D1016B012909D14A
:1056B00001680C3151E8002F22F0100241E800236C
:1056C000002BF5D1202180F84210002101637047A2
:1056D00001680C3151E8002F22F0C00241E800239C
:1056E000002BF5D1202180F84110704708B590F8C3
:1056F0004210222901D0022008BD82684FF4805355
:105700009A4201D1016921B1816A9A421BD04AB102
:105710000AE00268816A5268C2F308020A80816A5C
:10572000891C08E0026972B10268526802F07F02C7
:105730000A70816A491C8162C18D491E0904090CE5
:10574000C18503D01BE002685268F1E70168CA68AE
:1057500022F02002CA600168CA6822F48072CA601E
:1057600001684A6922F001024A61202180F8421052
:1057700000214163026B012A03D0FDF7C5FC002024
:1057800008BD016301680C3151E8002F22F01002BE
:1057900041E80023002BF5D101680A68D20602D542
:1057A0000A6849680091818DFDF7EBFAE7E7000090
:1057B00070B5044600680169E26821F44051114364
:1057C00001612169A0680843616908432168CA68CA
:1057D00041F20C639A430243CA6020684169A2699E
:1057E00021F44071114341611E492068884202D171
:1057F000FCF772FC01E0FCF75FFC00EBC00101EB81
:105800000012606864218000B2FBF0F3B3FBF1F397
:105810006FF018067343B2FBF0F5B2FBF0F605EB40
:105820008305322303EB0515B5FBF1F5B6FBF1F665
:1058300005F0F00505EB0615B2FBF0F6B2FBF0F053
:10584000B0FBF1F06FF01802504306EB800003EB61
:105850000010B0FBF1F0216800F00F0028448860D0
:1058600070BD0000003801400148FDF78DBA00000E
:105870009C030020FAF744FCFEE700000FB4054B40
:1058800010B503A9044A029800F008FA10BC5DF8AC
:1058900014FB0000A57E0008A80000200FB41CB572
:1058A0000246002007AC00290BD0491ECDE900219B
:1058B000054B6A462146069800F0F0F9009A00214F
:1058C00011701CBC5DF814FBCB6300080FB4084BCF
:1058D00010B504A902AA039800F0E0F9044602A951
:1058E000002000F07DFD204610BC5DF814FB000098
:1058F000E16300087CB5044600201D4616460029D9
:105900000BD0491ECDE90041044B6A46294630467A
:1059100000F0C4F9009A002111707CBDCB6300082F
:105920004100080218BF04200A0E18BF40F0010011
:105930004FF07F4232EA010108BF40F00200012827
:1059400008BF052070470907090E002804DB00F195
:10595000E02080F80014704700F00F0000F1E02014
:1059600080F8141D70470121FAF776BDFAF7ACBC38
:1059700000210846FAF732BD6FF05E010807FAF71A
:105980006BBD00002DE9F04D0D4614464FF07F41F0
:10599000B1EB440F9EBF4FF0FF312960BDE8F08DA1
:1059A0004FF0004040EA0421C4F3C750783810F0AB
:1059B0001F024A4B4FEA601CC2F120067B44C4F32D
:1059C000C750A0F178004FEA601003EB800053F855
:1059D0002C3008BFD0E901C612D0D0F804C09340E3
:1059E0002CFA06F73B4387680CFA02FC27FA06F804
:1059F000C06807FA02F2F0404CEA080C42EA0006DE
:105A0000A3FB0132ACFB01C0A6FB016101EB0C065C
:105A10008E4234BF4FF0010C4FF0000CC1186144AE
:105A2000BCF1000F02D0814202D903E0814201D2D1
:105A3000012000E00020104400F120024FEA9218FB
:105A40008006CA0C40EA42304F03C5F80080FAF7DE
:105A500097FE82463846FAF79CFE6FF01201FAF77D
:105A6000FBFC07463046FAF794FE6FF02501FAF783
:105A7000F3FC834639465046FAF726FC5946FAF7B6
:105A800023FC00F500666FF30B0651463046FAF72B
:105A90006DFC3946FAF76AFC5946FAF76AFC104978
:105AA000FAF76AFC07460F493046FAF765FC3946B3
:105AB000FAF70AFC07460C493046FAF75DFC39460E
:105AC000FAF702FC14F0004F08BFBDE8F08DC8F1F2
:105AD000805180F000402960BDE8F08D888300008F
