:020000040800F2
:1000000070430020E10200081B3F00083502000891
:10001000153F0008FD1D00083155000800000000D4
:10002000000000000000000000000000490200087D
:100030003B1E0008000000008D0200082D50000843
:10004000FB020008FB020008FB0200084D4F0008FD
:10005000FB020008FB020008FB020008FB0200088C
:10006000FB020008FB020008FB020008FB0200087C
:10007000FB020008FB020008051E0008FB02000846
:10008000FB020008FB020008FB020008FB0200085C
:10009000FB020008FB020008FB020008FB0200084C
:1000A000FB020008FB020008FB020008FB0200083C
:1000B000FB020008FB020008D1500008FB02000808
:1000C000FB020008FB020008FB020008FB0200081C
:1000D000FB02000825550008FB020008FB0200088F
:1000E000FB020008FB020008FB02000800F002F817
:1000F00000F090F80AA090E8000C82448344AAF132
:100100000107DA4501D100F085F8AFF2090EBAE82F
:100110000F0013F0010F18BFFB1A43F0010318473B
:1001200020B1000040B10000103A24BF78C878C167
:10013000FAD8520724BF30C830C144BF04680C60ED
:10014000704700000023002400250026103A28BF35
:1001500078C1FBD8520728BF30C148BF0B60704739
:100160006E2900F0B783702900F02985662909F00F
:100170002D83652909F02A83672909F027836129DE
:1001800009F0268303681B0A28BF41F08001692912
:1001900000F03481642900F03181752900F02E814E
:1001A0006F2900F0B684782900F0F584E92900F081
:1001B0005184E42900F04E84F52900F04B84EF29A6
:1001C00000F0B384F82900F0F4840368DB0928BF49
:1001D00041F08001632900F0C083732900F0C583DA
:1001E000E32901F00581F32901F00A81002070471D
:1001F0001FB501F05BF904000020002108F076FF34
:10020000401C60600020002108F05AFFE0601FBD24
:1002100010B510BD01F01CF91146FFF7E9FF06F01B
:1002200009F801F0F9F903B4FFF7F2FF03BC05F098
:10023000ADF900001EF0040F0CBFEFF30880EFF3E0
:10024000098005F033BF0000224B19680868B0E848
:10025000F00F80F30988BFF36F8F4FF0000080F339
:1002600011884EF00D0E704700000000064800682F
:10027000006880F3088862B661B6BFF34F8FBFF3A2
:100280006F8F00DF00BF00BF08ED00E0EFF30980D3
:10029000BFF36F8F0F4B1A6820E9F00F106008B59D
:1002A0004FF0500080F31188BFF34F8FBFF36F8F73
:1002B00007F076FC4FF0000080F31188BDE808409D
:1002C00019680868B0E8F00F80F30988BFF36F8FF2
:1002D000704700BF10000020EFF30580704700005A
:1002E0000948804709480047FEE7FEE7FEE7FEE7CA
:1002F000FEE7FEE7FEE7FEE7FEE7FEE70448054906
:10030000054A064B70470000CD500008ED0000087C
:10031000703D002070430020703F0020703F00209F
:10032000704700007CB51D4616460C00009001D0B9
:100330002044401E074B7B442A46694601903046C4
:1003400000F0E1FA05461CB10020694600F0EEFA23
:1003500028467CBDFD0500000FB4044910B503AA72
:10036000029800F007FB10BC5DF814FBA40000200D
:100370000FB47CB50C0009AA009001D02044401EA7
:10038000084B7B4469460190089800F0BCFA05468A
:100390001CB10020694600F0C9FA28467CBC5DF813
:1003A00014FB0000B105000070B50C460546012A9B
:1003B00005D02878800600D5EA69002302E00123F1
:1003C00005E05B1C934202D2E05C0028F9D1A869E9
:1003D000E618C01AA861286A18442862284600F066
:1003E000E7F904E0D5E9012114F8010B9047B44284
:1003F000F8D3284600F0F2F970BD00002DE9F04175
:100400000646002410687529314616A510D000F064
:10041000F6F9002802DA404213A507E031688A079E
:1004200001D512A502E0490704D511A5012401E078
:1004300000F0EEF900210A2206F1240709E0B0FBE2
:10044000F2FCB0FBF2F302FB1C003030785418468B
:10045000491C0028F3D123462A463046BDE8F04126
:1004600000F0DFB9000000002D0000002B000000AC
:10047000200000002DE9F05F894604464FF0000A95
:10048000DFF874B1FB44C0F820A02046E16888473B
:10049000002874D0252806D0D4E901219047206A8D
:1004A000401C2062F1E700265F462046E16888474D
:1004B0002028054607DB312D05D2781910F8200CCD
:1004C00008B10643F1E7B00701D526F00406C4F8E9
:1004D0001CA00027C4F818A02A2D09D0284605F032
:1004E0004EF838B304EB8708303DC8F8185019E0CF
:1004F00059F8041B204604EB87029161E1688847A4
:10050000012F054618D1E069002820DA26F02006E0
:100510001DE0D8F8180000EB800005EB40003038F3
:10052000C8F818002046E1688847054605F027F816
:100530000028EED1012F0AD02E2D08D12046E168E7
:1005400088477F1C0546022F46F02006C4DBA069C1
:10055000002803DA404246F00106A061F00701D00E
:1005600026F010066C2D0BD0682D09D04C2D39D0FB
:100570006A2D35D0742D35D07A2D33D016E038E081
:10058000E1682F4620468847B842054609D16C2FBE
:1005900026D04FF48060E168064320468847054630
:1005A00004E06C2F1AD04FF4807006430DB3A5F110
:1005B0004100192802D8203546F400664A462946EB
:1005C000204626604E46FFF7CBFD80B101280BD0B8
:1005D000F61D26F0070000F1080956E74020E4E781
:1005E0008020D8E70020D6E706F104094DE7284629
:1005F00052E7206ABDE8F09FBAAC0000032A40F23F
:10060000308010F0030C00F0158011F8013BBCF1B4
:10061000020F624498BF11F801CB00F8013B38BFCC
:1006200011F8013BA2F1040298BF00F801CB38BFDA
:1006300000F8013B11F0030300F0CC82083AC0F04F
:10064000088051F8043B083A51F804CBA0E80810A0
:10065000F5E7121D5CBF51F8043B40F8043BAFF3D3
:100660000080D20724BF11F8013B11F801CB48BF2D
:1006700011F8012B24BF00F8013B00F801CB48BF63
:1006800000F8012B704702F0FF0343EA032242EA1D
:10069000024200F002B84FF000020429C0F01280BC
:1006A00010F0030C00F01B80CCF1040CBCF1020F25
:1006B00018BF00F8012BA8BF20F8022BA1EB0C01FA
:1006C00000F00DB85FEAC17C24BF00F8012B00F8F0
:1006D000012B48BF00F8012B70474FF0000200B516
:1006E000134694469646203922BFA0E80C50A0E855
:1006F0000C50B1F12001BFF4F7AF090728BFA0E803
:100700000C5048BF0CC05DF804EB890028BF40F8CE
:10071000042B08BF704748BF20F8022B11F0804F10
:1007200018BF00F8012B70474FF0013C50F8042B24
:1007300051F8043B9A4221D1A2EB0C03934313EAF4
:10074000CC1317D150F8042B51F8043B9A4215D121
:10075000A2EB0C03934313EACC130BD150F8042BF8
:1007600051F8043B9A4209D1A2EB0C03934313EADC
:10077000CC13DBD04FF00000704700BFD01A01BA95
:10078000B1FA81F101F0180122FA01F0CB40C1F178
:100790002001DBB2C0B2C01A2CFA01F3D11A914386
:1007A00011EAC311E6D17047704770477047704730
:1007B00070B5044685690068C10601D5302600E0A1
:1007C0002026C00707D070BDD4E9012130469047EC
:1007D000206A401C20626D1EF6D570BD70B50446BF
:1007E00085690078C00707D170BDD4E901212020B8
:1007F0009047206A401C20626D1EF6D570BD0968C6
:100800004A0501D540B27047C905FCD500B2704712
:1008100009684A0501D5C0B27047C905FCD580B248
:1008200070472DE9F0470D4699469246044600F17F
:1008300024080168880604D5E06921F010012160D0
:1008400000E00120A84201DD471B00E00027A1696C
:100850007A1902EB0900081AA0612078C00602D4B8
:100860002046FFF7A5FF002608E0D4E901211AF889
:1008700006009047206A401C761C20624E45F4DB3F
:100880002078C0060AD52046FFF792FF06E0D4E99B
:10089000012130209047206A401C2062381EA7F1B9
:1008A0000107F4DC07E0D4E9012118F805009047BE
:1008B000206A401C2062281EA5F10105F3DC2046B9
:1008C000FFF78CFF2078000602D50220BDE8F087F4
:1008D0000120FBE711680268006A530501D5087022
:1008E0000AE0D30501D5088006E0130603D5C21738
:1008F000C1E9000200E008600120704701694A1C5C
:1009000002610878704700B58FB0CDE90131002150
:10091000059105497944CDE9031011466846FFF772
:10092000A9FD0FB000BD0000E5FFFFFF0A6802F857
:10093000010B0A607047D1E900239A4202D2531C8E
:100940000B601070704710B5436913B1AFF30080AE
:1009500001E0FFF729FD012010BD127800F124010C
:100960000A7000224A700122EDE711684FF0FF3251
:10097000E9E70000074B70B50D467B44FFF7C3FF66
:100980000446284605F076FB10B14FF0FF3070BDED
:10099000204670BDFF5600002DE9FF5F15468A46D0
:1009A0000446DFF8AC80F8440027D8E900103E4642
:1009B000CDE9001010E03AF816106A4602A800F0DF
:1009C00023FD411C07D02178890603D5E269391837
:1009D00091420DD80744761C2078800602D5E06944
:1009E000B84205DDAE42E6DB3AF816000028E2D157
:1009F000A069C01BA0612046FFF7DAFED8E900100D
:100A0000CDE90010002017E03AF818106A4602A855
:100A100000F0FAFCB0F1FF3F81460BD000250DF14C
:100A2000080B05E0D4E901211BF8050090476D1C77
:100A30004D45F7D308F10100B0428046E4DB206A5F
:100A4000384420622046FFF7C9FEBDE8FF9F000042
:100A5000AAA700002DE9F0418046D21D22F007022E
:100A60000025D2E90002F52915A614D0011E72F165
:100A7000000106DA0023D0EB030063EB020211A6AB
:100A800008E0D8F800108B0701D50FA602E049074F
:100A900001D50EA601251146002408F1240704E023
:100AA00000F0CAF830323A55641C50EA0102F7D11E
:100AB0002B46324621464046BDE8F041FFF7B1BE25
:100AC000000000002D0000002B00000020000000AE
:100AD00030B4002100F1240408E002F00705D20838
:100AE000303542EA4372DB086554491C52EA03057B
:100AF000F3D10468002310A2250707D5A40600D46B
:100B000021B1C46901230DA2641EC46130BCFFF78A
:100B100088BE10B5044621461068FFF779FE0246EC
:100B20002046BDE810400023D2E7D21D22F0070185
:100B3000D1E90023CCE700000000000030000000F5
:100B4000F0B40D460188090502D5214C7C4402E031
:100B50001F4C7C440E34002100F1240608E002F012
:100B60000F071209E75D42EA03721B097754491C1B
:100B700052EA0307F3D102780023120704D5702D3F
:100B800006D009B1022311342246F0BCFFF749BE5A
:100B900001231034F8E770B504460D46214610686D
:100BA000FFF736FE024629462046BDE87040002386
:100BB000C6E7D21D22F00703D3E90023C0E703688C
:100BC000126843F0200303600823C3610023B7E7E2
:100BD0000CA6000010B5203AC0F00B80B1E8185008
:100BE000203AA0E81850B1E81850A0E81850BFF417
:100BF000F5AF5FEA027C24BFB1E81850A0E81850B6
:100C000044BF18C918C0BDE810405FEA827C24BF09
:100C100051F8043B40F8043B08BF7047D20728BF97
:100C200031F8023B48BF11F8012B28BF20F8023BE6
:100C300048BF00F8012B704730B5B0F10A024FEA07
:100C4000900E71F100034EEA817EB0EB0E0061EB75
:100C500091014FEA101E4EEA017E10EB0E0041EBAF
:100C600011114FEA102E4EEA016E10EB0E0041EB0F
:100C700011214FEA104E4EEA014E10EB0E0041EBEF
:100C80001141401841F100014FEAD00040EA4170A3
:100C90004FEAD10110EB80054FEA810444EA9074D9
:100CA00044EB01046D1944EB0404521BA3414FF0C3
:100CB000000348BF0A3200D530BD401C41F100019D
:100CC00030BD70472DE9FF4F0C461E464FF0FF37F1
:100CD0008BB0D2E90001DDF860800A908A46C1F34A
:100CE0000A5505B93D46002108464FF00000BAF10B
:100CF000000F00F4400005DA00EB80004FF44001E3
:100D000001EA50004FEA9059B9F1010F00DDB946F0
:100D10000A9850EA4A000ED044F61050A5F2FF356A
:100D200045432F14B8F1000F1ED07542291E1EDD59
:100D3000C9F100021CE0B8F1010F4FF0000001D032
:100D4000302103E0F24305E02154401CB042FBDBBC
:100D500030460022002121540B99C1F80880C1E9D6
:100D600000200FB0BDE8F08FBD1B6D1CDEE74A46CA
:100D700000DA694206A800F0DDFB06AB93E8070045
:100D800003AB83E8070050460A9900F04EFC8DE85B
:100D90000700A0F500501F3800900398002D0ADDD1
:100DA00042F21F014A460844002303A90390684603
:100DB00000F0B7FE09E0A0F500504A461F380023B6
:100DC00003A90390684600F0C1FE8DE80700000407
:100DD000000C03D04FF0FF30410800E01046B8F19E
:100DE000000F03D00022009215461EE0751E05D4A8
:100DF000FFF722FF303262556D1EF9D5B34601224E
:100E0000084302D000227F1C04E02078302801D162
:100E100000227F1E002A099784D01DE0112D07DAD9
:100E2000FFF70AFF303262556D1C50EA0102F5D11E
:100E3000084302D00098C8B10EE00021681E05E00A
:100E4000235C625C63542254401E491C8142F7DBE0
:100E5000AB46A81B401E0990002004F80B000B981D
:100E6000099AC0F80880C0E9002B7AE711264FF0F4
:100E7000000857E72DE9F04F88460446D21D22F0BE
:100E8000070191B0D1E90001CDE90A0104F053FB5B
:100E900002460B98C00F01D02D2007E02068810783
:100EA00001D52B2002E0202101EAC000032A09908D
:100EB00001D0072A05DB03464146204600F0FAFA36
:100EC0000BE12078800601D5E06900E00620B8F14A
:100ED000650F814606D0B8F1660F18D0B8F1670FDC
:100EE00070D131E00020B9F1110F009001DB112326
:100EF00001E009F101030AAA01A90CA8FFF7E2FE2B
:100F0000DDE90C70002609F10105834647E0012068
:100F10004B4600904FF000470AAA01A90CA8FFF722
:100F2000D1FEDDE90DB00C995D46002610B909F13E
:100F300001000D18B9EB050003D4C0F1FF3609F12B
:100F40000105A5EB09002BE0B9F1010F01DA4FF023
:100F500001090020B9F1110F0090484601DD11236D
:100F600000E003460AAA01A90CA8FFF7ABFEDDE9E1
:100F70000C704D4600268346207800070AD4AB4506
:100F800000DA5D4601A8012D04DD411911F8011CAC
:100F9000302907D04F4502DA17F1040F04DA012097
:100FA00082460FE06D1EEEE7002F02DCED1B3E4493
:100FB00003E0781CA84200DD7D1CB81B00F1010A8B
:100FC0004FF000472078000703D4AA4501DB4FF01B
:100FD000FF3A0021B7F1004F0DF143088DF843109F
:100FE00024D002202B23002F01DA7F422D230A2157
:100FF000021EA0F1010000DC5FB197FBF1FC97FB42
:10100000F1F201FB1C7C17460CF1300C08F801CD05
:10101000EEE7A8F1010003702188090501D54521FB
:1010200000E06521A0F1010800F8011C09980FA952
:10103000A1EB0807FF1D00B10120411901EBEA7087
:10104000A1693844081A401EA0612078C00602D465
:101050002046FFF7ADFB099828B1D4E9012190475C
:10106000206A401C20622078C00622D52046FFF767
:101070009FFB1EE0002E04DBB34502DD01A8805D6E
:1010800000E03020D4E901219047206A401C206212
:10109000761CAAF101005FEA000A0AD100F006FA04
:1010A000C0680168405CD4E901219047206A401C77
:1010B0002062281EA5F10105DCDC07E0D4E901214E
:1010C00018F8010B9047206A401C2062381EA7F1D7
:1010D0000107F3DC2046FFF781FB032011B041E656
:1010E0002DE9F04F04460D46D21D22F0070089B0CD
:1010F000D0E900974846394604F01DFA0246F80F39
:1011000001D02D2307E02068810701D52B2302E0C1
:10111000202101EAC0038DF820300BB1012000E04E
:101120000020032A824601D0072A04DB29462046F4
:1011300000F0C0F93FE12078800601D40D2500E0E1
:10114000E569C7F30A560D2D49DA00214FEA175B0E
:1011500008464FF00000002F00F4400007DA00EBD3
:1011600080004FF4400100EBD07001EA600081156F
:10117000012901DD4FF0FF3100224FEA850CBCF15F
:10118000180F06D31346ACF118004FF08052C2403E
:1011900003E04FF4801323FA0CF30CF10C0CBCF1B8
:1011A000200F04D3ACF1200C09FA0CF001E007FA8F
:1011B0000CF000294FF0004801DD18B90FE00ED106
:1011C00040450CD319EB02095F4121B9404502D1DA
:1011D0009F4329EA0209BBEB175F00D0761C2088E9
:1011E000000502D57B48784402E07A4878441938F3
:1011F00008AA302302F80A30037C0AF10101002E0C
:101200000AF1020A53546A4602DC4FF0300101E051
:101210004FF031014FF001088DF8001002D0A6F216
:10122000FF3603E059EA470100D06B4E002D02DC87
:101230002178090704D54FF002082E218DF80110FE
:10124000C44600210BE0C7F303433F01C35C491CC4
:101250006D1E02F80830052908F1010801DA002D99
:10126000F1DC00210CE000EB1973491C1B786D1EAA
:10127000082902F808304FEA091908F1010801DAD3
:10128000002DF0DC21688B0602D516E0A8F10108DC
:10129000E04505DD02EB080313F8013C302BF5D0E7
:1012A000B8F1000F09DD02EB080313F8013C2E2B07
:1012B00003D1090701D4A8F10108002D05DD3E2165
:1012C00002F808106D1E08F10108407C002E02F89B
:1012D000080008F1010804DA2D20764202F808001F
:1012E00002E02B2002F808000A214FF47A708642AF
:1012F00008F101080BDB96FBF0F3303302F80830FD
:1013000096FBF0F308F1010800FB136601E0642E80
:101310000CDB642096FBF0F3303302F8083096FBC8
:10132000F0F308F1010800FB136601E00A2E06DB6A
:1013300096FBF1F0303002F8080008F1010896FB46
:10134000F1F001FB1060303002F80800A16908F1EB
:10135000010808EB050202EB0A00081AA0612078D8
:10136000C00602D42046FFF723FA216A08AE01EB3B
:101370000A00206204E0D4E9012116F8010B90472D
:10138000BAF1010AF7D22078C00602D52046FFF74D
:101390000FFA6E4609E016F8010B3E280FD0D4E98B
:1013A00001219047206A401C2062B8F10108F2D266
:1013B0002046FFF713FA09B00320BDE8F08F206A3A
:1013C0002844206203E0D4E90121302090476D1EBB
:1013D000EBD3F8E7AD9F000002FCFFFF10B54369B7
:1013E00013B1AFF3008001E0FFF7D6FA012010BD82
:1013F000128800F1240182840022C2840122EDE7D8
:1014000011684FF0FF32E9E770B516460C46054605
:1014100000F044F8036893F80101012806D0FF2C7E
:101420000FD8185D68B101202C7070BDD3F807018A
:101430003246214603F2071303442846BDE87040B4
:1014400018474FF0FF3070BD00487047103D002036
:101450007546FFF7F9FFAE4605006946534620F092
:101460000700854618B020B5FEF748FFBDE82040CC
:101470004FF000064FF000074FF000084FF0000B50
:1014800021F00701AC46ACE8C009ACE8C009ACE803
:10149000C009ACE8C0098D467047000010B500F0E7
:1014A00005F8001D10BD00BF457C000000487047D6
:1014B000303D00202DE9F0411F4604460326016817
:1014C000072A01F4006004DB08B116A505E016A5A3
:1014D00003E008B115A500E015A521F0100020607B
:1014E000A069C01EA0610FB1401EA0612046FFF799
:1014F0005FF94FB1D4E9012138469047206A401C7A
:101500002062C01C206206E0206AFAE7D4E90121CB
:1015100015F8010B9047761EF8D22046FFF75EF9CA
:10152000BDE8F0814E414E006E616E00494E4600AE
:10153000696E66002DE9F047814616468AB0354847
:1015400078440DC88DE80D0032487844801C03AC07
:101550000DC884E80D0041F69B300844372190FB0C
:10156000F1F290FBF1F5A5F1800501FB12041B3CA3
:1015700002D56442012000E00020DFF898A08046F8
:101580000027FA44AAF1BE0A0EE0E0070AD032466C
:10159000684607EB470101230AEB810100F0D6FA08
:1015A0008DE8070064107F1C002CEED1194F7F449A
:1015B000AE3F19E0E80715D007EB04100DF1180A4B
:1015C00090E80E008AE80E00C068F04201D1981938
:1015D00008903246012306A903A800F0B7FA03AB2E
:1015E00083E807006D10641C002DE3D14FF0010368
:1015F00032466946B8F1000F03A802D000F091FA14
:1016000001E000F0A3FAC9E90001C9F808200AB016
:10161000BDE8F087E49C000010B50446AFF30080FD
:101620002046BDE81040FEF7FEBD5FEA400C08BF53
:1016300091F0000F4FEA8C234FEAC12243EA515147
:101640004FEA1C5018BF00F5F0404FEA300018BFB9
:1016500041F000415FEA6C5C00F02980BCF1FF3F83
:1016600008BF40F080407047130C06BF12044FF0D3
:10167000100C4FF0000C130E04BF12020CF1080CFA
:10168000130F04BF12010CF1040C930F04BF92005E
:101690000CF1020CD30F04BF52000CF1010C1146E7
:1016A0004FF00002A0F11F00A0EB0C00704711F0FA
:1016B000004F08BF704731F000413FF4D5AF0B0C2D
:1016C00006BF09044FF0100C4FF0000C0B0E04BFC6
:1016D00009020CF1080C0B0F04BF09010CF1040CFA
:1016E0008B0F04BF89000CF1020CCB0F04BF490023
:1016F0000CF1010CCCF12003A0EB0C0022FA03F357
:1017000002FA0CF241EA030100F10100704720F0F7
:101710007F4C80EA030023F07F47ACEB070303F51F
:101720007C5300F0004003F1FF032DE980494FEAAC
:10173000154B09B44FEA144325EA0B4E24EA03483B
:101740000FF2042606EB132749083E785FEA3202BF
:1017500003FB0667C7F5000707FB06F64FEA543799
:101760004FEAD64606F1020607FB066CCCF1005C98
:101770004FEA1C472CEA074C07FB06F40CFB06F566
:1017800004EB15464FEA961634BF00204FF0004098
:101790004FEAD13706FB07FC4FEA1C4C0CFB0BF75A
:1017A000D21B03FB0CF761EB07010CFB0EF7B0EB50
:1017B000074072EB17420CFB08F734BFA2EB07425D
:1017C000B2EB074261EB17414FEA0C444FEA910735
:1017D00006FB07FC4FEA1C4C0CFB0BF7B0EBC740B9
:1017E00072EB573203FB0CF734BFA2EBC742B2EBEC
:1017F000C74261EB57310CFB0EF7B0EBC70072EB41
:1018000057720CFB08F734BFA2EBC702B2EBC7025A
:1018100061EB5771039F4FEA816141EA921104EB3A
:10182000CC044FEAD1374FEA826206FB07FC42EA5A
:1018300090124FEA80604FEA1C4C0CFB0BF7D21B56
:1018400003FB0CF761EB07010CFB0EF7B0EB074055
:1018500072EB17420CFB08F734BFA2EB0742B2EB66
:10186000074261EB17414FEA8C554FEA910704EBB1
:101870009C2406FB07FC4FEA1C4C0CFB0BF7B0EB5F
:10188000C74072EB573203FB0CF734BFA2EBC742E1
:10189000B2EBC74261EB57310CFB0EF7B0EBC70060
:1018A00072EB57720CFB08F734BFA2EBC702B2EB26
:1018B000C70261EB577115EB4C254FEA816141EA94
:1018C00092114FEA82624FEAD13742EA901206FB48
:1018D00007FC44F100044FEA80604FEA1C4C0CFB0B
:1018E0000BF7D21B03FB0CF761EB07010CFB0EF7A8
:1018F000B0EB074072EB17420CFB08F734BFA2EBCA
:101900000742B2EB074261EB174115EB1C154FEA9A
:10191000813141EA92414FEA823242EA90424FEAF3
:1019200080304FEA0C7644F1000448EA03434EEA63
:101930000B484FF0000EB2EB080C71EB030724BF0D
:10194000624639464EEB0E0E4FF0000B0018524126
:1019500049414BEB0B0BB2EB080C71EB03077BF12E
:10196000000B24BF624639464EEB0E0E4FF0000BC3
:101970000018524149414BEB0B0BB2EB080C71EBD9
:1019800003077BF1000B24BF624639464EEB0E0E77
:1019900051EA020718BF46F0010616EB0E7655F124
:1019A000000254F1000103D5BDE88901BDE80088BB
:1019B000BDE88901BDE80048B619524141EB01017B
:1019C000A3F10103704780807F7E7D7C7B7A7978EC
:1019D000777676757473727171706F6E6E6D6C6CF4
:1019E0006B6A6A6968686766666564646363626196
:1019F0006160605F5F5E5E5D5D5C5C5B5B5A5A5917
:101A00005958585757565655555554545353525282
:101A10005251515050504F4F4F4E4E4D4D4D4C4CDA
:101A20004C4B4B4B4A4A4A49494948484847474723
:101A30004746464645454544444444434343434260
:101A4000424242414141002B9C4630D477002BD08A
:101A50001CB54FEA370703B44FF010004FF01001E8
:101A6000BAF1000F06D0BCF1000FDCBF40F0080057
:101A700040F008014FF000000FBCBDE810400BF132
:101A8000010BBBF1010F08BF5FEA170722BF12F17C
:101A9000010211F101014FF0004143F1000300F098
:101AA000004043EA00007047F9D35708D0E746EA00
:101AB000064613F1400F4FEA16461FDD13F1200FC3
:101AC000DFBF16430A46002120335B42BED0C3F17C
:101AD000200746EA064602FA07F74FEA164646EAA4
:101AE0000706C3F1200722FA03F201FA07F721FAE9
:101AF00003F14FF0000342EA0702A7E746EA0206B5
:101B000046EA06464FEA164646EA0106BCBF46EAE2
:101B10000646360C4FF000034FF000024FF0000174
:101B200094E72DE9804C9A46934670B491E83800CA
:101B300007C831EA400C48BF34EA430C03D5FFF72D
:101B4000E6FDFFF780FFF0BCBDE8008C2DE9804C7E
:101B50009A46934670B491E8380007C810F0804F59
:101B600008BF13F0804F03D100F005F8FFF76BFFBB
:101B7000F0BCBDE8008C20F07F4780EA030023F032
:101B80007F4C07EB0C03A3F57C5300F00040A3F15E
:101B9000FE0392F0000F00F0B38095F0000F00F00C
:101BA00077802DE901494FEA11404FEA144621EAB6
:101BB000004800FB06FC24EA064708FB06F607FB84
:101BC00008F800FB07F718EB06484CEB164C4FEAF9
:101BD000124B18EB07484FEA15464CEB174022EA28
:101BE0000B4E0BFB06FC25EA06470EFB06F607FB31
:101BF0000EFE0BFB07F71EEB064E4CEB164C4FF0A0
:101C000000061EEB074E4CEB174B18EB0B0840F190
:101C1000000018EB0E0B58EB000840F100008F1A83
:101C20004FF000013CBFC943661B14BFB5EB040C69
:101C300000213CBFC943F61B4FEA17444EEA8E0E03
:101C400027EA04454FEA1C4704FB07622CEA074CCD
:101C500005FB07F70CFB05F604FB0CFC16EB07462F
:101C600042EB174216EB0C4642EB1C421BEB0606FE
:101C700058EB0202414146EA9E0601D5BDE80189C2
:101C8000B619524141EB0101A3F10103BDE80189FD
:101C90004FEA14454FEA114724EA054621EA074C6A
:101CA00005FB07F406FB07F70CFB06F105FB0CFC34
:101CB00011EB074144EB17444FEA124711EB0C417B
:101CC00044EB1C4422EA074C05FB07F206FB07F72E
:101CD0000CFB06F605FB0CFC16EB074642EB174225
:101CE00016EB0C4642EB1C456A1854F1000148BF44
:101CF0007047B619524141EB0101A3F1010370474E
:101D000095F0000F37D04FEA11424FEA144721EA0D
:101D1000024624EA074C02FB07F106FB07F70CFB1F
:101D200006F402FB0CFC14EB074441EB17414FEAAD
:101D3000154714EB0C4441EB1C4125EA074C02FB10
:101D400007F506FB07F70CFB06F602FB0CFC16EB8F
:101D5000074645EB174516EB0C4645EB1C4212199E
:101D600051F1000148BF7047B619524141EB0101E2
:101D7000A3F1010370474FEA14454FEA114724EAE3
:101D8000054621EA074C05FB07F106FB07F70CFBAC
:101D900006F24FF0000605FB0CFC12EB074241EB8C
:101DA000174112EB0C4251EB1C4148BF704792188F
:101DB00041EB0101A3F101037047000005F04CFA6B
:101DC00003F006FD04F018FA03F04EFC04F060F98D
:101DD00001F06AFE03A207A1022004F017FA04F042
:101DE0004BFBFEE753797374656D20626F6F742E41
:101DF0002E2E00004D41494E00000000FEF71AFA59
:101E0000FEE70000014800F09DB800002402002019
:101E100030B590F840500124AC40C56B6C6004684C
:101E200063604368102B036803D099600068C26048
:101E300030BD9A600068C16030BD704772B619212C
:101E400002A005F07DFA00BEFDE700004552524FAA
:101E5000523A2053797374656D2068616C746564BF
:101E6000210D0A0010B590F821100022022905D09A
:101E70000421816380F82020012010BD01680B68D7
:101E800023F00E030B6001680B6823F001030B6065
:101E900090F84030C46B012101FA03F3636080F8CD
:101EA000211080F82020104610BD000010B590F8D9
:101EB00021100024022903D00421816301243DE084
:101EC00001680A6822F00E020A6001680A6822F0BE
:101ED00001020A601A4A0168914201D1012121E000
:101EE000174A1432914201D110211BE0144A2832C2
:101EF000914201D1891515E0114A3C32914201D13C
:101F000089140FE00E4A5032914202D14FF48031D1
:101F100008E00B4A6432914202D14FF4801101E093
:101F20004FF08071064A083A5160012180F8211073
:101F3000002180F82010416B01B18847204610BD78
:101F4000080002402DE9F05FC16B0C6801680B6866
:101F5000D0F840C0042202FA0CF2494DDFF824A167
:101F6000494E4A4FDFF828B1DFF828E122422CD051
:101F70005A072AD50A68920603D40A6822F0040296
:101F80000A600168A94201D1042219E0514501D13A
:101F9000402215E0B14202D14FF4806210E0B94214
:101FA00002D14FF480420BE0594502D14FF4802218
:101FB00006E0714502D14FF4800201E04FF08062EB
:101FC0002F4908394A60C16A3BE04FF0020808FA1D
:101FD0000CF818EA040F4FF000094FF0010235D059
:101FE0005FEA837832D50B689B0605D40B6823F033
:101FF0000A030B6080F821200168A94201D1022266
:1020000019E0514501D1202215E0B14202D14FF42F
:10201000007210E0B94202D14FF400520BE0594572
:1020200002D14FF4003206E0714502D14FF40012A4
:1020300001E04FF00072124908394A6080F82090A0
:10204000816A00291AD0BDE8F05F0847082505FA23
:102050000CF5254212D01B0710D50B6823F00E0398
:102060000B6090F84010C36B02FA01F15960826373
:1020700080F8212080F82090016BE2E7BDE8F09F16
:10208000080002401C0002403000024044000240B0
:10209000580002406C00024030B528B308C813490C
:1020A00014221944B1FBF2F18900C1631049816324
:1020B000022141771A6843F6F0718A43D0E900148F
:1020C0002143D0E902452C4321430469214344695B
:1020D0002143846921431143196000214163012296
:1020E00042770177084630BD012030BDF8FFFDBFC3
:1020F0000000024070B5044690F820000025012839
:102100000CD0012084F8200094F821600020012EDA
:1021100006D084F820000225284670BD022070BD3C
:10212000022684F82160A0632068066826F0010674
:1021300006602046FFF76CFEE06A00282068016810
:1021400002D041F00E0106E021F004010160206898
:10215000016841F00A0101602068016841F0010155
:102160000160D9E72DE9F84FDFF8B8910024A9F113
:10217000040B23460F2709F1040AABF1040EC9E052
:102180000125A5402A40AA427DD1674ED1F804C05E
:10219000ACEB0608B44532D014DCBCF1030F3AD0E6
:1021A00009DCBCF1000F2AD0BCF1010F1CD0BCF13E
:1021B000020F31D11DE0BCF1110F17D0BCF1120F8D
:1021C0002AD119E0B8F5881F19D006DCB8F5803F90
:1021D00015D0B8F5801F1FD111E0B8F5001F0ED043
:1021E000B8F5041F18D10AE0CB6815E0CB681B1DB9
:1021F00012E0CB6808330FE0CB680C330CE08B683F
:102200002BB1012B4FF0080303D0456104E00423F8
:1022100002E0056100E00023FF2A01D8064601E044
:1022200000F104064FEA840501D9A5F12005D6F88E
:10223000008007FA05FC28EA0C0803FA05F548EACD
:102240000508C6F800804D68ED0062D5374DAE69CF
:1022500046F00106AE61AD6924F0030605F0010504
:102260000095334D06EB050CDCF80850A607360F39
:1022700007FA06F825EA0805DFF8B880404503D1DB
:102280004FF0000817E044E0DFF8AC80404502D191
:102290004FF001080FE0DFF8A480404502D14FF075
:1022A000020808E0DFF89880404502D14FF00308AB
:1022B00001E04FF0040808FA06F848EA0508CCF8EF
:1022C00008804D68D9F80060ED024D4601D51643EF
:1022D00000E096432E604D68DAF80060AD02554686
:1022E00001D5164300E096432E604D68DBF8006090
:1022F000AD035D4601D5164300E096432E604D6860
:10230000DEF80060ED03754601D5164300E0964304
:102310002E60641C0D682A46E5407FF431AFBDE8AD
:10232000F88F000008040140000011100010024066
:102330000000014000080140000C01400010014075
:10234000001401408068084000D001207047000060
:1023500001488068704700000000002070B504004C
:1023600025D094F83D00002520B984F83C50204643
:1023700000F0B8F8242084F83D002068016821F0BE
:10238000010101602068016841F40041016020689A
:10239000016821F40041016000F042FB4D4A616890
:1023A000914201D84C4900E04C49884201D20120B9
:1023B00070BD4B492368B0FBF1F15E6826F03F0623
:1023C0000E435E606368934206D94FF49673594397
:1023D0004FF47A73B1FBF3F12368491C1E6A26F0AF
:1023E0003F06314319626168914210D84900401E8E
:1023F000B0FBF1F2521CC2F30B02042A01D20420FA
:1024000022E0B0FBF1F0401CC0F30B001CE0A2681E
:10241000F2B301EBC10303EB0116431EB3FBF6F36A
:102420005B1C43F480431B0549D092B301EBC1020E
:1024300002EB0111401EB0FBF1F0401CC0F30B0099
:1024400040F4804040F400402168CA694CF6FF73B4
:102450009A431043C861D4E9071001432068026819
:1024600022F0C00211430160D4E903010143206856
:10247000826848F2FF339A4311438160D4E9050131
:1024800008432168CA6822F0FF021043C86001E0D7
:102490000EE016E02068016841F00101016025644A
:1024A000202084F83D00256384F83E50002070BD54
:1024B00001EB4106431EB3FBF6F35B1CB3E70120BF
:1024C000C2E701EB4101401EB0FBF1F0401CC0F33C
:1024D0000B00B7E7A086010080841E0000093D00C4
:1024E00040420F0030B585B000210091019102916A
:1024F00003911E4D03681E4C122103221D48AB425E
:1025000016D1A36943F00803A361A369039203F002
:1025100008030493C023CDE900316946FFF722FE8A
:10252000E06940F40010E061E06900F4001019E097
:10253000114DAB4217D1A36943F00803A361A3690E
:10254000039203F0080304934FF44063CDE9003194
:102550006946FFF707FEE06940F48000E061E0694A
:1025600000F48000049005B030BD0000005400402D
:1025700000100240000C01400058004002488168F1
:10258000027811448160704700000020074810B5B0
:10259000016841F010010160032000F0ABF80F204A
:1025A00000F006F800F050F8002010BD00200240B6
:1025B00030B505461F4887B0C16941F00401C161CB
:1025C000C06906A900F00400009001A800F008FA14
:1025D0000498B0B100F024FA40001749174AB0FB44
:1025E000F1F11748491E0260416040F2E7320021D4
:1025F000C0E903218160816100F084FD040003D003
:1026000015E000F00DFAE8E70D4800F0A9FD040020
:102610000DD11E2000F040F8102D07D200222946CF
:102620001E2000F047F80748056000E0012407B0CD
:10263000204630BD0010024040420F00000800401C
:102640006802002004000020114808B5816941F0AB
:1026500001018161816901F001010091C16941F0CD
:102660008051C161C069002200F080500090114685
:10267000501F00F01FF800220F21901E00F01AF8E2
:102680000448416821F0E06141F00071416008BDFB
:102690000010024000000140002809DB00F01F028A
:1026A000012191404009800000F1E020C0F80011B4
:1026B00070470000F0B40E4B1B680C46C3F30223B6
:1026C000C3F10705042D00D90425191D072901D2DE
:1026D000002300E0DB1E012606FA05F1491E214019
:1026E00099409E40761E16403143F0BC02F037BF41
:1026F0000CED00E0064900F0070208684FF6FF0302
:10270000184040EA0220034A104308607047000066
:102710000CED00E00000FA05014901200862704755
:1027200000000E4210B501460020234C012922D0A2
:10273000022939D010291DD161682268D20119D52A
:102740001E48C1F38342C903805C0AD561681B4AF5
:10275000C1F34041921E515C194AB2FBF1F148436A
:1027600001E0184948436168490203D4400003214D
:10277000B0FBF1F010BD226AC2F30121012903D19F
:10278000920701D5C80310BD022905D1626A9207DC
:1027900002D549F6404010BD0329FCD121688903C8
:1027A000F9D54FF2244010BD00F04AF96168C1F339
:1027B0008131491C4900DBE700100240E89700081E
:1027C00000127A0000093D002DE9F8430546007823
:1027D000354CC00754D0E0690026C00008D4E06939
:1027E00040F08050E061E069012600F080500090E8
:1027F0002E480168C90512D40168804641F48071F1
:102800000160FFF7A5FD074605E000BFFFF7A0FD4B
:10281000C01B642823D8D8F80000C005F6D5206A6C
:1028200010F4407021D0A98801F4407181421CD07D
:10283000206A1F49012220F440700A6000220A60C9
:102840002062C00711D0FFF783FD074641F28838A8
:1028500008E000BFFFF77CFDC11B414502D9032002
:10286000BDE8F883206A8007F4D5206A696820F4FF
:102870004070084320621EB1E06920F08050E061A2
:102880002878800705D56068A96820F4404008438F
:1028900060602878C00605D56068E96820F480008B
:1028A000084360600020DBE7001002400070004039
:1028B000400442422DE9F0470F46050061D0434EE7
:1028C000306800F00700B84209D2306820F00700F5
:1028D00038433060306800F00700B84251D12868B2
:1028E0003B4C810712D5400703D5606840F4E06097
:1028F00060602878000703D5606840F4605060602D
:102900006068A96820F0F000084360602878C0077C
:1029100028D06868012810D02168022810D08907C3
:1029200000292EDA616821F0030101436160FFF79D
:102930000FFD804641F288390DE021688903EFE7F9
:102940008901EDE7FFF704FDA0EB0801494502D935
:102950000320BDE8F0876068696800F00C00B0EB08
:10296000810FEFD1306800F00700B8420BD9306812
:1029700020F0070038433060306800F00700B842AC
:1029800001D00120E5E72878400705D56068E968AF
:1029900020F4E060084360602878000706D560688E
:1029A000296920F4605040EAC100606000F058F8E6
:1029B0006168084AC1F30311515CC84006490860C8
:1029C00006480068FFF7F4FD0020C2E7002002403F
:1029D00000100240F89700080C00002004000020BE
:1029E0000F2202600C4A536803F0030343605368EC
:1029F00003F0F0038360536803F4E063C36052683C
:102A00004FF4E06303EAD20202610448006800F078
:102A100007000860704700000010024000200240DC
:102A20000448054900684968044AC1F30221515C21
:102A3000C84070470C0000200010024008980008B1
:102A40000448054900684968044AC1F3C221515C41
:102A5000C84070470C000020001002400898000891
:102A60000E4A51680E4801F00C03042B11D0082BBC
:102A70000FD10C48C1F38343C903C05C0AD5516828
:102A8000084AC1F34041921E515C054A5043B0FBD5
:102A9000F1F07047044948437047000000100240BD
:102AA00000127A00D697000800093D002DE9F84F82
:102AB000040070D02078C04DC00749D06868C0F3CA
:102AC0008100012807D06868C0F38100022809D17D
:102AD0006868C00306D52868800339D56068002877
:102AE000E7D035E06068B0F5803F0BD010B1B0F5AD
:102AF000A02F11D0286820F480302860286820F4A6
:102B0000802002E0286840F480302860606890B13E
:102B1000FFF71EFC06460AE0286840F48020286083
:102B2000F0E700BFFFF714FC801B642873D8286807
:102B30008003F7D50CE0FFF70BFC064605E000BF6D
:102B4000FFF706FC801B6428F0D828688003F7D4C0
:102B500020789A4E80074FF001094FF0000839D5D0
:102B6000686810F00C0F07D06868C0F38100022875
:102B700009D16868C00306D42868800714D5206985
:102B8000012808D110E02069B0B1C6F80090FFF725
:102B9000DFFB074605E00AE1FFF7DAFBC01B02286E
:102BA000C4D828688007F7D52868616920F0F80044
:102BB00040EAC10028600DE0C6F80080FFF7C8FBBE
:102BC000074604E0FFF7C4FBC01B022823D828688F
:102BD0008007F7D4207800072CD57948A169D9B1AE
:102BE000C0F80090FFF7B4FB074604E0FFF7B0FB26
:102BF000C01B02280FD8686A8007F7D571484FF4C8
:102C0000FA510068B0FBF1F0009000BF0098411E3F
:102C10000091FAD20EE080E0C0F80080FFF798FB48
:102C2000074604E0FFF794FBC01B022875D8686ACA
:102C30008007F7D42078400760D5E8690027C000F6
:102C400008D4E86940F08050E861E869012700F0A5
:102C5000805000905C480168C90513D40168834620
:102C600041F480710160FFF773FB824606E000BF0C
:102C7000FFF76EFBA0EB0A0064284ED8DBF80000DB
:102C8000C005F5D5E06801280AD008B1052813D0A1
:102C9000286A20F001002862286A20F0040002E07F
:102CA000286A40F001002862E06841F2883B98B150
:102CB000FFF74EFB82460BE0286A40F004002862D2
:102CC000EEE700BFFFF744FBA0EB0A0159455AD8D5
:102CD000286A8007F6D50CE0FFF73AFB824605E04C
:102CE000FFF736FBA0EB0A0159454CD8286A80074C
:102CF000F6D41FB1E86920F08050E861E06988B33C
:102D00006968C1F38101022944D00228C6F86080B5
:102D100004D0FFF71DFB044638E034E0FFF718FB52
:102D2000074604E0FFF714FBC01B02282BD82868D5
:102D30008001F7D4206AB0F5803F05D16868A168AA
:102D400020F4003008436860D4E90801084369684A
:102D500021F4741108436860C6F86090FFF7F8FA30
:102D6000044606E025E000BFFFF7F2FA001B022848
:102D700009D828688001F7D51BE000BFFFF7E8FA03
:102D8000001B022802D90320BDE8F88F28688001C3
:102D9000F4D40EE00128F7D06868226A00F480318C
:102DA000914204D1616A00F47010884201D0012080
:102DB000EAE70020E8E7000000100240000042427D
:102DC000800442420C0000200070004070477047B1
:102DD00010B5044600680168C90717D04168C907E3
:102DE00014D040684007204607D5FFF7F0FF216860
:102DF0006FF004004860042002E0FFF7E7FF0120C5
:102E000060742068416821F00101416010BD00003C
:102E100070B5040003D0607C002610B105E00120ED
:102E200070BD2674204600F03DF8022060742046F4
:102E300000F014F9042550BB204602F050F830BBD6
:102E40002068416821F007014160A06820B1144862
:102E5000016821F0010101601148001F0168A268AA
:102E600021F46071114301606068411C04D10120AC
:102E7000FFF758FC58B1401E2268C0F3034191602F
:102E8000216880B2C860204602F044F808B1657439
:102E9000C5E7E67301206073A0736074002070BD05
:102EA000306C004008B500680D49884217D1FFF723
:102EB00033FC0C48C16941F00061C161C0690A4935
:102EC00000F000600090012008600022052103202E
:102ED000FFF7F0FBBDE808400320FFF7DDBB08BDAE
:102EE00000280040001002403C0442422DE9F0411D
:102EF0000D4604003BD0C5B3207C01283AD04FF0EA
:102F0000010884F8108002206074E87872B301F040
:102F1000DDFFE073687801F0D9FF6073A87801F0F5
:102F2000D5FFA073C2B2617BE07B02F02CF8207366
:102F30002870204602F017F84FF46161B0FBF1F100
:102F4000002518292DD91822B1FBF2F1A1EB0111AE
:102F500001EB4101C1EB011100EBC11631462046E6
:102F600002F050F80427C8B90BE000E004E00120AB
:102F7000BDE8F0810220FBE7E07368786073A87811
:102F8000CFE7204601F0E8FF411C0AD0B04208D24A
:102F900006490144204602F021F810B167742574F7
:102FA000E5E784F8118025740020E1E780510100F5
:102FB0002DE9F0410D46040024D01DB3207C0128EA
:102FC00023D04FF0010884F8108002206074287824
:102FD000EAB101F07BFF4FF4616100FB01F6687814
:102FE00001F074FFC0EB001006EB8006A87801F03A
:102FF0006DFF35182946204602F004F80026042704
:1030000010BB0FE00120BDE8F0810220FBE74FF488
:10301000616148436978C1EB011100EB8100A97837
:103020004518E7E72068416821F005014160204626
:1030300001F092FF411C0AD0A84208D2064901447F
:10304000204601F0CBFF10B167742674DAE784F8EC
:10305000118026740020D6E78051010070B504006D
:103060000AD02068416821F008014160FFF770F93B
:1030700005464FF47A7608E0012070BDFFF768F945
:10308000401BB04201D9032070BD20684068000792
:10309000F4D5002070BD70477047000070B590F8FF
:1030A0003C20012A26D0012480F83C40022280F8EE
:1030B0003D2003685A689D6822F070060A68324312
:1030C0005A600D4B02689A4208D0B2F1804F05D089
:1030D0000A4B9A4202D00A4B9A4204D1496825F021
:1030E00080031943916080F83D40002180F83C1036
:1030F000084670BD022070BD002C01400004004055
:103100000008004010B5040003D094F83D0010B151
:1031100007E0012010BD002084F83C00204600F0AC
:103120001EF8022084F83D00211D206801F0D6FF22
:10313000012084F8460084F83E0084F83F0084F8BB
:10314000400084F8410084F8420084F8430084F889
:10315000440084F8450084F83D00002010BD70470D
:1031600090F83D10012901D001207047022180F81C
:103170003D100168CA6842F00102CA6000680B494C
:10318000884208D0B0F1804F05D00949884202D06A
:103190000849884204D1816801F00701062903D05B
:1031A000016841F00101016000207047002C0140DE
:1031B000000400400008004070472DE9F04104463B
:1031C0000068C66805694FF00007A90713D5B10765
:1031D00011D5F91E016101202077206880698007E0
:1031E000204602D0FFF7E8FF04E000F0A3F82046F5
:1031F00000F046F92777680716D5700714D52168BF
:103200006FF004000861022020772068806910F4C4
:10321000407F204602D0FFF7CFFF04E000F08AF89D
:10322000204600F02DF92777280715D5300713D54C
:1032300021686FF008000861042020772068C069C9
:103240008007204602D0FFF7B7FF04E000F072F8D5
:10325000204600F015F92777E80616D5F00614D5B4
:1032600021686FF010000861082020772068C0698D
:1032700010F4407F204602D0FFF79EFF04E000F0EC
:1032800059F8204600F0FCF82777E80708D0F00747
:1032900006D021686FF001000861204600F0F2F8C6
:1032A000280608D5300606D521686FF08000086131
:1032B0002046FFF7F0FE680608D5700606D521689F
:1032C0006FF040000861204600F0E6F8A8060AD535
:1032D000B00608D521686FF0200008612046BDE8DF
:1032E000F041FFF7D9BEBDE8F081000000B585B020
:1032F000002100910191029103910068B0F1804F8B
:1033000011D10A48816941F00401816180696946EF
:1033100000F004000490042000900220019003902B
:103320000348FEF71FFF05B000BD0000001002407B
:1033300000080140704770B5044690F83C00002634
:103340000D4601280FD0012084F83C006AB1042A00
:103350001DD0082A2FD00C2A3FD00126002084F847
:103360003C00304670BD022070BD206801F0F2FEC6
:103370002068816941F0080181612068816921F03C
:1033800004018161206881692A69114311E0206884
:1033900001F008FF2068816941F4006181612068C3
:1033A000816921F480618161206881692A6941EA2B
:1033B00002218161D2E7206801F020FF2068C16905
:1033C00041F00801C1612068C16921F00401C161B7
:1033D0002068C1692A69114311E0206801F03AFFB1
:1033E0002068C16941F40061C1612068C16921F4AC
:1033F0008061C1612068C1692A6941EA0221C16115
:10340000ACE710B5040003D094F83D0010B107E01C
:10341000012010BD002084F83C00204600F01EF87A
:10342000022084F83D00211D206801F057FE012094
:1034300084F8460084F83E0084F83F0084F8400099
:1034400084F8410084F8420084F8430084F8440082
:1034500084F8450084F83D00002010BD08B50068E0
:10346000B0F1804F08D10548C16941F00101C16147
:10347000C06900F00100009008BD0000001002408B
:103480007047000000680349884201D1FFF776B811
:103490007047000000080040704770477047000008
:1034A000F8B5016804460868CA684B6910F00F0F48
:1034B0004FF0000559D003F0010602F4907737432E
:1034C00065D0C10705D0D10503D5616C41F001017C
:1034D0006164410705D5D90703D0616C41F0020151
:1034E0006164810705D5D90703D0616C41F00401FF
:1034F0006164010707D502F02001314303D0616CFC
:1035000041F008016164616C00293AD0800604D55D
:10351000900602D5204601F047FF20684069616CA3
:10352000C0F38010090700D460B3204601F007FF04
:1035300020684069400621D52068143050E8001FFB
:1035400021F0400140E80012002AF5D1E06BA8B15B
:103550006D494163E06BFEF7A9FC002811D0E06BD8
:10356000416B01B0BDE8F040084783060FD59306D4
:103570000DD52046BDE8F84001F016BF2046FFF704
:103580008DFFF8BD2046FFF789FF6564F8BD266B07
:103590002023012E7CD1C6067AD5D60678D50868B8
:1035A0004868009048694FF00206400640D5E16B3C
:1035B000086840680004000CE8D0A28D8242E5D97A
:1035C000E085886920282DD020680C3050E8001F45
:1035D00021F4807140E80012002AF5D120681430EF
:1035E00050E8001F21F0010140E80012002AF5D147
:1035F0002068143050E8001F21F0400140E800121C
:10360000002AF5D184F84230256320680C3050E858
:10361000001F21F0100140E80012002AF5D1E06BF4
:10362000FEF720FC6663A08DE18D401A81B22AE08E
:10363000A08DE18D401A81B2E08D0028A6D000292E
:10364000A4D022680C3252E8000F20F4907042E8B7
:103650000007002FF5D12068143050E8002F22F029
:10366000010240E80027002FF5D184F8423025639D
:1036700020680C3050E8002F22F0100240E80023B0
:10368000002BF5D166632046FFF707FFF8BDFFE783
:1036900005062BD5150629D594F841002128F5D12A
:1036A000A068B0F5805F01D12069B0B1206A411CEB
:1036B0002162216800784860E08C401E0004000C04
:1036C000E084E3D12068C16821F08001C1602068F6
:1036D000C16841F04001C160D8E7206A0088C0F3AA
:1036E00008004860206A801C2062E5E74006CDD5CE
:1036F0005006CBD5CA68204622F04002CA6084F842
:10370000413000F0CBF8C1E79952000870B50400D1
:1037100004D094F84100002510B106E0012070BDEE
:1037200084F84050204600F023F8242084F841001B
:103730002068C16821F40051C160204601F096FE66
:103740002068016921F4904101612068416921F0FC
:103750002A0141612068C16841F40051C16065647B
:10376000202084F8410084F842006563002070BD89
:1037700070B586B000250646009501950295039523
:103780000068224988423FD12149886940F480403D
:103790008861886900F480400490886940F00400E2
:1037A000886188691B4C00F0040004904815009063
:1037B000022001900320039069462046FEF7D2FCC8
:1037C0002015CDE90005694620460295FEF7CAFCA2
:1037D000124C114820601020C4E901058020C4E982
:1037E00003056561A5612046E561FEF755FC08B15A
:1037F000FEF724FBB4630022052125206662FEF754
:1038000059FF2520FEF748FF06B070BD0038014083
:103810000010024000080140440002402402002041
:103820007047000070B5044690F84100202801D090
:10383000022070BD49B342B32162A284E284002019
:103840006064212384F84130A56B114BAB62A56BFA
:10385000104BEB62A56B104B2B63A36B5863256871
:1038600013462A1DA06BFEF745FC21686FF040004F
:1038700008602068143050E8001F41F0800140E8E3
:103880000012002AF5D1002070BD012070BD00009B
:10389000F352000835530008A95200087CB50068AF
:1038A0000D49884216D1002501A80C4CCDE9000530
:1038B000626903232946E06802F02CFE65610198E5
:1038C000002807D006494FF080500860BFF34F8FA3
:1038D000BFF36F8F7CBD0000003801408C000020DA
:1038E00004ED00E070470000044A516800EBC0009E
:1038F000C00053685B1A8342FBD37047001000E09E
:1039000000487047C400002010B586B0124800245B
:103910000294816941F0080181618069694600F083
:1039200008000490C0200090112001900320039013
:103930000A48FEF717FC0A480168C90103D4016868
:1039400041F08071016007484460016841F0010165
:10395000016006B010BD000000100240000C0140E4
:10396000FCED00E0001000E02DE9FF5F98460D46F9
:10397000044600F087F96006000E00F05FF900F0E1
:10398000ADF9B0B9284600F059F900F0A7F928B10F
:1039900000F08CF9022004B0BDE8F09F00F072F94D
:1039A000012000EB4400C0B200F048F900F096F9A5
:1039B00018B100F07BF90120EDE7DFF88C900025CD
:1039C000402709F1040A39E000248021C9F80010D9
:1039D000DFF874B02646ABF1080B00BFCAF80070E0
:1039E0000520FFF781FFC9F800700520FFF77CFF75
:1039F0006006040EDBF80000000601D544F0010467
:103A0000761C082EEADB5646CAF800700298445528
:103A1000A8F101008542CAF800704FF0800002DA78
:103A2000C9F8000000E030600520FFF75DFFC9F82D
:103A300000700520FFF758FF37606D1C4545C3DB5C
:103A400000F034F90020A6E7100C01402DE9F04108
:103A50001D4616460F46044600F014F96006000E97
:103A600000F0ECF800F03AF920B100F01FF9012065
:103A7000BDE8F081384600F0E1F800F02FF938B9E0
:103A800000240BE0305D00F0D9F800F027F918B100
:103A900000F00CF90220EBE7641CE4B2AC42F1D375
:103AA00000F004F90020E3E738B513A21AA10220C0
:103AB00002F0ACFBFFF724FF194C20600068804740
:103AC00018A215A1022002F0A1FB03200090002300
:103AD0004FF480721D491EA002F0D6FC606030B128
:103AE0001FA20DA10220BDE8384002F08FBB29A221
:103AF00009A10020F7E70000496E697469616C69EB
:103B00007A696E67204932432073756273797374E2
:103B1000656D2E2E2E000000544553540000000009
:103B2000A80000205357204932433120696E697440
:103B300069616C697A656420285042363D53434C74
:103B40002C205042373D534441290000B53B00082A
:103B50004932435F4F4C45445F7465737400000005
:103B60004932432074657374207461736B206372EF
:103B700065617465642028737461636B3D3235360A
:103B800020776F7264732C207072696F7269747918
:103B90003D33290049324320746573742074617386
:103BA0006B206372656174696F6E206661696C6514
:103BB0006421000008B515A21AA1022002F026FB1C
:103BC00000F086FE00F0E0F90024062541F2883678
:103BD0000823262238215A2000F0A8F92246641C26
:103BE000042338215A20009501F052F80823262298
:103BF00038215A2001F020F923460CA209A1032004
:103C000002F004FB304602F083FCE1E74932432036
:103C100074657374207461736B207374617274655E
:103C20006400000054455354000000004865617270
:103C300074626561743A20256C7500002DE9F047C7
:103C40000F4F002405464FF080094026A7F10408D5
:103C50003E602806484602D5C8F8000000E03860FB
:103C60006806050E0520FFF73FFEC8F80060052036
:103C7000FFF73AFE641C082CEADB3E60BDE8F087E3
:103C8000140C014070B5084880250560402404608C
:103C90000520FFF729FE044E361D35600520FFF78D
:103CA00023FE346070BD0000100C014070B50A485E
:103CB00040250560802404600520FFF715FE064EB0
:103CC000361F35600520FFF70FFE3460BDE87040F9
:103CD0000520FFF709BE0000140C014070B50A4D25
:103CE00040242C6080202E1F30600520FFF7FCFD53
:103CF00034600520FFF7F8FD03480C3800682C609D
:103D0000C0F3C01070BD0000140C0140094808B594
:103D1000416941F0010141614069002200F0010068
:103D2000009005210E20FEF7C5FCBDE808400E20DE
:103D3000FEF7B2BC0010024030B585B00020039001
:103D40001A48816941F010018161816901F0100117
:103D50000491816941F020018161816901F02001B4
:103D60000491816941F004018161816901F00401DC
:103D70000491816941F0080181618069012400F0AA
:103D8000080004900A480B4DCDE9004069462846DA
:103D90000294FEF7E7F9502000900748CDE90104AE
:103DA00069462846FEF7DEF905B030BD0010024036
:103DB0000000311000080140000021100D4810B52E
:103DC0000B4901600C49416000214FF48042816041
:103DD000C0E9031241618161C1610162FEF7BEFA6F
:103DE000002803D0BDE81040FEF728B810BD000041
:103DF000005800402C010020A08601007CB5002462
:103E000019480194174900940160611EC0E901142A
:103E1000FEF7FEFF08B1FEF711F823258DF80450D8
:103E200059208DF805008DF80640012201A90E48A1
:103E3000FFF7BEF808B1FEF701F804208DF8000086
:103E40008DF801008DF8025026208DF80300012224
:103E500069460548FFF74AF8002801D0FDF7EEFF54
:103E60007CBD0000002800408001002010B58AB011
:103E7000002407941C2168460894FCF72EFC164881
:103E80004FF0804101604721C0E9011440F2E73161
:103E9000C0E9031480218161FFF7B3FA08B1FDF78F
:103EA000CDFF079407A90C480894FFF7F7F808B16D
:103EB000FDF7C4FF6020CDE90004029408226946A2
:103EC00005480494FFF737FA08B1FDF7B7FF024839
:103ED000FFF70CFA0AB010BD940100200C4810B591
:103EE0000A4901604FF4E1314160002181600C22F8
:103EF000C160C0E904128161C161FFF707FC0028BD
:103F000003D0BDE81040FDF799BF10BD0038014057
:103F1000DC010020FCF78EF9FEE7FEE74FF480613C
:103F20000148FCF7B8BB000044340020F0B50B4456
:103F300024E0044685181DE07F2C19D8002917DBE2
:103F40003F2915DCCE1701EB56764FEAE60C0D4FF4
:103F500026F0070607EBCC172744A1EB060E97F8CF
:103F600000C0012606FA0EF62CEA060C87F800C0FF
:103F7000641C24B2A542DFDC491C09B28B42D8DCA8
:103F8000F0BD0000443400202DE9FE4FC3A2CDA1B6
:103F9000022002F03BF9CDA2CAA1022002F036F9BC
:103FA000FFF7BCFF01240021402380220846009433
:103FB00000F0C2FB00F02CFF4FF47A79484602F083
:103FC000A7FAFFF7ABFF00F023FF4FF4FA7B584648
:103FD00002F09EFAC9A2BBA1022002F017F900214B
:103FE0000823CDA2084600F0A5FE0623CEA210218C
:103FF000002000F09FFE0823CFA22021002000F027
:1040000099FE00F005FF4FF4FA6A504602F080FA7C
:10401000CCA2ACA1022002F0F9F8FFF77FFF00214B
:104020000823D04A084600F085FE0823CE4A18210E
:10403000002000F07FFE0623CC4A3021002000F053
:1040400079FE00F0E5FE504602F062FAC8A29DA19A
:10405000022002F0DBF8FFF761FF082543F2390880
:104060000021052342460846009500F011FE042376
:10407000C54A14210020009500F02DFE04234AF6C5
:10408000CD3228210020009500F080FD062608236F
:10409000A52238210020009600F0C5FC00F0B8FEF3
:1040A000504602F035FAB9A286A1022002F0AEF81D
:1040B000FFF734FF0427CDE900470021BB4ABC4B82
:1040C0000846029500F0FEFCCDE90047B94ABA4B1C
:1040D00014210020029500F0F5FC0320CDE90040FA
:1040E0000022134628210295104600F0EBFC00F058
:1040F0008FFE504602F00CFAB0A272A1022002F02C
:1041000085F8FFF70BFF02F0A9F800210090B5A396
:104110000822084600F05FFC03F006FE0090B4A3FE
:1041200006221421002000F056FCB4A30622202110
:104130000020CDF8008000F04EFC00F069FE5046F3
:1041400002F0E6F9B0A25FA1022002F05FF8FFF7EB
:10415000E5FE00213F237F22084600F05EFA00239F
:104160007F223F21184600F058FA00250A21142327
:104170001E220846009500F0DFFA14231E220A21B1
:104180003220009400F0D8FA002308221421642081
:1041900000F0A4F9012308223221642000F09EF9E6
:1041A00037204621CDE900101E2328220295322116
:1041B0000A2000F0FBFA00F02BFE40F6B83002F0C7
:1041C000A7F997A23FA1022002F020F8FFF7A6FE70
:1041D00000270E236C2219210A20FFF7A7FE0E23C9
:1041E0006C2219210A20009500F0A6FA06233A460F
:1041F0001D210E20009400F09FFA03233A462D2142
:104200003220009600F044FD06238DA22D2144208B
:1042100000F090FD1E236C2219210A2000F00CFEF4
:10422000142002F075F97F1CFFB2642FD1D95846D3
:1042300002F06EF983A223A1022001F0E7FFFFF74D
:104240006DFE082389A200210A2000F073FD0623D9
:1042500089A214210A2000F06DFD0823894A20213B
:104260000A2000F067FD3F233C221946002000F0A1
:10427000D4F900F0CDFD84A212A1022001F0C6FF06
:1042800001F0ECFF0346B0FBF9F0009088A20DA10D
:10429000022001F0BBFFBDE8FE8F00003D3D3D3D2B
:1042A000204F4C45442066756E6374696F6E616C77
:1042B0002074657374207374617274203D3D3D3DBC
:1042C0000000000054455354000000005B54657327
:1042D0007420315D2046756C6C2073637265656E69
:1042E0002066696C6C202D3E20636C656172202D08
:1042F0003E20726566726573680000005B546573EA
:104300007420325D204153434949207465787420FC
:10431000646973706C61790048656C6C6F20576FCD
:10432000726C64210000000053544D33324631302A
:1043300033433854360000003031323334353637A9
:10434000383900005B5465737420335D204368691D
:104350006E657365207465787420646973706C6130
:104360007900000001B100080EB1000821B1000879
:104370005B5465737420345D204E756D62657220E8
:10438000646973706C6179002EFBFFFF5B54657389
:104390007420355D20466C6F6174206E756D6265AA
:1043A0007220646973706C61790000006E861BF086
:1043B000F921094090F7AA9509BF05C05B546573C0
:1043C0007420365D204F4C45445F5072696E7466B0
:1043D00020666F726D6174746564206F757470759A
:1043E000740000005469636B3A20256C750000006E
:1043F000486561703A2025750000000054696D65BC
:104400003A2025646D7300005B5465737420375D3A
:104410002053686170652064726177696E6700007F
:104420005B5465737420385D2050726F67726573DA
:10443000732062617220616E696D6174696F6E00D4
:10444000250000005B5465737420395D2046696E59
:10445000616C2073637265656E202D2074657374C2
:1044600020636F6D706C6574650000004F4C4544AF
:104470002054657374000000416C6C207465737483
:104480007300000033B100083D3D3D3D204F4C45D9
:10449000442066756E6374696F6E616C2074657319
:1044A0007420636F6D706C657465203D3D3D3D000B
:1044B000546573742066696E6973686564206174FD
:1044C000207469636B3A20256C7520287E256C75F5
:1044D000207365636F6E6473290000002DE9FF4F40
:1044E000804687B0C2F10100144603900D460819BA
:1044F00001B200264746404600F004F9281B01B2ED
:10450000384600F0FFF808EB040000B2294600F03E
:10451000F9F8A8EB040000B2294600F0F3F80A9875
:10452000002875D0674206E0E81901B2404600F065
:10453000E9F87F1C3FB2A742F6DB69E0761C0398DE
:1045400036B2002802DA00EB460004E0641E24B212
:10455000311B00EB4100401C00B20390281901B24E
:1045600008EB060000B281460291069000F0CAF8FE
:10457000A81901B208EB040000B28346059100F0CF
:10458000C1F8281B01B2A8EB060000B20F4601904B
:10459000009000F0B7F8A81B01B2A8EB040000B22D
:1045A0008246049100F0AEF83946484600F0AAF879
:1045B0005846049900F0A6F80299009800F0A2F875
:1045C0005046059900F09EF80A9808B3604207B279
:1045D0000BE0E81901B28946069800F093F84946C5
:1045E000019800F08FF87F1C3FB2A742F1DB7042C8
:1045F00007B20BE0E81901B28946504600F082F894
:104600004946584600F07EF87F1C3FB2B742F1DBC6
:10461000A64293DB0BB0BDE8F08F2DE9F04F1E46AC
:104620004FF0000904460D461746C846B1420ED168
:10463000BC4208DD2746144605E02946204600F026
:1046400061F8641C24B2BC42F7DDBDE8F08FBC42C7
:104650000DD1B54208DD1D460E4605E0294620462F
:1046600000F050F86D1C2DB2B542F7DDEDE703DD2B
:10467000274614461D460E46B54205DD684205B282
:10468000704206B24FF00109701B391B884207DDEA
:1046900020462C4605463846374606464FF0010868
:1046A000701B4200391B0FFA82FB421A52000FFAAC
:1046B00082FAC1EB400019E0604201B203E06842B7
:1046C00001B203E02146284601E02946204600F0D9
:1046D00019F8BC42B9DA641C24B2002E02DA06EBE7
:1046E0000B0003E06D1C2DB206EB0A0006B2B9F117
:1046F000000F03D0B8F1000FE1D0DDE7B8F1000FF3
:10470000E3D0DFE710B57F2813D8002911DB3F295C
:104710000FDCCA1701EB5272D410064B22F00702CD
:1047200003EBC41318448A1A0378012191400B4308
:10473000037010BD443400202DE9F0430446CD1829
:1047400007988846A618274668BB681E0FFA80F9A6
:1047500009E041463846FFF7D5FF49463846FFF79E
:10476000D1FF7F1C3FB2BE42F3DC761E474636B215
:1047700009E039462046FFF7C5FF30463946FFF7C6
:10478000C1FF7F1C3FB2BD42F3DCBDE8F08344466D
:1047900005E021463846FFF7B5FF641C24B2A54268
:1047A000F7DC7F1C3FB2BE42F1DCEEE72DE9F04FB3
:1047B00086B00E46DDE910710F9DADF80000ADF832
:1047C00008609A4690460446B146ADF80220ADF81E
:1047D0000450ADF80A30ADF80C70F9B1414680458F
:1047E00000DA0846854200DA2846CA4500DAD14692
:1047F0004F4500DAB9464146A04500DD0C46A542CA
:1048000000DD2C465146B24500DD0E46B74200DDC4
:104810003E468346A04213DC4D4651E05346424695
:1048200031462046FFF7F9FE3B462A4631462046F0
:10483000FFF7F3FE3B462A4651464046FFF7EDFEA2
:1048400006B0BDE8F08F032005900020EE4602AAD6
:104850000221049032F91030AB4202DD4FF0010C1E
:1048600001E04FF0000C32F911A0AA4501DD01274B
:1048700000E00027BC4513D03EF911703EF910103E
:10488000A7EB010CEF1A0CFB07FCAAEB03039CFB44
:10489000F3F30B445B4503DD0499B9B100210491A6
:1048A0000146401C059B00B29842D3DB049810F0EF
:1048B000FF0F03D029465846FFF724FF6D1C2DB289
:1048C000B542C0DD0BF1010000B2A2E70121E6E72D
:1048D00010B530A234A1022001F098FCFFF710F8C7
:1048E0003349086000688047AE2000F0D5FAD52033
:1048F00000F0D2FA802000F0CFFAA82000F0CCFA25
:104900003F2000F0C9FAD32000F0C6FA002000F0E2
:10491000C3FA402000F0C0FA8D2000F0BDFA142048
:1049200000F0BAFA202000F0B7FA002000F0B4FA44
:10493000A12000F0B1FAC82000F0AEFADA2000F0B1
:10494000ABFA122000F0A8FA812000F0A5FACF20DF
:1049500000F0A2FAD92000F09FFAF12000F09CFAB2
:10496000DB2000F099FA402000F096FAA42000F035
:1049700093FAA62000F090FAAF2000F08DFAFFF72E
:10498000CDFA00F045FABDE810400AA206A10220C7
:1049900001F03CBC4F4C454420496E69742073744F
:1049A0006172742E2E2E00004F4C45440000000012
:1049B000B00000204F4C454420496E697420636F5D
:1049C0006D706C65746500000246012000E0504384
:1049D000491EFCD270470FB470B5C0B014460D46E6
:1049E000064648AB4FF480716846479AFBF79AFC3D
:1049F00023466A462946304600F09CF940B070BC18
:104A00005DF814FB10B50C4640F0B00000F044FA1D
:104A1000102040EA141000F03FFA04F00F00BDE847
:104A2000104000F039BA2DE9F0471D461746894677
:104A300080460024089E12E0291B0220491EFFF731
:104A4000C3FFB7FBF0F000F0010204FB068000B2E8
:104A500033464946303200F007F8641CE4B2AC42F9
:104A6000EAD3BDE8F087000008B5082B0ED0062B6E
:104A700015D00C2B1ED1104B02EBC20203EB8202AD
:104A8000A2F59062182300920C2211E00B4B03EB6D
:104A90000212A2F5007210230092082208E0084BCF
:104AA00002EB420203EB4202C03A009208230622C4
:104AB00000F090F808BD00003AA000081098000827
:104AC000009E00082DE9FF5F82B014461D46DDE917
:104AD00011B607460022134620462946DDF84080DD
:104AE00004F048FD334605D82B2238460399FFF7DA
:104AF000BBFF06E02D2238460399FFF7B5FF85F08E
:104B000000452046294604F0BBFB824604F0E5FB45
:104B100022462B4604F064FD05460C4659460A2001
:104B2000FFF752FF814604F0D8FB2A46234604F0E3
:104B300023FC0022144B04F0EFFA04F0A1FBB0FBBD
:104B4000F9F1044601EB0A02B81900B24346009697
:104B5000039900F09DF808F1010000FB067000B217
:104B600033462E220399FFF77FFF08F1020000FB76
:104B7000067000B25B4622460096039900F088F862
:104B800006B0BDE8F09F00000000E03F2DE9F047CF
:104B90001D461746894680460024089E16E0291BBC
:104BA0001020491EFFF710FFB7FBF0F000F00F02D6
:104BB0000A2A01D2303200E0373204FB068000B20C
:104BC00033464946FFF750FF641CE4B2AC42E6D3DB
:104BD000BDE8F0872DE9F04F1F4616460D46824688
:104BE0000024FFF7A3F97F1EF81707EB507001218F
:104BF000DFF898B001EBE00743E000203DE000BFA4
:104C00000AEB00037F2B36D8E91705EB5171CA1068
:104C100021F00701691A002D03DA521E083112B281
:104C200009B202EB0409B9F1070F0ED8099A04FB87
:104C300006F802440BEBC91E18F802201EF803C048
:104C40008A404CEA020C0EF803C009F10102072A5F
:104C500011D80BEBC91202EB0308099A04FB06FCFE
:104C6000024498F880301CF80220C1F10801CA40C3
:104C7000134388F88030401CC0B2B042C0D3641CDB
:104C8000E4B2A742B9DCBDE8F08F00004434002054
:104C90002DE9F04700241D4690468A4681460A27A2
:104CA000089E14E0291B0A20491EFFF78DFEB8FB61
:104CB000F0F0B0FBF7F107FB110204FB069000B225
:104CC000334651463032FFF7CFFE641CE4B2AC42AB
:104CD000E8D3BDE8F0872DE9F0471E46DDF82080D7
:104CE00014008A468146434604D42B22FFF7BCFEBB
:104CF000254603E02D22FFF7B7FE654200240A2770
:104D000014E0311B0A20491EFFF75EFEB5FBF0F0F0
:104D1000B0FBF7F107FB1102641C04FB089000B222
:104D2000434651463032FFF79FFEE4B2B442E8D327
:104D3000BDE8F0872DE9FF4F002583B09B469046E4
:104D40002C46AA46DFF8C09056E010068DF80420E5
:104D500005F101050DD40398ADB220448DF805A0EE
:104D600000B25B460499FFF77FFE04EB0B0084B2B0
:104D700042E0A8B218F80010002941D0401C8DF87C
:104D8000051085B28DF806A0002606E0384601A978
:104D9000FBF7CAFC68B1761CB6B2C6EBC60000EBE6
:104DA000800101EB0900074618A1FBF7BDFC0028B4
:104DB000ECD1BBF1080F03D0BBF1060F1CD111E001
:104DC000C6EBC60000EB800101EB0900C01C00909F
:104DD00003981023204400B21A460499FFF7FAFE04
:104DE000103408E003980623204400B23F220499BF
:104DF000FFF73AFEA41DA4B218F80520002AA4D19A
:104E000007B0BDE8F08F000096AD0008000000007C
:104E100070B5084D002400212046FFF7F3FD05EB97
:104E2000C410802100F044F8641CE4B2082CF2D3D2
:104E300070BD0000443400202DE9F0410646C8173B
:104E400001EB5070C410C8189046401EC21700EB0A
:104E50005270012202EBE00005B2002902DA6D1E59
:104E60002DB2641E0B4F11E07F2E0DD8002C0BDBF2
:104E7000072C09DCF1B2E0B2FFF7C4FD07EBC41068
:104E80003044414600F014F8641C24B2AC42EBDB21
:104E9000BDE8F0814434002031B5044801230021ED
:104EA00000686A4644683C20A04738BDB000002036
:104EB000054A30B412680B46402154680246A446A5
:104EC00030BC3C2060470000B0000020010901EB2D
:104ED000810100F00F0000EB4100C0B2704770B5D7
:104EE0000446FDF735FA05464FF47A7606E0FDF7FD
:104EF0002FFA401BB04201D9032070BD20684068E2
:104F00008006F4D52068416841F01001416000201E
:104F100070BD000070B504460068416821F01001C2
:104F20004160FDF715FA05464FF47A7607E000BFB9
:104F3000FDF70EFA401BB04201D9032070BD206876
:104F400040688006F4D5002070BD00000148FDF7E0
:104F50003FBF0000800100200168086A496A89B2E9
:104F600041EA00407047006881698AB2C1698BB22A
:104F7000816989B28A4203D0C06961F31F407047DA
:104F800043EA02407047F0B56424C1EBC10309272E
:104F9000A500072603EB01130329B3FBF7F100F586
:104FA000FA60114401440AD2401EB0FBF4F201EB56
:104FB0009001B0FBF5F0891A0844001D08E0B0FB31
:104FC000F4F201EB9001B0FBF5F0891A0844801C63
:104FD000B0FBF6F106FB1100C0B2F0BD70B50D4696
:104FE00006460024FFF77BFF48B93168280C0862A9
:104FF0003168A8B248623046FFF78CFF00B1012447
:10500000204670BD70B50D4606460024FFF767FFC9
:1050100048B93168280C88613168A8B2C861304647
:10502000FFF778FF00B10124204670BD10B5502075
:1050300080F31188BFF34F8FBFF36F8F03F06EFCC7
:1050400018B104494FF080500860002080F31188A7
:1050500010BD000004ED00E070B594B02821684652
:10506000FBF73BFB14210AA8FBF737FB00250124C3
:105070000F951195052012950090CDE902541095D9
:105080004FF48030019002260494CDE907604FF47C
:10509000E01009906846FDF709FD98B90F20CDE9A9
:1050A0000A06A002CDE90C5002210AA80E95FDF7D0
:1050B00001FC38B92002CDE90F400FA8FDF784FBB1
:1050C000002801D0FCF7BAFE14B070BD7047000094
:1050D0000148FEF772B8000068020020F0B50268CF
:1050E000194B1A4C1A4D4FF08047984205D0B842E0
:1050F00003D0A04201D0A84203D122F070064A6832
:105100003243984205D0B84203D0A04201D0A84211
:1051100003D122F44074CA6822434C6922F0800211
:10512000224302608A68C2620A688262984201D1A0
:1051300009690163012141610169C90703D001695E
:1051400021F001010161F0BD002C0140000400408C
:105150000008004030B5036A026A22F001020262D0
:105160004268846924F073050C682C4323F002051F
:105170008B682B430A4DA8420BD123F00805CB685E
:1051800022F440722B434D6923F0040315438A69CE
:105190002A434260846149684163036230BD000074
:1051A000002C014030B5026A036A23F01003036249
:1051B000436884690D6824F4E64444EA05248D6854
:1051C00022F0200242EA05120B4DA8420ED1CD6812
:1051D00022F0800242EA05124D6923F4406343EA5B
:1051E00085038D6922F0400243EA850343608461B0
:1051F00049688163026230BD002C014030B5036A0A
:10520000026A22F4807202624268C46923F4007365
:1052100024F073050C682C438D6843EA05230C4D7C
:10522000A8420ED1CD6823F4006343EA05234D69FB
:1052300022F4405242EA05128D6923F4806342EA67
:1052400005124260C4614968C163036230BD000059
:10525000002C014030B5046A026A22F480520262D6
:105260004268C3690D6823F4E64343EA05238D6869
:1052700024F4005444EA0534064DA84204D14D6993
:1052800022F4804242EA85124260C36149680164A7
:10529000046230BD002C014010B5406A0021C18578
:1052A000C184FEF7FBF810BD70B5446A2068406900
:1052B00094F84110C0F3C0100025212904D118B181
:1052C000E584204600F062F82068406994F84210B6
:1052D000C0F38010222904D118B1E585204600F0E2
:1052E0002EF8606C40F0100060642046FEF7D6F89F
:1052F00070BD10B50146406A09680968890616D470
:105300000021C1840168143151E8002F22F080028D
:1053100041E80023002BF5D101680C3151E8002F42
:1053200042F0400241E80023002BF5D110BDFEF70A
:10533000B5FA10BD10B5406AFEF7D4FA10BD016889
:105340000C3151E8002F22F4907241E80023002B29
:10535000F5D10168143151E8002F22F0010241E833
:105360000023002BF5D1016B012909D101680C3113
:1053700051E8002F22F0100241E80023002BF5D164
:10538000202180F8421000210163704701680C3130
:1053900051E8002F22F0C00241E80023002BF5D194
:1053A000202180F84110704708B590F8421022295A
:1053B00001D0022008BD82684FF480539A4201D187
:1053C000016921B1816A9A421BD04AB10AE00268A0
:1053D000816A5268C2F308020A80816A891C08E067
:1053E000026972B10268526802F07F020A70816A33
:1053F000491C8162C18D491E0904090CC18503D075
:105400001BE002685268F1E70168CA6822F02002D6
:10541000CA600168CA6822F48072CA6001684A6979
:1054200022F001024A61202180F8421000214163EC
:10543000026B012A03D0FEF7F3F9002008BD0163D7
:1054400001680C3151E8002F22F0100241E80023DE
:10545000002BF5D101680A68D20602D50A684968AE
:105460000091818DFEF719F8E7E7000070B504465A
:1054700000680169E26821F440511143016121692A
:10548000A0680843616908432168CA6841F20C6357
:105490009A430243CA6020684169A26921F44071BD
:1054A000114341611E492068884202D1FDF7C8FAC4
:1054B00001E0FDF7B5FA00EBC00101EB00126068F6
:1054C00064218000B2FBF0F3B3FBF1F36FF0180638
:1054D0007343B2FBF0F5B2FBF0F605EB8305322324
:1054E00003EB0515B5FBF1F5B6FBF1F605F0F0059C
:1054F00005EB0615B2FBF0F6B2FBF0F0B0FBF1F0F5
:105500006FF01802504306EB800003EB0010B0FB75
:10551000F1F0216800F00F002844886070BD0000A1
:10552000003801400148FDF7BBBF0000DC0100204E
:10553000FAF780FEFEE7490050EAC12018BF0420B8
:105540004A0D18BF40F0010040F2FF72B2EB515F0C
:1055500008BF40F00200012808BF05207047090776
:10556000090E002804DB00F1E02080F800147047E9
:1055700000F00F0000F1E02080F8141D7047303873
:105580000A2801D20120704700207047FEE7000082
:1055900010B501210348FCF7D5FE002800D00120FA
:1055A00010BD00000008014010B540210348FCF781
:1055B000C9FE002800D0012010BD000000080140F5
:1055C00010B510210348FCF7BDFE002800D00120D3
:1055D00010BD00000008014008B500228DF8000051
:1055E00003488DF801106946006800F099FE08BD77
:1055F000BC00002010B5064800F09CF804481C30A0
:1056000000F098F80248BDE81040383000F092B839
:10561000C438002070B515460E46040001D1FCF7D1
:105620000DFCC4E9056570BD70B515460E46040055
:1056300001D1FCF703FCC4E9036570BD70B51646E3
:105640000D46040001D1FCF7F9FB0DB9FCF7F6FBA0
:105650001C212046FBF741F8A6711EB100206071A5
:10566000A56070BD0120FAE738B50221082000F0DE
:10567000F7FD254C206008B9FCF7E0FB0022234928
:105680002348FFF7DBFF2248002222491C30FFF7A6
:10569000D5FF1F48002220493830FFF7CFFF0122F5
:1056A0001E491B48FFF7C0FF194802221B491C3046
:1056B000FFF7BAFF1648032218493830FFF7B4FF46
:1056C000012216491248FFF7A5FF1148022213498B
:1056D0001C30FFF79FFF0E48032210493830FFF7B8
:1056E00099FF0F480090002301220A210DA000F02D
:1056F0006FFF606008B9FCF7A1FB6068BDE8384047
:10570000002100F097BF0000BC000020A955000850
:10571000C4380020C155000891550008D95500082B
:10572000F555000842746E5F5363616E5F54696D96
:105730006572000070B5040001D1FCF77FFBA06822
:10574000804761790025814207D12571207860B1B9
:10575000012811D0022839D127E02179491CC9B28A
:105760002171032920D36071EFE76079A179884224
:105770001AD10120207027E06079A179884205D0F4
:10578000E2681AB30120216990471FE06088401C3D
:1057900080B26080642807D3626912B10220A169D7
:1057A000904765800220207070BD6079A1798842A1
:1057B0000CD16088401C80B260801428F4D36269E8
:1057C00012B10320A1699047658070BD257070BD3E
:1057D00070B51E4C20681E49884236D1201D0568D0
:1057E000061D4FF47E70854200D90546022119A09E
:1057F00001F0A6FD2B2118A001F0A2FD294630469C
:1058000001F09EFD22211FA001F09AFD2548C168EC
:10581000C907FCD12449416024494160C168C907D6
:10582000FCD1016941F0020101614461016941F06B
:1058300040010161C168C907FCD1016921F0020181
:105840000161016941F08001016170BD00FC000847
:10585000EFBEADDE0D0A00003D3D3D2050524556E5
:10586000494F55532043524153482044554D5020F1
:105870002866726F6D20464C41534829203D3D3DBE
:105880000D0A00000D0A3D3D3D20454E44204F4687
:105890002043524153482044554D50203D3D3D0D3D
:1058A0000A0D0A000020024023016745AB89EFCDB5
:1058B0002DE9F041454800684449091D0F68C4B20C
:1058C000C0F30725060C42A001F0A8FC780002D521
:1058D00045A001F0A3FCB80702D54FA001F09EFC43
:1058E000002F02DA57A001F099FC002C18D02006F6
:1058F00002D55CA001F092FCE00602D565A001F0A3
:105900008DFC200702D571A001F088FCA00702D50C
:105910007CA001F083FCE00702D085A001F07EFCB2
:10592000002D1DD0280602D58EA001F077FCE806D8
:1059300002D598A001F072FC280702D5A3A001F0BF
:105940006DFC680702D5AFA001F068FCA80702D57E
:10595000B8A001F063FCE80702D0C2A001F05EFC31
:10596000002E1DD0B00502D5C9A001F057FCF005EE
:1059700002D5D1A001F052FC300702D5DAA001F027
:105980004DFC700702D5E2A001F048FCB00702D53B
:10599000E9A001F043FCF00702D0F3A001F03EFCC7
:1059A00044EA0500304350EA470002D1F9A001F073
:1059B00035FC200605D505480C300168FEA000F036
:1059C0006DFA280600D5FDE104E2000028ED00E0B4
:1059D0002D2D2D204661756C7420526561736F6E9C
:1059E000202D2D2D000000002020484653523A2043
:1059F000464F524345442020286661756C742065EB
:105A00007363616C6174656420746F2048617264B3
:105A10004661756C742900002020484653523A2094
:105A20005645435454424C2028766563746F722067
:105A30007461626C652072656164206572726F7258
:105A4000290000002020484653523A204445425540
:105A50004745565420286465627567206576656EF3
:105A60007429000020204D4D4653523A204D4D419F
:105A70005256414C49442020284D4D464152206801
:105A80006F6C64732076616C696420616464726514
:105A90007373290020204D4D4653523A204D5354E4
:105AA0004B4552522020202028737461636B696E2D
:105AB000672066726F6D20657863657074696F6EBC
:105AC000206661696C6564290000000020204D4D4E
:105AD0004653523A204D554E53544B455252202076
