:020000040800F2
:10000000F03E0020E10200089F3E00083502000893
:100010009D3E0008FD1D0008054500080000000089
:10002000000000000000000000000000490200087D
:10003000371E0008000000008D0200080140000883
:10004000FB020008FB020008FB020008213F000839
:10005000FB020008FB020008FB020008FB0200088C
:10006000FB020008FB020008FB020008FB0200087C
:10007000FB020008FB020008011E0008FB0200084A
:10008000FB020008FB020008FB020008FB0200085C
:10009000FB020008FB020008FB020008FB0200084C
:1000A000FB020008FB020008FB020008FB0200083C
:1000B000FB020008FB020008A5400008FB02000844
:1000C000FB020008FB020008FB020008FB0200081C
:1000D000FB020008F9440008FB020008FB020008CC
:1000E000FB020008FB020008FB02000800F002F817
:1000F00000F090F80AA090E8000C82448344AAF132
:100100000107DA4501D100F085F8AFF2090EBAE82F
:100110000F0013F0010F18BFFB1A43F0010318473B
:10012000F480000014810000103A24BF78C878C120
:10013000FAD8520724BF30C830C144BF04680C60ED
:10014000704700000023002400250026103A28BF35
:1001500078C1FBD8520728BF30C148BF0B60704739
:100160006E2900F07783702900F0E984662907F092
:10017000AF87652907F0AC87672907F0A987612950
:1001800007F0A88703681B0A28BF41F0800169298E
:1001900000F03481642900F03181752900F02E814E
:1001A0006F2900F07684782900F0B584E92900F001
:1001B0001184E42900F00E84F52900F00B84EF2966
:1001C00000F07384F82900F0B4840368DB0928BFC9
:1001D00041F08001632900F08083732900F085835A
:1001E000E32901F0C580F32901F0CA80002070479F
:1001F0001FB501F017F904000020002107F052FF9D
:10020000401C60600020002107F036FFE0601FBD49
:1002100010B510BD01F0D8F81146FFF7E9FF04F062
:10022000EFFF01F0B5F903B4FFF7F2FF03BC04F0F0
:1002300095F900001EF0040F0CBFEFF30880EFF3F8
:10024000098004F019BF0000224B19680868B0E863
:10025000F00F80F30988BFF36F8F4FF0000080F339
:1002600011884EF00D0E704700000000064800682F
:10027000006880F3088862B661B6BFF34F8FBFF3A2
:100280006F8F00DF00BF00BF08ED00E0EFF30980D3
:10029000BFF36F8F0F4B1A6820E9F00F106008B59D
:1002A0004FF0500080F31188BFF34F8FBFF36F8F73
:1002B00006F058FC4FF0000080F31188BDE80840BC
:1002C00019680868B0E8F00F80F30988BFF36F8FF2
:1002D000704700BF10000020EFF30580704700005A
:1002E0000948804709480047FEE7FEE7FEE7FEE7CA
:1002F000FEE7FEE7FEE7FEE7FEE7FEE70448054906
:10030000054A064B70470000A1400008ED000008B8
:10031000F0380020F03E0020F03A0020F03A0020B3
:10032000704700007CB51D4616460C00009001D0B9
:100330002044401E074B7B442A46694601903046C4
:1003400000F0A1FA05461CB10020694600F0AEFAA3
:1003500028467CBD7D0500000FB4044910B503AAF2
:10036000029800F0C7FA10BC5DF814FBA40000204E
:100370000FB47CB50C0009AA009001D02044401EA7
:10038000084B7B4469460190089800F07CFA0546CA
:100390001CB10020694600F089FA28467CBC5DF853
:1003A00014FB00003105000070B50C460546012A1B
:1003B00005D02878800600D5EA69002302E00123F1
:1003C00005E05B1C934202D2E05C0028F9D1A869E9
:1003D000E618C01AA861286A18442862284600F066
:1003E000A7F904E0D5E9012114F8010B9047B442C4
:1003F000F8D3284600F0B2F970BD00002DE9F041B5
:100400000646002410687529314616A510D000F064
:10041000B6F9002802DA404213A507E031688A07DE
:1004200001D512A502E0490704D511A5012401E078
:1004300000F0AEF900210A2206F1240709E0B0FB22
:10044000F2FCB0FBF2F302FB1C003030785418468B
:10045000491C0028F3D123462A463046BDE8F04126
:1004600000F09FB9000000002D0000002B000000EC
:10047000200000002DE9F05F894604464FF0000A95
:10048000DFF874B1FB44C0F820A02046E16888473B
:10049000002874D0252806D0D4E901219047206A8D
:1004A000401C2062F1E700265F462046E16888474D
:1004B0002028054607DB312D05D2781910F8200CCD
:1004C00008B10643F1E7B00701D526F00406C4F8E9
:1004D0001CA00027C4F818A02A2D09D0284604F033
:1004E00036F838B304EB8708303DC8F8185019E0E7
:1004F00059F8041B204604EB87029161E1688847A4
:10050000012F054618D1E069002820DA26F02006E0
:100510001DE0D8F8180000EB800005EB40003038F3
:10052000C8F818002046E1688847054604F00FF82F
:100530000028EED1012F0AD02E2D08D12046E168E7
:1005400088477F1C0546022F46F02006C4DBA069C1
:10055000002803DA404246F00106A061F00701D00E
:1005600026F010066C2D0BD0682D09D04C2D39D0FB
:100570006A2D35D0742D35D07A2D33D016E038E081
:10058000E1682F4620468847B842054609D16C2FBE
:1005900026D04FF48060E168064320468847054630
:1005A00004E06C2F1AD04FF4807006430DB3A5F110
:1005B0004100192802D8203546F400664A462946EB
:1005C000204626604E46FFF7CBFD80B101280BD0B8
:1005D000F61D26F0070000F1080956E74020E4E781
:1005E0008020D8E70020D6E706F104094DE7284629
:1005F00052E7206ABDE8F09F8C7C0000032A40F29D
:10060000308010F0030C00F0158011F8013BBCF1B4
:10061000020F624498BF11F801CB00F8013B38BFCC
:1006200011F8013BA2F1040298BF00F801CB38BFDA
:1006300000F8013B11F0030300F08C82083AC0F08F
:10064000088051F8043B083A51F804CBA0E80810A0
:10065000F5E7121D5CBF51F8043B40F8043BAFF3D3
:100660000080D20724BF11F8013B11F801CB48BF2D
:1006700011F8012B24BF00F8013B00F801CB48BF63
:1006800000F8012B704702F0FF0343EA032242EA1D
:10069000024200F002B84FF000020429C0F01280BC
:1006A00010F0030C00F01B80CCF1040CBCF1020F25
:1006B00018BF00F8012BA8BF20F8022BA1EB0C01FA
:1006C00000F00DB85FEAC17C24BF00F8012B00F8F0
:1006D000012B48BF00F8012B70474FF0000200B516
:1006E000134694469646203922BFA0E80C50A0E855
:1006F0000C50B1F12001BFF4F7AF090728BFA0E803
:100700000C5048BF0CC05DF804EB890028BF40F8CE
:10071000042B08BF704748BF20F8022B11F0804F10
:1007200018BF00F8012B704770477047704770473B
:1007300070B5044685690068C10601D5302600E021
:100740002026C00707D070BDD4E90121304690476C
:10075000206A401C20626D1EF6D570BD70B504463F
:1007600085690078C00707D170BDD4E90121202038
:100770009047206A401C20626D1EF6D570BD096846
:100780004A0501D540B27047C905FCD500B2704793
:1007900009684A0501D5C0B27047C905FCD580B2C9
:1007A00070472DE9F0470D4699469246044600F100
:1007B00024080168880604D5E06921F01001216051
:1007C00000E00120A84201DD471B00E00027A169ED
:1007D0007A1902EB0900081AA0612078C00602D439
:1007E0002046FFF7A5FF002608E0D4E901211AF80A
:1007F00006009047206A401C761C20624E45F4DBC0
:100800002078C0060AD52046FFF792FF06E0D4E91B
:10081000012130209047206A401C2062381EA7F139
:100820000107F4DC07E0D4E9012118F8050090473E
:10083000206A401C2062281EA5F10105F3DC204639
:10084000FFF78CFF2078000602D50220BDE8F08774
:100850000120FBE711680268006A530501D50870A2
:100860000AE0D30501D5088006E0130603D5C217B8
:10087000C1E9000200E008600120704701694A1CDC
:1008800002610878704700B58FB0CDE901310021D1
:10089000059105497944CDE9031011466846FFF7F3
:1008A000E9FD0FB000BD0000E5FFFFFF0A6802F898
:1008B000010B0A607047D1E900239A4202D2531C0F
:1008C0000B601070704710B5436913B1AFF300802F
:1008D00001E0FFF769FD012010BD127800F124014D
:1008E0000A7000224A700122EDE711684FF0FF32D2
:1008F000E9E70000074B70B50D467B44FFF7C3FFE7
:100900000446284604F09CFB10B14FF0FF3070BD48
:10091000204670BD4B4700002DE9FF5F15468A4613
:100920000446DFF8AC80F8440027D8E900103E46C2
:10093000CDE9001010E03AF816106A4602A800F05F
:1009400023FD411C07D02178890603D5E2693918B7
:1009500091420DD80744761C2078800602D5E069C4
:10096000B84205DDAE42E6DB3AF816000028E2D1D7
:10097000A069C01BA0612046FFF7DAFED8E900108D
:10098000CDE90010002017E03AF818106A4602A8D6
:1009900000F0FAFCB0F1FF3F81460BD000250DF1CD
:1009A000080B05E0D4E901211BF8050090476D1CF8
:1009B0004D45F7D308F10100B0428046E4DB206AE0
:1009C000384420622046FFF7C9FEBDE8FF9F0000C3
:1009D000FE7700002DE9F0418046D21D22F007028B
:1009E0000025D2E90002F52915A614D0011E72F1E6
:1009F000000106DA0023D0EB030063EB020211A62C
:100A000008E0D8F800108B0701D50FA602E04907CF
:100A100001D50EA601251146002408F1240704E0A3
:100A200000F0CAF830323A55641C50EA0102F7D19E
:100A30002B46324621464046BDE8F041FFF7B1BEA5
:100A4000000000002D0000002B000000200000002E
:100A500030B4002100F1240408E002F00705D208B8
:100A6000303542EA4372DB086554491C52EA0305FB
:100A7000F3D10468002310A2250707D5A40600D4EB
:100A800021B1C46901230DA2641EC46130BCFFF70B
:100A900088BE10B5044621461068FFF779FE02466D
:100AA0002046BDE810400023D2E7D21D22F0070106
:100AB000D1E90023CCE70000000000003000000076
:100AC000F0B40D460188090502D5214C7C4402E0B2
:100AD0001F4C7C440E34002100F1240608E002F093
:100AE0000F071209E75D42EA03721B097754491C9C
:100AF00052EA0307F3D102780023120704D5702DC0
:100B000006D009B1022311342246F0BCFFF749BEDA
:100B100001231034F8E770B504460D4621461068ED
:100B2000FFF736FE024629462046BDE87040002306
:100B3000C6E7D21D22F00703D3E90023C0E703680C
:100B4000126843F0200303600823C3610023B7E762
:100B50006076000010B5203AC0F00B80B1E8185064
:100B6000203AA0E81850B1E81850A0E81850BFF497
:100B7000F5AF5FEA027C24BFB1E81850A0E8185036
:100B800044BF18C918C0BDE810405FEA827C24BF8A
:100B900051F8043B40F8043B08BF7047D20728BF18
:100BA00031F8023B48BF11F8012B28BF20F8023B67
:100BB00048BF00F8012B704730B5B0F10A024FEA88
:100BC000900E71F100034EEA817EB0EB0E0061EBF6
:100BD00091014FEA101E4EEA017E10EB0E0041EB30
:100BE00011114FEA102E4EEA016E10EB0E0041EB90
:100BF00011214FEA104E4EEA014E10EB0E0041EB70
:100C00001141401841F100014FEAD00040EA417023
:100C10004FEAD10110EB80054FEA810444EA907459
:100C200044EB01046D1944EB0404521BA3414FF043
:100C3000000348BF0A3200D530BD401C41F100011D
:100C400030BD70472DE9FF4F0C461E464FF0FF3771
:100C50008BB0D2E90001DDF860800A908A46C1F3CA
:100C60000A5505B93D46002108464FF00000BAF18B
:100C7000000F00F4400005DA00EB80004FF4400163
:100C800001EA50004FEA9059B9F1010F00DDB94671
:100C90000A9850EA4A000ED044F61050A5F2FF35EB
:100CA00045432F14B8F1000F1ED07542291E1EDDDA
:100CB000C9F100021CE0B8F1010F4FF0000001D0B3
:100CC000302103E0F24305E02154401CB042FBDB3D
:100CD00030460022002121540B99C1F80880C1E957
:100CE00000200FB0BDE8F08FBD1B6D1CDEE74A464B
:100CF00000DA694206A800F0D9FB06AB93E80700CA
:100D000003AB83E8070050460A9900F08FFC8DE89A
:100D10000700A0F500501F3800900398002D0ADD51
:100D200042F21F014A460844002303A90390684683
:100D300000F0F8FE09E0A0F500504A461F380023F5
:100D400003A90390684600F002FF8DE80700000445
:100D5000000C03D04FF0FF30410800E01046B8F11E
:100D6000000F03D00022009215461EE0751E05D428
:100D7000FFF722FF303262556D1EF9D5B3460122CE
:100D8000084302D000227F1C04E02078302801D1E3
:100D900000227F1E002A099784D01DE0112D07DA5A
:100DA000FFF70AFF303262556D1C50EA0102F5D19F
:100DB000084302D00098C8B10EE00021681E05E08B
:100DC000235C625C63542254401E491C8142F7DB61
:100DD000AB46A81B401E0990002004F80B000B989E
:100DE000099AC0F80880C0E9002B7AE711264FF075
:100DF000000857E72DE9F04F88460446D21D22F03F
:100E0000070191B0D1E90001CDE90A0103F07BFBB4
:100E100002460B98C00F01D02D2007E02068810703
:100E200001D52B2002E0202101EAC000032A09900D
:100E300001D0072A05DB03464146204600F0F6FABA
:100E40000BE12078800601D5E06900E00620B8F1CA
:100E5000650F814606D0B8F1660F18D0B8F1670F5C
:100E600070D131E00020B9F1110F009001DB1123A6
:100E700001E009F101030AAA01A90CA8FFF7E2FEAB
:100E8000DDE90C70002609F10105834647E00120E9
:100E90004B4600904FF000470AAA01A90CA8FFF7A3
:100EA000D1FEDDE90DB00C995D46002610B909F1BF
:100EB00001000D18B9EB050003D4C0F1FF3609F1AC
:100EC0000105A5EB09002BE0B9F1010F01DA4FF0A4
:100ED00001090020B9F1110F0090484601DD1123EE
:100EE00000E003460AAA01A90CA8FFF7ABFEDDE962
:100EF0000C704D4600268346207800070AD4AB4587
:100F000000DA5D4601A8012D04DD411911F8011C2C
:100F1000302907D04F4502DA17F1040F04DA012017
:100F200082460FE06D1EEEE7002F02DCED1B3E4413
:100F300003E0781CA84200DD7D1CB81B00F1010A0B
:100F40004FF000472078000703D4AA4501DB4FF09B
:100F5000FF3A0021B7F1004F0DF143088DF843101F
:100F600024D002202B23002F01DA7F422D230A21D7
:100F7000021EA0F1010000DC5FB197FBF1FC97FBC2
:100F8000F1F201FB1C7C17460CF1300C08F801CD86
:100F9000EEE7A8F1010003702188090501D545217C
:100FA00000E06521A0F1010800F8011C09980FA9D3
:100FB000A1EB0807FF1D00B10120411901EBEA7008
:100FC000A1693844081A401EA0612078C00602D4E6
:100FD0002046FFF7ADFB099828B1D4E901219047DD
:100FE000206A401C20622078C00622D52046FFF7E8
:100FF0009FFB1EE0002E04DBB34502DD01A8805DEF
:1010000000E03020D4E901219047206A401C206292
:10101000761CAAF101005FEA000A0AD100F002FA88
:10102000C0680168405CD4E901219047206A401CF7
:101030002062281EA5F10105DCDC07E0D4E90121CE
:1010400018F8010B9047206A401C2062381EA7F157
:101050000107F3DC2046FFF781FB032011B041E6D6
:101060002DE9F04F04460D46D21D22F0070089B04D
:10107000D0E900974846394603F045FA0246F80F92
:1010800001D02D2307E02068810701D52B2302E042
:10109000202101EAC0038DF820300BB1012000E0CF
:1010A0000020032A824601D0072A04DB2946204675
:1010B00000F0BCF93FE12078800601D40D2500E066
:1010C000E569C7F30A560D2D49DA00214FEA175B8F
:1010D00008464FF00000002F00F4400007DA00EB54
:1010E00080004FF4400100EBD07001EA60008115F0
:1010F000012901DD4FF0FF3100224FEA850CBCF1E0
:10110000180F06D31346ACF118004FF08052C240BE
:1011100003E04FF4801323FA0CF30CF10C0CBCF138
:10112000200F04D3ACF1200C09FA0CF001E007FA0F
:101130000CF000294FF0004801DD18B90FE00ED186
:1011400040450CD319EB02095F4121B9404502D15A
:101150009F4329EA0209BBEB175F00D0761C208869
:10116000000502D57B48784402E07A487844193873
:1011700008AA302302F80A30037C0AF10101002E8C
:101180000AF1020A53546A4602DC4FF0300101E0D2
:101190004FF031014FF001088DF8001002D0A6F297
:1011A000FF3603E059EA470100D06B4E002D02DC08
:1011B0002178090704D54FF002082E218DF801107F
:1011C000C44600210BE0C7F303433F01C35C491C45
:1011D0006D1E02F80830052908F1010801DA002D1A
:1011E000F1DC00210CE000EB1973491C1B786D1E2B
:1011F000082902F808304FEA091908F1010801DA54
:10120000002DF0DC21688B0602D516E0A8F101085C
:10121000E04505DD02EB080313F8013C302BF5D067
:10122000B8F1000F09DD02EB080313F8013C2E2B87
:1012300003D1090701D4A8F10108002D05DD3E21E5
:1012400002F808106D1E08F10108407C002E02F81B
:10125000080008F1010804DA2D20764202F808009F
:1012600002E02B2002F808000A214FF47A7086422F
:1012700008F101080BDB96FBF0F3303302F808307D
:1012800096FBF0F308F1010800FB136601E0642E01
:101290000CDB642096FBF0F3303302F8083096FB49
:1012A000F0F308F1010800FB136601E00A2E06DBEB
:1012B00096FBF1F0303002F8080008F1010896FBC7
:1012C000F1F001FB1060303002F80800A16908F16C
:1012D000010808EB050202EB0A00081AA061207859
:1012E000C00602D42046FFF723FA216A08AE01EBBC
:1012F0000A00206204E0D4E9012116F8010B9047AE
:10130000BAF1010AF7D22078C00602D52046FFF7CD
:101310000FFA6E4609E016F8010B3E280FD0D4E90B
:1013200001219047206A401C2062B8F10108F2D2E6
:101330002046FFF713FA09B00320BDE8F08F206ABA
:101340002844206203E0D4E90121302090476D1E3B
:10135000EBD3F8E70170000002FCFFFF10B5436912
:1013600013B1AFF3008001E0FFF7D6FA012010BD02
:10137000128800F1240182840022C2840122EDE758
:1013800011684FF0FF32E9E770B516460C46054686
:1013900000F040F8036893F80101012806D0FF2C03
:1013A0000FD8185D68B101202C7070BDD3F807010B
:1013B0003246214603F2071303442846BDE8704035
:1013C00018474FF0FF3070BD754600F0EBF8AE46A1
:1013D00005006946534620F00700854618B020B541
:1013E000FEF78CFFBDE820404FF000064FF00007ED
:1013F0004FF000084FF0000B21F00701AC46ACE8BD
:10140000C009ACE8C009ACE8C009ACE8C0098D4629
:101410007047000010B500F005F8001D10BD00BFBA
:10142000856C000000487047AC3800202DE9F04181
:101430001F46044603260168072A01F4006004DB06
:1014400008B116A505E016A503E008B115A500E052
:1014500015A521F010002060A069C01EA0610FB189
:10146000401EA0612046FFF763F94FB1D4E9012186
:1014700038469047206A401C2062C01C206206E06B
:10148000206AFAE7D4E9012115F8010B9047761E8E
:10149000F8D22046FFF762F9BDE8F0814E414E00D8
:1014A0006E616E00494E4600696E66002DE9F04798
:1014B000814616468AB0354878440DC88DE80D003F
:1014C00032487844801C03AC0DC884E80D0041F616
:1014D0009B300844372190FBF1F290FBF1F5A5F128
:1014E000800501FB12041B3C02D56442012000E090
:1014F0000020DFF898A080460027FA44AAF1BE0A2F
:101500000EE0E0070AD03246684607EB47010123A8
:101510000AEB810100F01BFB8DE8070064107F1CC3
:10152000002CEED1194F7F44AE3F19E0E80715D0EB
:1015300007EB04100DF1180A90E80E008AE80E007F
:10154000C068F04201D1981908903246012306A9DB
:1015500003A800F0FCFA03AB83E807006D10641CDD
:10156000002DE3D14FF0010332466946B8F1000F78
:1015700003A802D000F0D6FA01E000F0E8FAC9E9C9
:101580000001C9F808200AB0BDE8F087406D0000EE
:1015900010B50446AFF300802046BDE81040FEF7CA
:1015A00042BE0000004870478C3800204FF0013CDC
:1015B00050F8042B51F8043B9A4221D1A2EB0C03C2
:1015C000934313EACC1317D150F8042B51F8043B82
:1015D0009A4215D1A2EB0C03934313EACC130BD11F
:1015E00050F8042B51F8043B9A4209D1A2EB0C03AA
:1015F000934313EACC13DBD04FF00000704700BFD9
:10160000D01A01BAB1FA81F101F0180122FA01F001
:10161000CB40C1F12001DBB2C0B2C01A2CFA01F3F9
:10162000D11A914311EAC311E6D170475FEA400C29
:1016300008BF91F0000F4FEA8C234FEAC12243EA22
:1016400051514FEA1C5018BF00F5F0404FEA3000EE
:1016500018BF41F000415FEA6C5C00F02980BCF1EA
:10166000FF3F08BF40F080407047130C06BF1204D4
:101670004FF0100C4FF0000C130E04BF12020CF1CF
:10168000080C130F04BF12010CF1040C930F04BFDC
:1016900092000CF1020CD30F04BF52000CF1010CAC
:1016A00011464FF00002A0F11F00A0EB0C007047A4
:1016B00011F0004F08BF704731F000413FF4D5AF43
:1016C0000B0C06BF09044FF0100C4FF0000C0B0E72
:1016D00004BF09020CF1080C0B0F04BF09010CF147
:1016E000040C8B0F04BF89000CF1020CCB0F04BF5C
:1016F00049000CF1010CCCF12003A0EB0C0022FA04
:1017000003F302FA0CF241EA030100F10100704711
:1017100020F07F4C80EA030023F07F47ACEB070307
:1017200003F57C5300F0004003F1FF032DE98049ED
:101730004FEA154B09B44FEA144325EA0B4E24EA4D
:1017400003480FF2042606EB132749083E785FEAA8
:10175000320203FB0667C7F5000707FB06F64FEAF0
:1017600054374FEAD64606F1020607FB066CCCF169
:10177000005C4FEA1C472CEA074C07FB06F40CFB05
:1017800006F504EB15464FEA961634BF00204FF0DD
:1017900000404FEAD13706FB07FC4FEA1C4C0CFB1C
:1017A0000BF7D21B03FB0CF761EB07010CFB0EF7E9
:1017B000B0EB074072EB17420CFB08F734BFA2EB0B
:1017C0000742B2EB074261EB17414FEA0C444FEA84
:1017D000910706FB07FC4FEA1C4C0CFB0BF7B0EB28
:1017E000C74072EB573203FB0CF734BFA2EBC74282
:1017F000B2EBC74261EB57310CFB0EF7B0EBC70001
:1018000072EB57720CFB08F734BFA2EBC702B2EBC6
:10181000C70261EB5771039F4FEA816141EA921160
:1018200004EBCC044FEAD1374FEA826206FB07FC97
:1018300042EA90124FEA80604FEA1C4C0CFB0BF717
:10184000D21B03FB0CF761EB07010CFB0EF7B0EBAF
:10185000074072EB17420CFB08F734BFA2EB0742BC
:10186000B2EB074261EB17414FEA8C554FEA910703
:1018700004EB9C2406FB07FC4FEA1C4C0CFB0BF70B
:10188000B0EBC74072EB573203FB0CF734BFA2EB4F
:10189000C742B2EBC74261EB57310CFB0EF7B0EB1E
:1018A000C70072EB57720CFB08F734BFA2EBC702FC
:1018B000B2EBC70261EB577115EB4C254FEA816122
:1018C00041EA92114FEA82624FEAD13742EA90121E
:1018D00006FB07FC44F100044FEA80604FEA1C4C11
:1018E0000CFB0BF7D21B03FB0CF761EB07010CFBA6
:1018F0000EF7B0EB074072EB17420CFB08F734BF52
:10190000A2EB0742B2EB074261EB174115EB1C1546
:101910004FEA813141EA92414FEA823242EA9042F3
:101920004FEA80304FEA0C7644F1000448EA034362
:101930004EEA0B484FF0000EB2EB080C71EB0307B8
:1019400024BF624639464EEB0E0E4FF0000B0018D6
:10195000524149414BEB0B0BB2EB080C71EB030707
:101960007BF1000B24BF624639464EEB0E0E4FF062
:10197000000B0018524149414BEB0B0BB2EB080C2A
:1019800071EB03077BF1000B24BF624639464EEB37
:101990000E0E51EA020718BF46F0010616EB0E764E
:1019A00055F1000254F1000103D5BDE88901BDE8FD
:1019B0000088BDE88901BDE80048B619524141EBF5
:1019C0000101A3F10103704780807F7E7D7C7B7ADB
:1019D0007978777676757473727171706F6E6E6DDB
:1019E0006C6C6B6A6A696868676666656464636381
:1019F00062616160605F5F5E5E5D5D5C5C5B5B5A07
:101A00005A59595858575756565555555454535373
:101A100052525251515050504F4F4F4E4E4D4D4DCE
:101A20004C4C4C4B4B4B4A4A4A4949494848484719
:101A30004747474646464545454444444443434357
:101A40004342424242414141002B9C4630D4770000
:101A50002BD01CB54FEA370703B44FF010004FF0FE
:101A60001001BAF1000F06D0BCF1000FDCBF40F04E
:101A7000080040F008014FF000000FBCBDE8104026
:101A80000BF1010BBBF1010F08BF5FEA170722BF83
:101A900012F1010211F101014FF0004143F1000385
:101AA00000F0004043EA00007047F9D35708D0E740
:101AB00046EA064613F1400F4FEA16461FDD13F1C2
:101AC000200FDFBF16430A46002120335B42BED001
:101AD000C3F1200746EA064602FA07F74FEA164620
:101AE00046EA0706C3F1200722FA03F201FA07F7D4
:101AF00021FA03F14FF0000342EA0702A7E746EAA2
:101B0000020646EA06464FEA164646EA0106BCBF0A
:101B100046EA0646360C4FF000034FF000024FF045
:101B2000000194E72DE9804C9A46934670B491E801
:101B3000380007C831EA400C48BF34EA430C03D5EB
:101B4000FFF7E6FDFFF780FFF0BCBDE8008C2DE954
:101B5000804C9A46934670B491E8380007C810F05C
:101B6000804F08BF13F0804F03D100F005F8FFF756
:101B70006BFFF0BCBDE8008C20F07F4780EA0300DB
:101B800023F07F4C07EB0C03A3F57C5300F00040DF
:101B9000A3F1FE0392F0000F00F0B38095F0000F68
:101BA00000F077802DE901494FEA11404FEA1446D1
:101BB00021EA004800FB06FC24EA064708FB06F67B
:101BC00007FB08F800FB07F718EB06484CEB164C30
:101BD0004FEA124B18EB07484FEA15464CEB1740FB
:101BE00022EA0B4E0BFB06FC25EA06470EFB06F627
:101BF00007FB0EFE0BFB07F71EEB064E4CEB164CDD
:101C00004FF000061EEB074E4CEB174B18EB0B0882
:101C100040F1000018EB0E0B58EB000840F10000FB
:101C20008F1A4FF000013CBFC943661B14BFB5EBD0
:101C3000040C00213CBFC943F61B4FEA17444EEA8F
:101C40008E0E27EA04454FEA1C4704FB07622CEA84
:101C5000074C05FB07F70CFB05F604FB0CFC16EB29
:101C6000074642EB174216EB0C4642EB1C421BEBBD
:101C7000060658EB0202414146EA9E0601D5BDE840
:101C80000189B619524141EB0101A3F10103BDE8FD
:101C900001894FEA14454FEA114724EA054621EA33
:101CA000074C05FB07F406FB07F70CFB06F105FBE9
:101CB0000CFC11EB074144EB17444FEA124711EBC0
:101CC0000C4144EB1C4422EA074C05FB07F206FBDF
:101CD00007F70CFB06F605FB0CFC16EB074642EB80
:101CE000174216EB0C4642EB1C456A1854F10001F2
:101CF00048BF7047B619524141EB0101A3F10103FE
:101D0000704795F0000F37D04FEA11424FEA144761
:101D100021EA024624EA074C02FB07F106FB07F71B
:101D20000CFB06F402FB0CFC14EB074441EB1741DF
:101D30004FEA154714EB0C4441EB1C4125EA074CD4
:101D400002FB07F506FB07F70CFB06F602FB0CFC93
:101D500016EB074645EB174516EB0C4645EB1C42C8
:101D6000121951F1000148BF7047B619524141EBB9
:101D70000101A3F1010370474FEA14454FEA1147EF
:101D800024EA054621EA074C05FB07F106FB07F7A5
:101D90000CFB06F24FF0000605FB0CFC12EB0742B1
:101DA00041EB174112EB0C4251EB1C4148BF70470D
:101DB000921841EB0101A3F10103704702F0F0FC1E
:101DC00004F030FA03F0FEF902F036FC01F080FE78
:101DD00003F044F903A207A1022003F0FDF903F088
:101DE00031FBFEE753797374656D20626F6F742E5B
:101DF0002E2E00004D41494E00000000FEE700007D
:101E0000014800F09DB800002002002030B590F895
:101E100040500124AC40C56B6C600468636043684B
:101E2000102B036803D099600068C26030BD9A60CF
:101E30000068C16030BD704772B6192102A004F07D
:101E400065FA00BEFDE700004552524F523A20535A
:101E5000797374656D2068616C746564210D0A0086
:101E600010B590F821100022022905D004218163C9
:101E700080F82020012010BD01680B6823F00E03BC
:101E80000B6001680B6823F001030B6090F8403091
:101E9000C46B012101FA03F3636080F8211080F81C
:101EA0002020104610BD000010B590F8211000242D
:101EB000022903D00421816301243DE001680A68FE
:101EC00022F00E020A6001680A6822F001020A602C
:101ED0001A4A0168914201D1012121E0174A1432C6
:101EE000914201D110211BE0144A2832914201D1C4
:101EF000891515E0114A3C32914201D189140FE055
:101F00000E4A5032914202D14FF4803108E00B4A20
:101F10006432914202D14FF4801101E04FF08071A0
:101F2000064A083A5160012180F82110002180F80A
:101F30002010416B01B18847204610BD08000240C7
:101F40002DE9F05FC16B0C6801680B68D0F840C0E8
:101F5000042202FA0CF2494DDFF824A1494E4A4FFF
:101F6000DFF828B1DFF828E122422CD05A072AD521
:101F70000A68920603D40A6822F004020A60016823
:101F8000A94201D1042219E0514501D1402215E0B6
:101F9000B14202D14FF4806210E0B94202D14FF455
:101FA00080420BE0594502D14FF4802206E0714592
:101FB00002D14FF4800201E04FF080622F490839CE
:101FC0004A60C16A3BE04FF0020808FA0CF818EAD0
:101FD000040F4FF000094FF0010235D05FEA83781B
:101FE00032D50B689B0605D40B6823F00A030B60FF
:101FF00080F821200168A94201D1022219E051454F
:1020000001D1202215E0B14202D14FF4007210E05C
:10201000B94202D14FF400520BE0594502D14FF4BE
:10202000003206E0714502D14FF4001201E04FF09A
:102030000072124908394A6080F82090816A0029AC
:102040001AD0BDE8F05F0847082505FA0CF52542CF
:1020500012D01B0710D50B6823F00E030B6090F80D
:102060004010C36B02FA01F15960826380F82120AD
:1020700080F82090016BE2E7BDE8F09F0800024085
:102080001C00024030000240440002405800024060
:102090006C00024030B528B308C813491422194413
:1020A000B1FBF2F18900C1631049816302214177DC
:1020B0001A6843F6F0718A43D0E900142143D0E94D
:1020C00002452C4321430469214344692143846927
:1020D00021431143196000214163012242770177B6
:1020E000084630BD012030BDF8FFFDBF00000240B2
:1020F00070B5044690F82000002501280CD001207E
:1021000084F8200094F821600020012E06D084F885
:1021100020000225284670BD022070BD022684F8EA
:102120002160A0632068066826F00106066020464C
:10213000FFF76CFEE06A00282068016802D041F0D9
:102140000E0106E021F0040101602068016841F001
:102150000A0101602068016841F001010160D9E7CE
:102160002DE9F84FDFF8B8910024A9F1040B2346BC
:102170000F2709F1040AABF1040EC9E00125A540BF
:102180002A40AA427DD1674ED1F804C0ACEB0608C4
:10219000B44532D014DCBCF1030F3AD009DCBCF1F9
:1021A000000F2AD0BCF1010F1CD0BCF1020F31D1BD
:1021B0001DE0BCF1110F17D0BCF1120F2AD119E0AC
:1021C000B8F5881F19D006DCB8F5803F15D0B8F5F2
:1021D000801F1FD111E0B8F5001F0ED0B8F5041F05
:1021E00018D10AE0CB6815E0CB681B1D12E0CB6864
:1021F00008330FE0CB680C330CE08B682BB1012B5C
:102200004FF0080303D0456104E0042302E00561B8
:1022100000E00023FF2A01D8064601E000F1040691
:102220004FEA840501D9A5F12005D6F8008007FA08
:1022300005FC28EA0C0803FA05F548EA0508C6F883
:1022400000804D68ED0062D5374DAE6946F001065D
:10225000AE61AD6924F0030605F001050095334D2C
:1022600006EB050CDCF80850A607360F07FA06F84F
:1022700025EA0805DFF8B880404503D14FF0000893
:1022800017E044E0DFF8AC80404502D14FF0010890
:102290000FE0DFF8A480404502D14FF0020808E0CB
:1022A000DFF89880404502D14FF0030801E04FF07D
:1022B000040808FA06F848EA0508CCF808804D68D2
:1022C000D9F80060ED024D4601D5164300E0964373
:1022D0002E604D68DAF80060AD02554601D5164310
:1022E00000E096432E604D68DBF80060AD035D466C
:1022F00001D5164300E096432E604D68DEF800607D
:10230000ED03754601D5164300E096432E60641C2C
:102310000D682A46E5407FF431AFBDE8F88F000034
:1023200008040140000011100010024000000140AC
:1023300000080140000C0140001001400014014061
:102340008068084000D0012070470AB101617047E1
:102350000904FBE701488068704700000000002086
:1023600070B5040025D094F83D00002520B984F80C
:102370003C50204600F0B8F8242084F83D00206846
:10238000016821F0010101602068016841F4004109
:1023900001602068016821F40041016000F042FB07
:1023A0004D4A6168914201D84C4900E04C4988424D
:1023B00001D2012070BD4B492368B0FBF1F15E688A
:1023C00026F03F060E435E606368934206D94FF4E1
:1023D000967359434FF47A73B1FBF3F12368491CA8
:1023E0001E6A26F03F06314319626168914210D897
:1023F0004900401EB0FBF1F2521CC2F30B02042A4A
:1024000001D2042022E0B0FBF1F0401CC0F30B002D
:102410001CE0A268F2B301EBC10303EB0116431EFB
:10242000B3FBF6F35B1C43F480431B0549D092B326
:1024300001EBC10202EB0111401EB0FBF1F0401CA8
:10244000C0F30B0040F4804040F400402168CA69AA
:102450004CF6FF739A431043C861D4E90710014357
:102460002068026822F0C00211430160D4E9030130
:1024700001432068826848F2FF339A431143816028
:10248000D4E9050108432168CA6822F0FF0210431D
:10249000C86001E00EE016E02068016841F001012B
:1024A00001602564202084F83D00256384F83E50B7
:1024B000002070BD01EB4106431EB3FBF6F35B1C2D
:1024C000B3E70120C2E701EB4101401EB0FBF1F090
:1024D000401CC0F30B00B7E7A086010080841E00FB
:1024E00000093D0040420F0030B585B00021009149
:1024F0000191029103911E4D03681E4C122103228B
:102500001D48AB4216D1A36943F00803A361A36938
:10251000039203F008030493C023CDE90031694618
:10252000FFF71EFEE06940F40010E061E06900F48E
:10253000001019E0114DAB4217D1A36943F0080315
:10254000A361A369039203F0080304934FF440636B
:10255000CDE900316946FFF703FEE06940F48000F1
:10256000E061E06900F48000049005B030BD000037
:102570000054004000100240000C01400058004090
:102580000248816802781144816070470000002091
:10259000074810B5016841F010010160032000F008
:1025A000ABF80F2000F006F800F050F8002010BD46
:1025B0000020024030B505461F4887B0C16941F090
:1025C0000401C161C06906A900F00400009001A8DF
:1025D00000F008FA0498B0B100F024FA400017495E
:1025E000174AB0FBF1F11748491E0260416040F202
:1025F000E7320021C0E903218160816100F084FDA0
:10260000040003D015E000F00DFAE8E70D4800F0F3
:10261000A9FD04000DD11E2000F040F8102D07D2B6
:10262000002229461E2000F047F80748056000E018
:10263000012407B0204630BD0010024040420F0088
:10264000000800406402002004000020114808B582
:10265000816941F001018161816901F0010100910D
:10266000C16941F08051C161C069002200F0805011
:1026700000901146501F00F01FF800220F21901EFD
:1026800000F01AF80448416821F0E06141F000715F
:10269000416008BD0010024000000140002809DB35
:1026A00000F01F02012191404009800000F1E0206C
:1026B000C0F8001170470000F0B40E4B1B680C46C8
:1026C000C3F30223C3F10705042D00D90425191D06
:1026D000072901D2002300E0DB1E012606FA05F1DE
:1026E000491E214099409E40761E16403143F0BC61
:1026F00001F01DBF0CED00E0064900F0070208687C
:102700004FF6FF03184040EA0220034A10430860D6
:10271000704700000CED00E00000FA0501490120BF
:102720000862704700000E4210B501460020234C9D
:10273000012922D0022939D010291DD161682268CF
:10274000D20119D51E48C1F38342C903805C0AD562
:1027500061681B4AC1F34041921E515C194AB2FBA9
:10276000F1F1484301E0184948436168490203D444
:1027700040000321B0FBF1F010BD226AC2F3012139
:10278000012903D1920701D5C80310BD022905D143
:10279000626A920702D549F6404010BD0329FCD178
:1027A00021688903F9D54FF2244010BD00F04AF9A1
:1027B0006168C1F38131491C4900DBE70010024028
:1027C000EC80000800127A0000093D002DE9F84372
:1027D00005460078354CC00754D0E0690026C0009B
:1027E00008D4E06940F08050E061E069012600F023
:1027F000805000902E480168C90512D401688046B7
:1028000041F480710160FFF7A5FD074605E000BFB8
:10281000FFF7A0FDC01B642823D8D8F80000C0052E
:10282000F6D5206A10F4407021D0A98801F44071D7
:1028300081421CD0206A1F49012220F440700A60A6
:1028400000220A602062C00711D0FFF783FD07460F
:1028500041F2883808E000BFFFF77CFDC11B41450D
:1028600002D90320BDE8F883206A8007F4D5206AE6
:10287000696820F44070084320621EB1E06920F0CE
:102880008050E0612878800705D56068A96820F449
:102890004040084360602878C00605D56068E96854
:1028A00020F48000084360600020DBE70010024055
:1028B00000700040400442422DE9F0470F460500F9
:1028C00061D0434E306800F00700B84209D230684A
:1028D00020F0070038433060306800F00700B8424D
:1028E00051D128683B4C810712D5400703D5606859
:1028F00040F4E06060602878000703D5606840F429
:10290000605060606068A96820F0F0000843606073
:102910002878C00728D06868012810D021680228CC
:1029200010D0890700292EDA616821F003010143E4
:102930006160FFF70FFD804641F288390DE02168A4
:102940008903EFE78901EDE7FFF704FDA0EB08013C
:10295000494502D90320BDE8F0876068696800F046
:102960000C00B0EB810FEFD1306800F00700B842E7
:102970000BD9306820F0070038433060306800F031
:102980000700B84201D00120E5E72878400705D5C7
:102990006068E96820F4E060084360602878000718
:1029A00006D56068296920F4605040EAC100606083
:1029B00000F058F86168084AC1F30311515CC8403F
:1029C0000649086006480068FFF7F4FD0020C2E7EA
:1029D0000020024000100240FC8000080C00002093
:1029E000040000200F2202600C4A536803F0030326
:1029F0004360536803F0F0038360536803F4E063BB
:102A0000C36052684FF4E06303EAD20202610448F3
:102A1000006800F0070008607047000000100240E6
:102A2000002002400448054900684968044AC1F38F
:102A30000221515CC84070470C0000200010024089
:102A40000C8100080448054900684968044AC1F33C
:102A5000C221515CC84070470C00002000100240A9
:102A60000C8100080E4A51680E4801F00C03042B3B
:102A700011D0082B0FD10C48C1F38343C903C05CAC
:102A80000AD55168084AC1F34041921E515C054A7B
:102A90005043B0FBF1F070470449484370470000D1
:102AA0000010024000127A00DA80000800093D00A0
:102AB0002DE9F84F040070D02078C04DC00749D0F0
:102AC0006868C0F38100012807D06868C0F38100FE
:102AD000022809D16868C00306D52868800339D563
:102AE00060680028E7D035E06068B0F5803F0BD023
:102AF00010B1B0F5A02F11D0286820F480302860E4
:102B0000286820F4802002E0286840F480302860A3
:102B1000606890B1FFF71EFC06460AE0286840F4A2
:102B200080202860F0E700BFFFF714FC801B6428BA
:102B300073D828688003F7D50CE0FFF70BFC064636
:102B400005E000BFFFF706FC801B6428F0D828686A
:102B50008003F7D420789A4E80074FF001094FF098
:102B6000000839D5686810F00C0F07D06868C0F30A
:102B70008100022809D16868C00306D4286880074C
:102B800014D52069012808D110E02069B0B1C6F839
:102B90000090FFF7DFFB074605E00AE1FFF7DAFBED
:102BA000C01B0228C4D828688007F7D52868616947
:102BB00020F0F80040EAC10028600DE0C6F800806F
:102BC000FFF7C8FB074604E0FFF7C4FBC01B022861
:102BD00023D828688007F7D4207800072CD57948B7
:102BE000A169D9B1C0F80090FFF7B4FB074604E033
:102BF000FFF7B0FBC01B02280FD8686A8007F7D523
:102C000071484FF4FA510068B0FBF1F0009000BF3A
:102C10000098411E0091FAD20EE080E0C0F80080DA
:102C2000FFF798FB074604E0FFF794FBC01B022860
:102C300075D8686A8007F7D42078400760D5E869BE
:102C40000027C00008D4E86940F08050E861E869D6
:102C5000012700F0805000905C480168C90513D43A
:102C60000168834641F480710160FFF773FB82467F
:102C700006E000BFFFF76EFBA0EB0A0064284ED809
:102C8000DBF80000C005F5D5E06801280AD008B1DE
:102C9000052813D0286A20F001002862286A20F055
:102CA000040002E0286A40F001002862E06841F276
:102CB000883B98B1FFF74EFB82460BE0286A40F054
:102CC00004002862EEE700BFFFF744FBA0EB0A0117
:102CD00059455AD8286A8007F6D50CE0FFF73AFB29
:102CE000824605E0FFF736FBA0EB0A0159454CD8B8
:102CF000286A8007F6D41FB1E86920F08050E861A7
:102D0000E06988B36968C1F38101022944D00228CF
:102D1000C6F8608004D0FFF71DFB044638E034E0BD
:102D2000FFF718FB074604E0FFF714FBC01B02285F
:102D30002BD828688001F7D4206AB0F5803F05D1F0
:102D40006868A16820F4003008436860D4E908018D
:102D50000843696821F4741108436860C6F86090FC
:102D6000FFF7F8FA044606E025E000BFFFF7F2FAA5
:102D7000001B022809D828688001F7D51BE000BF96
:102D8000FFF7E8FA001B022802D90320BDE8F88FFC
:102D900028688001F4D40EE00128F7D06868226A20
:102DA00000F48031914204D1616A00F470108842CD
:102DB00001D00120EAE70020E8E70000001002400F
:102DC00000004242800442420C000020007000409B
:102DD0007047704710B5044600680168C90717D0EE
:102DE0004168C90714D040684007204607D5FFF75F
:102DF000F0FF21686FF004004860042002E0FFF754
:102E0000E7FF012060742068416821F00101416002
:102E100010BD000070B5040003D0607C002610B126
:102E200005E0012070BD2674204600F03DF8022028
:102E30006074204600F014F9042550BB204601F0D0
:102E400038F830BB2068416821F007014160A06874
:102E500020B11448016821F0010101601148001FF0
:102E60000168A26821F46071114301606068411C2F
:102E700004D10120FFF758FC58B1401E2268C0F36E
:102E800003419160216880B2C860204601F02CF8AF
:102E900008B16574C5E7E67301206073A0736074C0
:102EA000002070BD306C004008B500680D498842B4
:102EB00017D1FFF733FC0C48C16941F00061C161D3
:102EC000C0690A4900F000600090012008600022FB
:102ED00005210320FFF7F0FBBDE808400320FFF7C2
:102EE000DDBB08BD00280040001002403C04424207
:102EF0002DE9F0410D4604003BD0C5B3207C0128EC
:102F00003AD04FF0010884F8108002206074E8780D
:102F100072B300F0C5FFE073687800F0C1FF607322
:102F2000A87800F0BDFFA073C2B2617BE07B01F026
:102F300014F820732870204600F0FFFF4FF4616101
:102F4000B0FBF1F1002518292DD91822B1FBF2F1BF
:102F5000A1EB011101EB4101C1EB011100EBC11625
:102F60003146204601F038F80427C8B90BE000E0EC
:102F700004E00120BDE8F0810220FBE7E0736878FF
:102F80006073A878CFE7204600F0D0FF411C0AD03C
:102F9000B04208D206490144204601F009F810B1B8
:102FA00067742574E5E784F8118025740020E1E753
:102FB000805101002DE9F0410D46040024D01DB3DD
:102FC000207C012823D04FF0010884F810800220D3
:102FD00060742878EAB100F063FF4FF4616100FB90
:102FE00001F6687800F05CFFC0EB001006EB80068D
:102FF000A87800F055FF35182946204600F0ECFF70
:103000000026042710BB0FE00120BDE8F08102205C
:10301000FBE74FF4616148436978C1EB011100EBB4
:103020008100A9784518E7E72068416821F005018B
:103030004160204600F07AFF411C0AD0A84208D225
:1030400006490144204600F0B3FF10B167742674AE
:10305000DAE784F8118026740020D6E78051010059
:1030600070B504000AD02068416821F00801416071
:10307000FFF770F905464FF47A7608E0012070BD3D
:10308000FFF768F9401BB04201D9032070BD2068EA
:1030900040680007F4D5002070BD704770470000FD
:1030A00070B590F83C20012A26D0012480F83C40DD
:1030B000022280F83D2003685A689D6822F070065D
:1030C0000A6832435A600D4B02689A4208D0B2F146
:1030D000804F05D00A4B9A4202D00A4B9A4204D143
:1030E000496825F080031943916080F83D40002134
:1030F00080F83C10084670BD022070BD002C0140D5
:10310000000400400008004010B5040003D094F80B
:103110003D0010B107E0012010BD002084F83C0004
:10312000204600F01EF8022084F83D00211D206892
:1031300000F0BEFF012084F8460084F83E0084F8C9
:103140003F0084F8400084F8410084F8420084F88D
:10315000430084F8440084F8450084F83D000020D2
:1031600010BD704790F83D10012901D00120704733
:10317000022180F83D100168CA6842F00102CA606D
:1031800000680B49884208D0B0F1804F05D009494A
:10319000884202D00849884204D1816801F00701C1
:1031A000062903D0016841F0010101600020704749
:1031B000002C0140000400400008004070472DE949
:1031C000F04104460068C66805694FF00007A9078A
:1031D00013D5B10711D5F91E0161012020772068B0
:1031E00080698007204602D0FFF7E8FF04E000F086
:1031F000A3F8204600F046F92777680716D5700730
:1032000014D521686FF0040008610220207720683F
:10321000806910F4407F204602D0FFF7CFFF04E022
:1032200000F08AF8204600F02DF92777280715D5F9
:10323000300713D521686FF008000861042020775B
:103240002068C0698007204602D0FFF7B7FF04E07E
:1032500000F072F8204600F015F92777E80616D539
:10326000F00614D521686FF010000861082020775F
:103270002068C06910F4407F204602D0FFF79EFF0F
:1032800004E000F059F8204600F0FCF82777E80742
:1032900008D0F00706D021686FF0010008612046D1
:1032A00000F0F2F8280608D5300606D521686FF040
:1032B000800008612046FFF7F0FE680608D570061A
:1032C00006D521686FF040000861204600F0E6F85E
:1032D000A8060AD5B00608D521686FF0200008615D
:1032E0002046BDE8F041FFF7D9BEBDE8F0810000FF
:1032F00000B585B000210091019102910391006811
:10330000B0F1804F11D10A48816941F00401816117
:103310008069694600F004000490042000900220B7
:10332000019003900348FEF71BFF05B000BD0000AD
:103330000010024000080140704770B5044690F844
:103340003C0000260D4601280FD0012084F83C00E7
:103350006AB1042A1DD0082A2FD00C2A3FD001269A
:10336000002084F83C00304670BD022070BD20680B
:1033700000F0DAFE2068816941F00801816120686F
:10338000816921F004018161206881692A69114302
:1033900011E0206800F0F0FE2068816941F40061CE
:1033A00081612068816921F480618161206881697F
:1033B0002A6941EA02218161D2E7206800F008FF12
:1033C0002068C16941F00801C1612068C16921F02C
:1033D0000401C1612068C1692A69114311E02068B4
:1033E00000F022FF2068C16941F40061C1612068DA
:1033F000C16921F48061C1612068C1692A6941EA1B
:103400000221C161ACE710B5040003D094F83D007F
:1034100010B107E0012010BD002084F83C002046D8
:1034200000F01EF8022084F83D00211D206800F005
:103430003FFE012084F8460084F83E0084F83F00F7
:1034400084F8400084F8410084F8420084F8430086
:1034500084F8440084F8450084F83D00002010BD45
:1034600008B50068B0F1804F08D10548C16941F046
:103470000101C161C06900F00100009008BD0000B9
:10348000001002407047000000680349884201D1E3
:10349000FFF776B87047000000080040704770479B
:1034A00070470000F8B5016804460868CA684B69AF
:1034B00010F00F0F4FF0000559D003F0010602F491
:1034C0009077374365D0C10705D0D10503D5616C2E
:1034D00041F001016164410705D5D90703D0616C52
:1034E00041F002016164810705D5D90703D0616C01
:1034F00041F004016164010707D502F02001314366
:1035000003D0616C41F008016164616C00293AD01C
:10351000800604D5900602D5204600F02FFF2068D3
:103520004069616CC0F38010090700D460B3204685
:1035300000F0EFFE20684069400621D52068143075
:1035400050E8001F21F0400140E80012002AF5D1A8
:10355000E06BA8B16D494163E06BFEF7A5FC002864
:1035600011D0E06B416B01B0BDE8F0400847830625
:103570000FD593060DD52046BDE8F84000F0FEBEFD
:103580002046FFF78DFFF8BD2046FFF789FF6564F1
:10359000F8BD266B2023012E7CD1C6067AD5D6062F
:1035A00078D508684868009048694FF002064006E0
:1035B00040D5E16B086840680004000CE8D0A28D9B
:1035C0008242E5D9E085886920282DD020680C301A
:1035D00050E8001F21F4807140E80012002AF5D164
:1035E0002068143050E8001F21F0010140E800126B
:1035F000002AF5D12068143050E8001F21F0400166
:1036000040E80012002AF5D184F842302563206892
:103610000C3050E8001F21F0100140E80012002A91
:10362000F5D1E06BFEF71CFC6663A08DE18D401ABE
:1036300081B22AE0A08DE18D401A81B2E08D002890
:10364000A6D00029A4D022680C3252E8000F20F442
:10365000907042E80007002FF5D12068143050E840
:10366000002F22F0010240E80027002FF5D184F856
:103670004230256320680C3050E8002F22F0100201
:1036800040E80023002BF5D166632046FFF707FFD3
:10369000F8BDFFE705062BD5150629D594F841009E
:1036A0002128F5D1A068B0F5805F01D12069B0B1C3
:1036B000206A411C2162216800784860E08C401E2D
:1036C0000004000CE084E3D12068C16821F080018F
:1036D000C1602068C16841F04001C160D8E7206A3C
:1036E0000088C0F308004860206A801C2062E5E77B
:1036F0004006CDD55006CBD5CA68204622F0400200
:10370000CA6084F8413000F0CBF8C1E76D42000890
:1037100070B5040004D094F84100002510B106E013
:10372000012070BD84F84050204600F023F824208A
:1037300084F841002068C16821F40051C16020462E
:1037400000F07EFE2068016921F49041016120684B
:10375000416921F02A0141612068C16841F40051AA
:10376000C1606564202084F8410084F842006563EC
:10377000002070BD70B586B0002506460095019505
:10378000029503950068224988423FD12149886902
:1037900040F480408861886900F480400490886922
:1037A00040F00400886188691B4C00F0040004901C
:1037B000481500900220019003200390694620469E
:1037C000FEF7CEFC2015CDE900056946204602959E
:1037D000FEF7C6FC124C114820601020C4E9010518
:1037E0008020C4E903056561A5612046E561FEF717
:1037F00051FC08B1FEF720FBB4630022052125200F
:103800006662FEF759FF2520FEF748FF06B070BD3F
:10381000003801400010024000080140440002400E
:10382000200200207047000070B5044690F8410067
:10383000202801D0022070BD49B342B32162A28486
:10384000E28400206064212384F84130A56B114B91
:10385000AB62A56B104BEB62A56B104B2B63A36B9C
:103860005863256813462A1DA06BFEF741FC2168AA
:103870006FF0400008602068143050E8001F41F0ED
:10388000800140E80012002AF5D1002070BD01201F
:1038900070BD0000C7420008094300087D420008CF
:1038A0007CB500680D49884216D1002501A80C4C52
:1038B000CDE90005626903232946E06801F010FEA6
:1038C00065610198002807D006494FF080500860D4
:1038D000BFF34F8FBFF36F8F7CBD000000380140F6
:1038E0008C00002004ED00E07047000007494968A3
:1038F0000749084A00EBC0000968B1FBF2F100215A
:1039000000E0491CB1EBC00FFBD37047001000E092
:103910000C00002040420F0000487047C00000200B
:1039200010B586B0124800240294816941F0080164
:1039300081618069694600F008000490C020009011
:1039400011200190032003900A48FEF709FC0A4861
:103950000168C90103D4016841F080710160074822
:103960004460016841F00101016006B010BD000033
:1039700000100240000C0140FCED00E0001000E0EF
:103980002DE9F047984691460D46044600F018F997
:103990006006000E00F0E8F800F056F920B100F0E3
:1039A0002FF90120BDE8F087284600F0DDF800F08F
:1039B0004BF918B100F024F90220F3E700F000F908
:1039C00000262B4D4EE00024012280212846FEF7E0
:1039D000BCFC0027002240212846FEF7B6FC05204B
:1039E000FFF784FF012240212846FEF7AEFC0520A8
:1039F000FFF77CFF6006040E80212846FEF7A0FC3E
:103A000008B144F001047F1C082FE3DB00224021B1
:103A10002846FEF79AFCA8F1010009F80640864204
:103A200001DA012400E00024002240212846FEF7AC
:103A30008CFC0CB1002200E0012280212846FEF718
:103A400084FC0520FFF752FF012240212846FEF7A3
:103A50007CFC0520FFF74AFF002240212846FEF7A4
:103A600074FC761C4645AEDB00F0CAF8002099E7EE
:103A7000000C01402DE9F0411D4616460F46044654
:103A800000F09EF86006000E00F06EF800F0DCF822
:103A900020B100F0B5F80120BDE8F081384600F013
:103AA00063F800F0D1F838B900240BE0305D00F085
:103AB0005BF800F0C9F818B100F0A2F80220EBE7BB
:103AC000641CE4B2AC42F1D300F09AF80020E3E7C2
:103AD00038B5FFF721FF074C2060006880470320BE
:103AE000009000234FF48072034904A001F0B2FC5F
:103AF000606038BDA8000020093B00084932435FE0
:103B000053575F746573740008B5164CAE2600BF3A
:103B10008DF8006020680123002145686A463C203A
:103B2000A84720680123002145686A463C20A84731
:103B300020680123002145686A463C20A847206888
:103B40000123002145686A463C20A84720680123DC
:103B5000002145686A463C20A847012001F0BEFCD0
:103B6000D6E70000A800002070B5144E05460024DA
:103B7000002240213046FEF7E8FB280601D501224D
:103B800000E0002280213046FEF7DFFB6806050ECC
:103B90000520FFF7ABFE012240213046FEF7D5FBA2
:103BA0000520FFF7A3FE641C082CE1DB3046BDE8CE
:103BB000704000224021FEF7C8BB0000000C01400D
:103BC00010B50E4C012280212046FEF7BEFB0122DB
:103BD00040212046FEF7B9FB0520FFF787FE0022B3
:103BE00080212046FEF7B1FB0520FFF77FFE20462F
:103BF0000022BDE810404021FEF7A7BB000C0140A9
:103C000010B5104C002240212046FEF79EFB0022FA
:103C100080212046FEF799FB0520FFF767FE012271
:103C200040212046FEF791FB0520FFF75FFE0122B1
:103C300080212046FEF789FBBDE810400520FFF7F4
:103C400055BE0000000C014070B5114D002240210E
:103C50002846FEF77AFB012280212846FEF775FBF5
:103C60000520FFF743FE012240212846FEF76DFBA9
:103C70000520FFF73BFE80212846FEF761FB044646
:103C8000002240212846FEF760FB204670BD000060
:103C9000000C0140094808B5416941F0010141614A
:103CA0004069002200F00100009005210E20FEF77F
:103CB00003FDBDE808400E20FEF7F0BC00100240F6
:103CC00030B585B0002003901A48816941F0100199
:103CD0008161816901F010010491816941F0200145
:103CE0008161816901F020010491816941F0040141
:103CF0008161816901F004010491816941F0080149
:103D000081618069012400F0080004900A480B4D8D
:103D1000CDE90040694628460294FEF721FA50207A
:103D200000900748CDE9010469462846FEF718FAD5
:103D300005B030BD00100240000031100008014005
:103D4000000021100D4810B50B4901600C4941607D
:103D500000214FF480428160C0E90312416181611A
:103D6000C1610162FEF7FCFA002803D0BDE81040F3
:103D7000FEF762B810BD0000005800402801002086
:103D8000A08601007CB500241948019417490094CD
:103D90000160611EC0E90114FFF73CF808B1FEF7AD
:103DA0004BF823258DF8045059208DF805008DF827
:103DB0000640012201A90E48FFF7FCF808B1FEF702
:103DC0003BF804208DF800008DF801008DF80250BA
:103DD00026208DF80300012269460548FFF788F880
:103DE000002801D0FEF728F87CBD00000028004024
:103DF0007C01002010B58AB0002407941C2168467D
:103E00000894FCF76AFC16484FF080410160472196
:103E1000C0E9011440F2E731C0E903148021816157
:103E2000FFF7F1FA08B1FEF707F8079407A90C4865
:103E30000894FFF735F908B1FDF7FEFF6020CDE9E2
:103E4000000402940822694605480494FFF775FAB5
:103E500008B1FDF7F1FF0248FFF74AFA0AB010BDBA
:103E6000900100200C4810B50A4901604FF4E1317F
:103E70004160002181600C22C160C0E904128161AF
:103E8000C161FFF745FC002803D0BDE81040FDF7F5
:103E9000D3BF10BD00380140D8010020FEE7FEE787
:103EA000010901EB810100F00F0000EB4100C0B2FD
:103EB000704770B50446FEF74DFA05464FF47A7622
:103EC00006E0FEF747FA401BB04201D9032070BD5F
:103ED000206840688006F4D52068416841F01001F0
:103EE0004160002070BD000070B504460068416864
:103EF00021F010014160FEF72DFA05464FF47A7665
:103F000007E000BFFEF726FA401BB04201D90320AC
:103F100070BD206840688006F4D5002070BD0000A8
:103F20000148FEF757BF00007C0100200168086AC5
:103F3000496A89B241EA00407047006881698AB2E3
:103F4000C1698BB2816989B28A4203D0C06961F3C9
:103F50001F40704743EA02407047F0B56424C1EB4C
:103F6000C1030927A500072603EB01130329B3FBAF
:103F7000F7F100F5FA60114401440AD2401EB0FB8B
:103F8000F4F201EB9001B0FBF5F0891A0844001D32
:103F900008E0B0FBF4F201EB9001B0FBF5F0891AF8
:103FA0000844801CB0FBF6F106FB1100C0B2F0BD66
:103FB00070B50D4606460024FFF77BFF48B931680F
:103FC000280C08623168A8B248623046FFF78CFFBF
:103FD00000B10124204670BD70B50D460646002490
:103FE000FFF767FF48B93168280C88613168A8B2CB
:103FF000C8613046FFF778FF00B10124204670BD4C
:1040000010B5502080F31188BFF34F8FBFF36F8F2F
:1040100003F060FC18B104494FF0805008600020A4
:1040200080F3118810BD000004ED00E070B594B07D
:1040300028216846FCF751FB14210AA8FCF74DFB28
:10404000002501240F951195052012950090CDE9CA
:10405000025410954FF48030019002260494CDE96B
:1040600007604FF4E01009906846FEF721FD98B90B
:104070000F20CDE90A06A002CDE90C5002210AA8C2
:104080000E95FEF719FC38B92002CDE90F400FA8B4
:10409000FEF79CFB002801D0FDF7CEFE14B070BDEA
:1040A000704700000148FFF78AB800006402002052
:1040B000F0B50268194B1A4C1A4D4FF080479842E0
:1040C00005D0B84203D0A04201D0A84203D122F0CB
:1040D00070064A683243984205D0B84203D0A042E5
:1040E00001D0A84203D122F44074CA6822434C692B
:1040F00022F08002224302608A68C2620A688262F9
:10410000984201D109690163012141610169C9072F
:1041100003D0016921F001010161F0BD002C0140D3
:10412000000400400008004030B5036A026A22F033
:10413000010202624268846924F073050C682C4312
:1041400023F002058B682B430A4DA8420BD123F0C4
:104150000805CB6822F440722B434D6923F0040319
:1041600015438A692A434260846149684163036256
:1041700030BD0000002C014030B5026A036A23F014
:1041800010030362436884690D6824F4E64444EA3A
:1041900005248D6822F0200242EA05120B4DA84248
:1041A0000ED1CD6822F0800242EA05124D6923F457
:1041B000406343EA85038D6922F0400243EA8503A8
:1041C0004360846149688163026230BD002C014014
:1041D00030B5036A026A22F4807202624268C469DE
:1041E00023F4007324F073050C682C438D6843EAB4
:1041F00005230C4DA8420ED1CD6823F4006343EA99
:1042000005234D6922F4405242EA05128D6923F4D8
:10421000806342EA05124260C4614968C163036277
:1042200030BD0000002C014030B5046A026A22F45F
:10423000805202624268C3690D6823F4E64343EA90
:1042400005238D6824F4005444EA0534064DA84241
:1042500004D14D6922F4804242EA85124260C36172
:1042600049680164046230BD002C014010B5406A09
:104270000021C185C184FFF713F910BD70B5446AF0
:104280002068406994F84110C0F3C010002521292E
:1042900004D118B1E584204600F062F82068406936
:1042A00094F84210C0F38010222904D118B1E5859A
:1042B000204600F02EF8606C40F01000606420464C
:1042C000FFF7EEF870BD10B50146406A096809684D
:1042D000890616D40021C1840168143151E8002FE9
:1042E00022F0800241E80023002BF5D101680C3157
:1042F00051E8002F42F0400241E80023002BF5D1A5
:1043000010BDFFF7CDFA10BD10B5406AFFF7ECFA0B
:1043100010BD01680C3151E8002F22F4907241E881
:104320000023002BF5D10168143151E8002F22F051
:10433000010241E80023002BF5D1016B012909D1CD
:1043400001680C3151E8002F22F0100241E80023EF
:10435000002BF5D1202180F8421000210163704725
:1043600001680C3151E8002F22F0C00241E800231F
:10437000002BF5D1202180F84110704708B590F846
:104380004210222901D0022008BD82684FF48053D8
:104390009A4201D1016921B1816A9A421BD04AB186
:1043A0000AE00268816A5268C2F308020A80816AE0
:1043B000891C08E0026972B10268526802F07F024B
:1043C0000A70816A491C8162C18D491E0904090C69
:1043D000C18503D01BE002685268F1E70168CA6832
:1043E00022F02002CA600168CA6822F48072CA60A2
:1043F00001684A6922F001024A61202180F84210D6
:1044000000214163026B012A03D0FFF70BFA002061
:1044100008BD016301680C3151E8002F22F0100241
:1044200041E80023002BF5D101680A68D20602D5C5
:104430000A6849680091818DFFF731F8E7E70000CD
:1044400070B5044600680169E26821F440511143E7
:1044500001612169A0680843616908432168CA684D
:1044600041F20C639A430243CA6020684169A26921
:1044700021F44071114341611E492068884202D1F4
:10448000FEF7E0FA01E0FEF7CDFA00EBC00101EB28
:104490000012606864218000B2FBF0F3B3FBF1F31B
:1044A0006FF018067343B2FBF0F5B2FBF0F605EBC4
:1044B0008305322303EB0515B5FBF1F5B6FBF1F6E9
:1044C00005F0F00505EB0615B2FBF0F6B2FBF0F0D7
:1044D000B0FBF1F06FF01802504306EB800003EBE5
:1044E0000010B0FBF1F0216800F00F002844886054
:1044F00070BD0000003801400148FEF7D3BF000046
:10450000D8010020FEE7490050EAC12018BF04206E
:104510004A0D18BF40F0010040F2FF72B2EB515F4C
:1045200008BF40F00200012808BF052070470907B6
:10453000090E002804DB00F1E02080F80014704729
:1045400000F00F0000F1E02080F8141D70473038B3
:104550000A2801D20120704700207047FEE70000C2
:1045600010B501210348FDF7EBFE002800D0012023
:1045700010BD00000008014010B540210348FDF7C0
:10458000DFFE002800D0012010BD0000000801401F
:1045900010B510210348FDF7D3FE002800D00120FC
:1045A00010BD00000008014008B500228DF8000091
:1045B00003488DF801106946006800F097FE08BDB9
:1045C000B800002010B5064800F09CF804481C30E4
:1045D00000F098F80248BDE81040383000F092B87A
:1045E0004034002070B515460E46040001D1FDF799
:1045F00023FCC4E9056570BD70B515460E46040080
:1046000001D1FDF719FCC4E9036570BD70B516460C
:104610000D46040001D1FDF70FFC0DB9FDF70CFCB0
:104620001C212046FCF759F8A6711EB100206071CC
:10463000A56070BD0120FAE738B50221082000F01E
:10464000F5FD254C206008B9FDF7F6FB0022234953
:104650002348FFF7DBFF2248002222491C30FFF7E6
:10466000D5FF1F48002220493830FFF7CFFF012235
:104670001E491B48FFF7C0FF194802221B491C3086
:10468000FFF7BAFF1648032218493830FFF7B4FF86
:10469000012216491248FFF7A5FF114802221349CB
:1046A0001C30FFF79FFF0E48032210493830FFF7F8
:1046B00099FF0F480090002301220A210DA000F06D
:1046C0006DFF606008B9FDF7B7FB6068BDE8384072
:1046D000002100F095BF0000B800002079450008D7
:1046E000403400209145000861450008A9450008B4
:1046F000C545000842746E5F5363616E5F54696D17
:104700006572000070B5040001D1FDF795FBA0684B
:10471000804761790025814207D12571207860B1F9
:10472000012811D0022839D127E02179491CC9B2CA
:104730002171032920D36071EFE76079A179884264
:104740001AD10120207027E06079A179884205D034
:10475000E2681AB30120216990471FE06088401C7D
:1047600080B26080642807D3626912B10220A16917
:10477000904765800220207070BD6079A1798842E1
:104780000CD16088401C80B260801428F4D3626928
:1047900012B10320A1699047658070BD257070BD7E
:1047A00070B51E4C20681E49884236D1201D056810
:1047B000061D4FF47E70854200D90546022119A0DE
:1047C00001F0A4FD2B2118A001F0A0FD29463046E0
:1047D00001F09CFD22211FA001F098FD2548C16831
:1047E000C907FCD12449416024494160C168C90717
:1047F000FCD1016941F0020101614461016941F0AC
:1048000040010161C168C907FCD1016921F00201C1
:104810000161016941F08001016170BD00FC000887
:10482000EFBEADDE0D0A00003D3D3D205052455625
:10483000494F55532043524153482044554D502031
:104840002866726F6D20464C41534829203D3D3DFE
:104850000D0A00000D0A3D3D3D20454E44204F46C7
:104860002043524153482044554D50203D3D3D0D7D
:104870000A0D0A000020024023016745AB89EFCDF5
:104880002DE9F041454800684449091D0F68C4B24C
:10489000C0F30725060C42A001F0A6FC780002D563
:1048A00045A001F0A1FCB80702D54FA001F09CFC87
:1048B000002F02DA57A001F097FC002C18D0200638
:1048C00002D55CA001F090FCE00602D565A001F0E5
:1048D0008BFC200702D571A001F086FCA00702D551
:1048E0007CA001F081FCE00702D085A001F07CFCF7
:1048F000002D1DD0280602D58EA001F075FCE8061B
:1049000002D598A001F070FC280702D5A3A001F001
:104910006BFC680702D5AFA001F066FCA80702D5C2
:10492000B8A001F061FCE80702D0C2A001F05CFC75
:10493000002E1DD0B00502D5C9A001F055FCF00530
:1049400002D5D1A001F050FC300702D5DAA001F069
:104950004BFC700702D5E2A001F046FCB00702D57F
:10496000E9A001F041FCF00702D0F3A001F03CFC0B
:1049700044EA0500304350EA470002D1F9A001F0B3
:1049800033FC200605D505480C300168FEA000F078
:104990006BFA280600D5FDE104E2000028ED00E0F6
:1049A0002D2D2D204661756C7420526561736F6EDC
:1049B000202D2D2D000000002020484653523A2083
:1049C000464F524345442020286661756C7420652B
:1049D0007363616C6174656420746F2048617264F4
:1049E0004661756C742900002020484653523A20D5
:1049F0005645435454424C2028766563746F7220A8
:104A00007461626C652072656164206572726F7298
:104A1000290000002020484653523A204445425580
:104A20004745565420286465627567206576656E33
:104A30007429000020204D4D4653523A204D4D41DF
:104A40005256414C49442020284D4D464152206841
:104A50006F6C64732076616C696420616464726554
:104A60007373290020204D4D4653523A204D535424
:104A70004B4552522020202028737461636B696E6D
:104A8000672066726F6D20657863657074696F6EFC
:104A9000206661696C6564290000000020204D4D8E
:104AA0004653523A204D554E53544B4552522020B6
:104AB00028756E737461636B696E672066726F6DC3
:104AC00020657863657074696F6E206661696C65D6
:104AD0006429000020204D4D4653523A2044414362
:104AE0004356494F4C202020286461746120616343
:104AF000636573732076696F6C6174696F6E2900EA
:104B000020204D4D4653523A204941434356494F88
:104B10004C20202028696E737472756374696F6EFF
:104B2000206163636573732076696F6C6174696F6C
:104B30006E2900002020424653523A20204246412E
:104B40005256414C49442020284246415220686F29
:104B50006C64732076616C6964206164647265734F
:104B6000732900002020424653523A202053544BD0
:104B7000455252202020202028737461636B696E97
:104B8000672066726F6D20657863657074696F6EFB
:104B9000206661696C65642900000000202042469F
:104BA00053523A2020554E53544B45525220202008
:104BB00028756E737461636B696E672066726F6DC2
:104BC00020657863657074696F6E206661696C65D5
:104BD000642900002020424653523A2020494D507B
:104BE00052454349534552522028696D707265639E
:104BF00069736520646174612062757320657272E7
:104C00006F7229002020424653523A2020505245CC
:104C10004349534552522020287072656369736579
:104C2000206461746120627573206572726F7229ED
:104C3000000000002020424653523A2020494255AD
:104C4000534552522020202028696E737472756378
:104C500074696F6E20627573206572726F722900BD
:104C60002020554653523A202044495642595A452D
:104C7000524F202028646976696465206279207A21
:104C800065726F29000000002020554653523A20DB
:104C900020554E414C49474E4544202028756E61B1
:104CA0006C69676E6564206D656D6F7279206163F4
:104CB00063657373290000002020554653523A2043
:104CC000204E4F435020202020202020286E6F208F
:104CD000636F70726F636573736F722900000000F9
:104CE0002020554653523A2020494E56504320200A
:104CF0002020202028696E76616C69642050432052
:104D00006C6F6164656429002020554653523A2037
:104D100020494E56535441544520202028696E7630
:104D2000616C696420696E737472756374696F6E07
:104D300020737461746529002020554653523A202F
:104D400020554E444546494E5354522028756E64B2
:104D50006566696E656420696E73747275637469E3
:104D60006F6E29002020286E6F20636F6E66696762
:104D7000757261626C65206661756C7420666C6129
:104D8000677320736574290020204D4D46415220E1
:104D90003D200000044810300168BDE8F04103A048
:104DA00000F062B8BDE8F08128ED00E02020424626
:104DB000415220203D200000F0B5B3B01E461746FA
:104DC0000C4605280ED2DFE800F0030507090B00AA
:104DD0001AA508E01AA506E01AA504E01AA502E043
:104DE0001AA500E01AA500F01FFA034604B919A499
:104DF000CDE9005418A2C02102A8FBF7B9FA044675
:104E0000C02800D3BD2402ADC4F1C0012819334627
:104E10003A46FBF787FA002800DD0444BD2C00DB8E
:104E2000BD240D20285528190A21417000218170C8
:104E3000A11C02A801F032FA33B0F0BD4500000019
:104E4000570000004900000044000000540000002A
:104E500055000000000000005B256C755D5B25734C
:104E60005D5B25735D2000003EB50A460446694639
:104E7000104601F089FA204601F090F903A001F0F4
:104E80008DF9684601F0B0F93EBD000030780000B1
:104E900010B5044612A001F0A7F919A02168FFF788
:104EA000E3FF1AA06168FFF7DFFF1BA0A168FFF70F
:104EB000DBFF1CA0E168FFF7D7FF1DA02169FFF70A
:104EC000D3FF1EA06169FFF7CFFF1FA0A169FFF705
:104ED000CBFFE169BDE810401EA0FFF7C5BF000091
:104EE0002D2D2D20457863657074696F6E20537485
:104EF00061636B204672616D65202D2D2D000000D1
:104F00002020523020203D2000000000202052317F
:104F100020203D20000000002020523220203D2093
:104F2000000000002020523320203D20000000001F
:104F30002020523132203D200000000020204C5221
:104F400020203D20000000002020504320203D2054
:104F5000000000002020785053523D200000000047
:104F60002DE9F041A0F1400400F1600590B022A0CD
:104F700001F03AF93AE000BFD4E90001D4E9026750
:104F80008846694601F000FA03A9404601F0FCF9A1
:104F900006A9304601F0F8F909A9384601F0F4F9FC
:104FA00020460CA901F0F0F921A001F0F7F80CA8B7
:104FB00001F0F4F81FA001F0F1F8684601F0EEF8F6
:104FC0001DA001F0EBF803A801F0E8F81AA001F029
:104FD000E5F806A801F0E2F817A001F0DFF809A84B
:104FE00001F0DCF8154801F0D9F81034AC42C3D315
:104FF00010B0BDE8F08100002D2D2D2053746163A9
:105000006B2044756D702028333220776F72647383
:105010002061726F756E6420657863657074696F66
:105020006E206672616D6529202D2D2D0000000017
:105030005B3078005D20200020200000F86100082F
:105040004FF0FF307047000003490A681206FCD594
:105050000149091D08607047003801400548016892
:1050600041F4E021016003481038016841F010016B
:105070000160704724ED00E0044672B600202A4922
:1050800008602A4908702A48816944F204021143E1
:1050900081612848016821F0F00141F0B001016010
:1050A00025480168890405D44521021F116042F298
:1050B0000801016021A001F097F821A001F094F807
:1050C0002CA001F091F81EA001F08EF81BA001F0B9
:1050D0008BF82046FFF7DCFE18A001F085F82D487C
:1050E00001682DA0FFF7C0FE2A48001D01682CA012
:1050F000FFF7BAFEFFF7C4FB10A001F075F82046D9
:10510000FFF72EFF0DA001F06FF80DA001F06CF875
:1051100025A001F069F80AA001F066F807A001F0E7
:1051200063F801F083FDFEE7D000002094340020F6
:1051300000100240040801400C380140000000004B
:105140003D3D3D3D3D3D3D3D3D3D3D3D3D3D3D3D8F
:105150003D3D3D3D3D3D3D3D3D3D3D3D3D3D3D3D7F
:105160003D3D3D3D3D3D3D3D3D3D3D3D3D3D3D3D6F
:105170000000000020202020202020204841524410
:105180004641554C542043524153482044554D50BC
:105190000000000028ED00E043465352203D20006F
:1051A00048465352203D200020202020202020204F
:1051B000454E44204F462043524153482044554DCC
:1051C000500000000248022101700249416070470E
:1051D000B0000020B94D00080FB4084A10B513788C
:1051E000052B08D01378984205D85468002C02D0BB
:1051F00005AB049AA04710BC5DF814FBB00000207A
:10520000FDF7C6F9FEF712FFFEF75AFDFEF742FD65
:10521000FEF798FDFEF7B6FDFEF7ECFDFEF722FE69
:10522000FCF7CCFDFCF708FE02F04EBB70B50C4657
:10523000050006D176220CA110A0FBF78DF8FCF733
:10524000FBFD34B9772208A10CA0FBF785F8FCF729
:10525000F3FD00222146284601F0FEFD040001D1A5
:10526000FCF7EAFD204670BD2E2E2F557365722F78
:105270004F53414C2F6F73616C2E63004572726FF8
:10528000723A2025732C2025640D0A0070B516464D
:105290000C46050006D191220BA110A0FBF75CF88B
:1052A000FCF7CAFD34B9922207A10CA0FBF754F811
:1052B000FCF7C2FD32462146284601F073FF012863
:1052C00000D0002070BD00002E2E2F557365722F68
:1052D0004F53414C2F6F73616C2E63004572726F98
:1052E000723A2025732C2025640D0A0070B51646ED
:1052F0000C46050006D186220BA110A0FBF72CF866
:10530000FCF79AFD34B9872207A10CA0FBF724F81B
:10531000FCF792FD002332462146284601F068FE44
:10532000012800D0002070BD2E2E2F557365722FDE
:105330004F53414C2F6F73616C2E63004572726F37
:10534000723A2025732C2025640D0A0070B50D4695
:10535000040006D1B1220CA110A0FAF7FDFFFCF762
:105360006BFDA54206D9B22207A10CA0FAF7F4FF03
:10537000FCF762FD2946204601F038FD040001D10A
:10538000FCF75AFD204670BD2E2E2F557365722FE7
:105390004F53414C2F6F73616C2E63004572726FD7
:1053A000723A2025732C2025640D0A0010B50400E4
:1053B00006D1D32207A10CA0FAF7CEFFFCF73CFDE3
:1053C00000231A461946204601F012FE012800D09B
:1053D000002010BD2E2E2F557365722F4F53414C58
:1053E0002F6F73616C2E63004572726F723A2025C5
:1053F000732C2025640D0A0070B50D46040006D1FB
:10540000C12207A10BA0FAF7A7FFFCF715FD29465B
:10541000204601F081FF012800D0002070BD00006F
:105420002E2E2F557365722F4F53414C2F6F736182
:105430006C2E63004572726F723A2025732C202502
:10544000640D0A0010B501F023FBBDE81040FCF725
:10545000F3BC00002DE9FE430A9D984616460C0059
:10546000074606D11C2214A118A0FAF775FFFCF715
:10547000E3FC36B91D2210A114A0FAF76DFFFCF76A
:10548000DBFC0A2D06D31E220BA110A0FAF764FF45
:10549000FCF7D2FC0020029002A8CDE90050434660
:1054A00032463946204602F06DF8012801D0FCF75B
:1054B000C3FC0298BDE8FE832E2E2F557365722F14
:1054C0004F53414C2F6F73616C2E63004572726FA6
:1054D000723A2025732C2025640D0A0001F082B950
:1054E0002DE9FC41089C1F4690460D46060007D159
:1054F00040F235121AA11FA0FAF72EFFFCF79CFC10
:105500003DB14FF49B7216A11AA0FAF725FFFCF7E4
:1055100093FC3CB940F2371211A116A0FAF71CFF18
:10552000FCF78AFC052F17D2DFE807F00B0305070D
:105530000900012306E0022304E0032302E0042320
:1055400000E000230020CDE9000442462946304611
:1055500002F046F8012800D00020BDE8FC810000E0
:105560002E2E2F557365722F4F53414C2F6F736141
:105570006C2E63004572726F723A2025732C2025C1
:10558000640D0A0008B5009313460A460146002040
:1055900002F004F9012800D0002008BD2DE9F843ED
:1055A000089C1E4615460F46804634B951220BA171
:1055B0000FA0FAF7D1FEFCF73FFC00940DB10122D9
:1055C00000E0002233463946404602F063FC040006
:1055D00001D1FCF731FC2046BDE8F8832E2E2F5573
:1055E0007365722F4F53414C2F6F73616C2E6300A4
:1055F0004572726F723A2025732C2025640D0A00C3
:1056000038B50C46050006D1642208A10CA0FAF7B3
:10561000A3FEFCF711FC02F057F90246002301211A
:105620002846009402F0D0FC38BD00002E2E2F55E5
:105630007365722F4F53414C2F6F73616C2E630053
:105640004572726F723A2025732C2025640D0A0072
:105650002DE9F047224C0F460546E668D4F8349011
:10566000D4F838802168002081F859002068001D96
:1056700000F09EFE38B9206890F82C100120884078
:10568000216981432161681C15D1A7B115492268A0
:105690004868906023688268DA6022688368121D17
:1056A0005A602268121D8260206841610868401CAF
:1056B0000860BDE8F08720683544B5424560216840
:1056C00005D24046BDE8F047091D00F0B3BE48468C
:1056D000091D00F0AFFEA06A8542EAD2A562E8E7A4
:1056E00010000020040400202DE9F041054600F0E0
:1056F000B9FE364CA068401CA0602068344F10B141
:10570000606938B32CE02560A068012828D1002604
:1057100006EB860007EB800000F07EFE761C0A2E6A
:10572000F6D32B48C83000F077FE2948DC3000F073
:1057300073FE2748F03000F06FFE264800F06CFE44
:105740002448143000F068FE22483C38606314306E
:10575000A06305E02068E96AC06A884200D8256035
:10576000606A401C60626864E96A012022698840BE
:105770001043206101EB810007EB80004068A860C6
:105780008168E9608268291D51608160E86A00EBE8
:10579000800007EB8001696157F82010491C47F829
:1057A000201000F0A7FE606900280CD02068E96A8C
:1057B000C06A884207D208494FF080500860BFF3A2
:1057C0004F8FBFF36F8FBDE8F08100001000002005
:1057D000EC020020F003002004ED00E010B500F022
:1057E00041FE0E4C2068A0B90D4800F015FE0C4893
:1057F000143000F011FE0A48E060143020610022ED
:105800001021052001F028FB206010B105A100F057
:105810007FFFBDE8104000F06DBE0000500000208A
:1058200018040020546D72510000000070B50C4C3B
:105830000C4E11E000F016FEF068C568281D00F05F
:10584000B7FDA068401EA0606068401E606000F068
:1058500051FE284600F051F860680028EAD170BD7A
:1058600010000020F003002030B4026C0B46002A28
:105870000BD0C1681144C1608468A14201D30168A2
:10588000C16030BC1846FAF7B9BE30BC70472DE98C
:10589000F041856B174604460026026C82B1C7B101
:1058A000E068FAF7ABFEE168206C091AE160226853
:1058B000914202D2A168081AE060022F16D017E0C8
:1058C0002068A8B9A06802F0C1F806460020A060D0
:1058D0000EE06068FAF792FE216C60680844606030
:1058E000A168884204D32068606001E005B16D1EA4
:1058F0006D1CA5633046BDE8F08110B50446006B11
:1059000000F034FE2046BDE8104000F02FBE00003D
:105910000E484FF42051420706D0C01D0B4920F01D
:105920000700411AC1F52051094A00230144C2E988
:1059300000030839143A21F0070111604B600B6035
:105940000B1AC0E9001393605360704740040020B5
:1059500084000020074C4FF08056074DFFF766FF8C
:1059600020680128FAD92E60BFF34F8FBFF36F8FE5
:10597000F4E70000EC02002004ED00E02DE9F04720
:10598000DDE909840E461746824691009946089D36
:10599000A522206BFAF777FE6FF00301206B01EB75
:1059A0008701084420F00707780707D040F22E72DD
:1059B0001CA127A0FAF7D0FCFCF73EFA66B1002044
:1059C0002218315C82F83410315C11B1401C10286F
:1059D000F6D3002084F843000A2D08D340F2647205
:1059E00010A11BA0FAF7B8FCFCF726FA0925E5621E
:1059F000201DE56400F01BFD04F1180000F017FD08
:105A00002461C5F10A006462A0614A4651463846E5
:105A100000F0B2FB2060B8F1000F01D0C8F80040E0
:105A2000BDE8F0872E2E5C557365725C4D69646429
:105A30006C6577617265735C4672656552544F534D
:105A40005C736F757263655C7461736B732E630056
:105A50004572726F723A2025732C2025640D0A005E
:105A600070B505461A4C00E004462068A842FBD3F6
:105A7000174884420DD01748844202D31648844206
:105A800007D94FF4FD7215A122A0FAF765FCFCF7C7
:105A9000D3F960680119A94203D169682546084411
:105AA0006060696820684A19824209D1084A143A3C
:105AB0001268904209D04068084468602068006815
:105AC0002860AC4200D0256070BD2A60F9E7000074
:105AD00084000020400400203F2C00202E2E5C5526
